{
	"contracts/RecG.sol": {
		"RecG": {
			"abi": [
				{
					"inputs": [
						{
							"internalType": "string",
							"name": "tokenName",
							"type": "string"
						},
						{
							"internalType": "string",
							"name": "tokenSymbol",
							"type": "string"
						}
					],
					"stateMutability": "nonpayable",
					"type": "constructor"
				},
				{
					"anonymous": false,
					"inputs": [
						{
							"indexed": true,
							"internalType": "address",
							"name": "owner",
							"type": "address"
						},
						{
							"indexed": true,
							"internalType": "address",
							"name": "approved",
							"type": "address"
						},
						{
							"indexed": true,
							"internalType": "uint256",
							"name": "tokenId",
							"type": "uint256"
						}
					],
					"name": "Approval",
					"type": "event"
				},
				{
					"anonymous": false,
					"inputs": [
						{
							"indexed": true,
							"internalType": "address",
							"name": "owner",
							"type": "address"
						},
						{
							"indexed": true,
							"internalType": "address",
							"name": "operator",
							"type": "address"
						},
						{
							"indexed": false,
							"internalType": "bool",
							"name": "approved",
							"type": "bool"
						}
					],
					"name": "ApprovalForAll",
					"type": "event"
				},
				{
					"anonymous": false,
					"inputs": [
						{
							"indexed": true,
							"internalType": "address",
							"name": "from",
							"type": "address"
						},
						{
							"indexed": true,
							"internalType": "address",
							"name": "to",
							"type": "address"
						},
						{
							"indexed": true,
							"internalType": "uint256",
							"name": "tokenId",
							"type": "uint256"
						}
					],
					"name": "Transfer",
					"type": "event"
				},
				{
					"inputs": [
						{
							"internalType": "address",
							"name": "to",
							"type": "address"
						},
						{
							"internalType": "uint256",
							"name": "tokenId",
							"type": "uint256"
						}
					],
					"name": "approve",
					"outputs": [],
					"stateMutability": "nonpayable",
					"type": "function"
				},
				{
					"inputs": [
						{
							"internalType": "address",
							"name": "player",
							"type": "address"
						}
					],
					"name": "awardItem",
					"outputs": [
						{
							"internalType": "uint256",
							"name": "",
							"type": "uint256"
						}
					],
					"stateMutability": "nonpayable",
					"type": "function"
				},
				{
					"inputs": [
						{
							"internalType": "address",
							"name": "owner",
							"type": "address"
						}
					],
					"name": "balanceOf",
					"outputs": [
						{
							"internalType": "uint256",
							"name": "",
							"type": "uint256"
						}
					],
					"stateMutability": "view",
					"type": "function"
				},
				{
					"inputs": [
						{
							"internalType": "uint256",
							"name": "tokenId",
							"type": "uint256"
						}
					],
					"name": "getApproved",
					"outputs": [
						{
							"internalType": "address",
							"name": "",
							"type": "address"
						}
					],
					"stateMutability": "view",
					"type": "function"
				},
				{
					"inputs": [
						{
							"internalType": "address",
							"name": "owner",
							"type": "address"
						},
						{
							"internalType": "address",
							"name": "operator",
							"type": "address"
						}
					],
					"name": "isApprovedForAll",
					"outputs": [
						{
							"internalType": "bool",
							"name": "",
							"type": "bool"
						}
					],
					"stateMutability": "view",
					"type": "function"
				},
				{
					"inputs": [],
					"name": "name",
					"outputs": [
						{
							"internalType": "string",
							"name": "",
							"type": "string"
						}
					],
					"stateMutability": "view",
					"type": "function"
				},
				{
					"inputs": [
						{
							"internalType": "uint256",
							"name": "tokenId",
							"type": "uint256"
						}
					],
					"name": "ownerOf",
					"outputs": [
						{
							"internalType": "address",
							"name": "",
							"type": "address"
						}
					],
					"stateMutability": "view",
					"type": "function"
				},
				{
					"inputs": [
						{
							"internalType": "address",
							"name": "from",
							"type": "address"
						},
						{
							"internalType": "address",
							"name": "to",
							"type": "address"
						},
						{
							"internalType": "uint256",
							"name": "tokenId",
							"type": "uint256"
						}
					],
					"name": "safeTransferFrom",
					"outputs": [],
					"stateMutability": "nonpayable",
					"type": "function"
				},
				{
					"inputs": [
						{
							"internalType": "address",
							"name": "from",
							"type": "address"
						},
						{
							"internalType": "address",
							"name": "to",
							"type": "address"
						},
						{
							"internalType": "uint256",
							"name": "tokenId",
							"type": "uint256"
						},
						{
							"internalType": "bytes",
							"name": "data",
							"type": "bytes"
						}
					],
					"name": "safeTransferFrom",
					"outputs": [],
					"stateMutability": "nonpayable",
					"type": "function"
				},
				{
					"inputs": [
						{
							"internalType": "address",
							"name": "operator",
							"type": "address"
						},
						{
							"internalType": "bool",
							"name": "approved",
							"type": "bool"
						}
					],
					"name": "setApprovalForAll",
					"outputs": [],
					"stateMutability": "nonpayable",
					"type": "function"
				},
				{
					"inputs": [
						{
							"internalType": "bytes4",
							"name": "interfaceId",
							"type": "bytes4"
						}
					],
					"name": "supportsInterface",
					"outputs": [
						{
							"internalType": "bool",
							"name": "",
							"type": "bool"
						}
					],
					"stateMutability": "view",
					"type": "function"
				},
				{
					"inputs": [],
					"name": "symbol",
					"outputs": [
						{
							"internalType": "string",
							"name": "",
							"type": "string"
						}
					],
					"stateMutability": "view",
					"type": "function"
				},
				{
					"inputs": [
						{
							"internalType": "uint256",
							"name": "tokenId",
							"type": "uint256"
						}
					],
					"name": "tokenURI",
					"outputs": [
						{
							"internalType": "string",
							"name": "",
							"type": "string"
						}
					],
					"stateMutability": "view",
					"type": "function"
				},
				{
					"inputs": [
						{
							"internalType": "address",
							"name": "from",
							"type": "address"
						},
						{
							"internalType": "address",
							"name": "to",
							"type": "address"
						},
						{
							"internalType": "uint256",
							"name": "tokenId",
							"type": "uint256"
						}
					],
					"name": "transferFrom",
					"outputs": [],
					"stateMutability": "nonpayable",
					"type": "function"
				}
			],
			"devdoc": {
				"details": "Create a sample ERC721 standard token",
				"kind": "dev",
				"methods": {
					"approve(address,uint256)": {
						"details": "See {IERC721-approve}."
					},
					"balanceOf(address)": {
						"details": "See {IERC721-balanceOf}."
					},
					"getApproved(uint256)": {
						"details": "See {IERC721-getApproved}."
					},
					"isApprovedForAll(address,address)": {
						"details": "See {IERC721-isApprovedForAll}."
					},
					"name()": {
						"details": "See {IERC721Metadata-name}."
					},
					"ownerOf(uint256)": {
						"details": "See {IERC721-ownerOf}."
					},
					"safeTransferFrom(address,address,uint256)": {
						"details": "See {IERC721-safeTransferFrom}."
					},
					"safeTransferFrom(address,address,uint256,bytes)": {
						"details": "See {IERC721-safeTransferFrom}."
					},
					"setApprovalForAll(address,bool)": {
						"details": "See {IERC721-setApprovalForAll}."
					},
					"supportsInterface(bytes4)": {
						"details": "See {IERC165-supportsInterface}."
					},
					"symbol()": {
						"details": "See {IERC721Metadata-symbol}."
					},
					"tokenURI(uint256)": {
						"details": "See {IERC721Metadata-tokenURI}."
					},
					"transferFrom(address,address,uint256)": {
						"details": "See {IERC721-transferFrom}."
					}
				},
				"title": "RecG",
				"version": 1
			},
			"evm": {
				"assembly": "    /* \"contracts/RecG.sol\":251:696  contract RecG is ERC721 {... */\n  mstore(0x40, 0x80)\n    /* \"contracts/RecG.sol\":363:460  constructor(string memory tokenName, string memory tokenSymbol) ERC721(tokenName, tokenSymbol) {} */\n  callvalue\n  dup1\n  iszero\n  tag_1\n  jumpi\n  0x00\n  dup1\n  revert\ntag_1:\n  pop\n  mload(0x40)\n  sub(codesize, bytecodeSize)\n  dup1\n  bytecodeSize\n  dup4\n  codecopy\n  dup2\n  dup2\n  add\n  0x40\n  mstore\n  dup2\n  add\n  swap1\n  tag_2\n  swap2\n  swap1\n  tag_3\n  jump\t// in\ntag_2:\n    /* \"contracts/RecG.sol\":434:443  tokenName */\n  dup2\n    /* \"contracts/RecG.sol\":445:456  tokenSymbol */\n  dup2\n    /* \"@openzeppelin/contracts/token/ERC721/ERC721.sol\":1464:1469  name_ */\n  dup2\n    /* \"@openzeppelin/contracts/token/ERC721/ERC721.sol\":1456:1461  _name */\n  0x00\n    /* \"@openzeppelin/contracts/token/ERC721/ERC721.sol\":1456:1469  _name = name_ */\n  swap1\n  dup1\n  mload\n  swap1\n  0x20\n  add\n  swap1\n  tag_7\n  swap3\n  swap2\n  swap1\n  tag_8\n  jump\t// in\ntag_7:\n  pop\n    /* \"@openzeppelin/contracts/token/ERC721/ERC721.sol\":1489:1496  symbol_ */\n  dup1\n    /* \"@openzeppelin/contracts/token/ERC721/ERC721.sol\":1479:1486  _symbol */\n  0x01\n    /* \"@openzeppelin/contracts/token/ERC721/ERC721.sol\":1479:1496  _symbol = symbol_ */\n  swap1\n  dup1\n  mload\n  swap1\n  0x20\n  add\n  swap1\n  tag_9\n  swap3\n  swap2\n  swap1\n  tag_8\n  jump\t// in\ntag_9:\n  pop\n    /* \"@openzeppelin/contracts/token/ERC721/ERC721.sol\":1390:1503  constructor(string memory name_, string memory symbol_) {... */\n  pop\n  pop\n    /* \"contracts/RecG.sol\":363:460  constructor(string memory tokenName, string memory tokenSymbol) ERC721(tokenName, tokenSymbol) {} */\n  pop\n  pop\n    /* \"contracts/RecG.sol\":251:696  contract RecG is ERC721 {... */\n  jump(tag_11)\ntag_8:\n  dup3\n  dup1\n  sload\n  tag_12\n  swap1\n  tag_13\n  jump\t// in\ntag_12:\n  swap1\n  0x00\n  mstore\n  keccak256(0x00, 0x20)\n  swap1\n  0x1f\n  add\n  0x20\n  swap1\n  div\n  dup2\n  add\n  swap3\n  dup3\n  tag_15\n  jumpi\n  0x00\n  dup6\n  sstore\n  jump(tag_14)\ntag_15:\n  dup3\n  0x1f\n  lt\n  tag_16\n  jumpi\n  dup1\n  mload\n  not(0xff)\n  and\n  dup4\n  dup1\n  add\n  or\n  dup6\n  sstore\n  jump(tag_14)\ntag_16:\n  dup3\n  dup1\n  add\n  0x01\n  add\n  dup6\n  sstore\n  dup3\n  iszero\n  tag_14\n  jumpi\n  swap2\n  dup3\n  add\ntag_17:\n  dup3\n  dup2\n  gt\n  iszero\n  tag_18\n  jumpi\n  dup3\n  mload\n  dup3\n  sstore\n  swap2\n  0x20\n  add\n  swap2\n  swap1\n  0x01\n  add\n  swap1\n  jump(tag_17)\ntag_18:\ntag_14:\n  pop\n  swap1\n  pop\n  tag_19\n  swap2\n  swap1\n  tag_20\n  jump\t// in\ntag_19:\n  pop\n  swap1\n  jump\t// out\ntag_20:\ntag_21:\n  dup1\n  dup3\n  gt\n  iszero\n  tag_22\n  jumpi\n  0x00\n  dup2\n  0x00\n  swap1\n  sstore\n  pop\n  0x01\n  add\n  jump(tag_21)\ntag_22:\n  pop\n  swap1\n  jump\t// out\n    /* \"#utility.yul\":7:361   */\ntag_24:\n  0x00\n    /* \"#utility.yul\":121:187   */\n  tag_26\n    /* \"#utility.yul\":137:186   */\n  tag_27\n    /* \"#utility.yul\":179:185   */\n  dup5\n    /* \"#utility.yul\":137:186   */\n  tag_28\n  jump\t// in\ntag_27:\n    /* \"#utility.yul\":121:187   */\n  tag_29\n  jump\t// in\ntag_26:\n    /* \"#utility.yul\":112:187   */\n  swap1\n  pop\n    /* \"#utility.yul\":210:216   */\n  dup3\n    /* \"#utility.yul\":203:208   */\n  dup2\n    /* \"#utility.yul\":196:217   */\n  mstore\n    /* \"#utility.yul\":248:252   */\n  0x20\n    /* \"#utility.yul\":241:246   */\n  dup2\n    /* \"#utility.yul\":237:253   */\n  add\n    /* \"#utility.yul\":286:289   */\n  dup5\n    /* \"#utility.yul\":277:283   */\n  dup5\n    /* \"#utility.yul\":272:275   */\n  dup5\n    /* \"#utility.yul\":268:284   */\n  add\n    /* \"#utility.yul\":265:290   */\n  gt\n    /* \"#utility.yul\":262:264   */\n  iszero\n  tag_30\n  jumpi\n    /* \"#utility.yul\":303:304   */\n  0x00\n    /* \"#utility.yul\":300:301   */\n  dup1\n    /* \"#utility.yul\":293:305   */\n  revert\n    /* \"#utility.yul\":262:264   */\ntag_30:\n    /* \"#utility.yul\":316:355   */\n  tag_31\n    /* \"#utility.yul\":348:354   */\n  dup5\n    /* \"#utility.yul\":343:346   */\n  dup3\n    /* \"#utility.yul\":338:341   */\n  dup6\n    /* \"#utility.yul\":316:355   */\n  tag_32\n  jump\t// in\ntag_31:\n    /* \"#utility.yul\":102:361   */\n  pop\n  swap4\n  swap3\n  pop\n  pop\n  pop\n  jump\t// out\n    /* \"#utility.yul\":381:669   */\ntag_33:\n  0x00\n    /* \"#utility.yul\":497:500   */\n  dup3\n    /* \"#utility.yul\":490:494   */\n  0x1f\n    /* \"#utility.yul\":482:488   */\n  dup4\n    /* \"#utility.yul\":478:495   */\n  add\n    /* \"#utility.yul\":474:501   */\n  slt\n    /* \"#utility.yul\":464:466   */\n  tag_35\n  jumpi\n    /* \"#utility.yul\":515:516   */\n  0x00\n    /* \"#utility.yul\":512:513   */\n  dup1\n    /* \"#utility.yul\":505:517   */\n  revert\n    /* \"#utility.yul\":464:466   */\ntag_35:\n    /* \"#utility.yul\":548:554   */\n  dup2\n    /* \"#utility.yul\":542:555   */\n  mload\n    /* \"#utility.yul\":573:663   */\n  tag_36\n    /* \"#utility.yul\":659:662   */\n  dup5\n    /* \"#utility.yul\":651:657   */\n  dup3\n    /* \"#utility.yul\":644:648   */\n  0x20\n    /* \"#utility.yul\":636:642   */\n  dup7\n    /* \"#utility.yul\":632:649   */\n  add\n    /* \"#utility.yul\":573:663   */\n  tag_24\n  jump\t// in\ntag_36:\n    /* \"#utility.yul\":564:663   */\n  swap2\n  pop\n    /* \"#utility.yul\":454:669   */\n  pop\n  swap3\n  swap2\n  pop\n  pop\n  jump\t// out\n    /* \"#utility.yul\":675:1327   */\ntag_3:\n  0x00\n  dup1\n    /* \"#utility.yul\":831:833   */\n  0x40\n    /* \"#utility.yul\":819:828   */\n  dup4\n    /* \"#utility.yul\":810:817   */\n  dup6\n    /* \"#utility.yul\":806:829   */\n  sub\n    /* \"#utility.yul\":802:834   */\n  slt\n    /* \"#utility.yul\":799:801   */\n  iszero\n  tag_38\n  jumpi\n    /* \"#utility.yul\":847:848   */\n  0x00\n    /* \"#utility.yul\":844:845   */\n  dup1\n    /* \"#utility.yul\":837:849   */\n  revert\n    /* \"#utility.yul\":799:801   */\ntag_38:\n    /* \"#utility.yul\":911:912   */\n  0x00\n    /* \"#utility.yul\":900:909   */\n  dup4\n    /* \"#utility.yul\":896:913   */\n  add\n    /* \"#utility.yul\":890:914   */\n  mload\n    /* \"#utility.yul\":941:959   */\n  0xffffffffffffffff\n    /* \"#utility.yul\":933:939   */\n  dup2\n    /* \"#utility.yul\":930:960   */\n  gt\n    /* \"#utility.yul\":927:929   */\n  iszero\n  tag_39\n  jumpi\n    /* \"#utility.yul\":973:974   */\n  0x00\n    /* \"#utility.yul\":970:971   */\n  dup1\n    /* \"#utility.yul\":963:975   */\n  revert\n    /* \"#utility.yul\":927:929   */\ntag_39:\n    /* \"#utility.yul\":1001:1075   */\n  tag_40\n    /* \"#utility.yul\":1067:1074   */\n  dup6\n    /* \"#utility.yul\":1058:1064   */\n  dup3\n    /* \"#utility.yul\":1047:1056   */\n  dup7\n    /* \"#utility.yul\":1043:1065   */\n  add\n    /* \"#utility.yul\":1001:1075   */\n  tag_33\n  jump\t// in\ntag_40:\n    /* \"#utility.yul\":991:1075   */\n  swap3\n  pop\n    /* \"#utility.yul\":861:1085   */\n  pop\n    /* \"#utility.yul\":1145:1147   */\n  0x20\n    /* \"#utility.yul\":1134:1143   */\n  dup4\n    /* \"#utility.yul\":1130:1148   */\n  add\n    /* \"#utility.yul\":1124:1149   */\n  mload\n    /* \"#utility.yul\":1176:1194   */\n  0xffffffffffffffff\n    /* \"#utility.yul\":1168:1174   */\n  dup2\n    /* \"#utility.yul\":1165:1195   */\n  gt\n    /* \"#utility.yul\":1162:1164   */\n  iszero\n  tag_41\n  jumpi\n    /* \"#utility.yul\":1208:1209   */\n  0x00\n    /* \"#utility.yul\":1205:1206   */\n  dup1\n    /* \"#utility.yul\":1198:1210   */\n  revert\n    /* \"#utility.yul\":1162:1164   */\ntag_41:\n    /* \"#utility.yul\":1236:1310   */\n  tag_42\n    /* \"#utility.yul\":1302:1309   */\n  dup6\n    /* \"#utility.yul\":1293:1299   */\n  dup3\n    /* \"#utility.yul\":1282:1291   */\n  dup7\n    /* \"#utility.yul\":1278:1300   */\n  add\n    /* \"#utility.yul\":1236:1310   */\n  tag_33\n  jump\t// in\ntag_42:\n    /* \"#utility.yul\":1226:1310   */\n  swap2\n  pop\n    /* \"#utility.yul\":1095:1320   */\n  pop\n    /* \"#utility.yul\":789:1327   */\n  swap3\n  pop\n  swap3\n  swap1\n  pop\n  jump\t// out\n    /* \"#utility.yul\":1333:1462   */\ntag_29:\n  0x00\n    /* \"#utility.yul\":1394:1414   */\n  tag_44\n  tag_45\n  jump\t// in\ntag_44:\n    /* \"#utility.yul\":1384:1414   */\n  swap1\n  pop\n    /* \"#utility.yul\":1423:1456   */\n  tag_46\n    /* \"#utility.yul\":1451:1455   */\n  dup3\n    /* \"#utility.yul\":1443:1449   */\n  dup3\n    /* \"#utility.yul\":1423:1456   */\n  tag_47\n  jump\t// in\ntag_46:\n    /* \"#utility.yul\":1374:1462   */\n  swap2\n  swap1\n  pop\n  jump\t// out\n    /* \"#utility.yul\":1468:1543   */\ntag_45:\n  0x00\n    /* \"#utility.yul\":1534:1536   */\n  0x40\n    /* \"#utility.yul\":1528:1537   */\n  mload\n    /* \"#utility.yul\":1518:1537   */\n  swap1\n  pop\n    /* \"#utility.yul\":1508:1543   */\n  swap1\n  jump\t// out\n    /* \"#utility.yul\":1549:1857   */\ntag_28:\n  0x00\n    /* \"#utility.yul\":1701:1719   */\n  0xffffffffffffffff\n    /* \"#utility.yul\":1693:1699   */\n  dup3\n    /* \"#utility.yul\":1690:1720   */\n  gt\n    /* \"#utility.yul\":1687:1689   */\n  iszero\n  tag_50\n  jumpi\n    /* \"#utility.yul\":1723:1741   */\n  tag_51\n  tag_52\n  jump\t// in\ntag_51:\n    /* \"#utility.yul\":1687:1689   */\ntag_50:\n    /* \"#utility.yul\":1761:1790   */\n  tag_53\n    /* \"#utility.yul\":1783:1789   */\n  dup3\n    /* \"#utility.yul\":1761:1790   */\n  tag_54\n  jump\t// in\ntag_53:\n    /* \"#utility.yul\":1753:1790   */\n  swap1\n  pop\n    /* \"#utility.yul\":1845:1849   */\n  0x20\n    /* \"#utility.yul\":1839:1843   */\n  dup2\n    /* \"#utility.yul\":1835:1850   */\n  add\n    /* \"#utility.yul\":1827:1850   */\n  swap1\n  pop\n    /* \"#utility.yul\":1616:1857   */\n  swap2\n  swap1\n  pop\n  jump\t// out\n    /* \"#utility.yul\":1863:2170   */\ntag_32:\n    /* \"#utility.yul\":1931:1932   */\n  0x00\n    /* \"#utility.yul\":1941:2054   */\ntag_56:\n    /* \"#utility.yul\":1955:1961   */\n  dup4\n    /* \"#utility.yul\":1952:1953   */\n  dup2\n    /* \"#utility.yul\":1949:1962   */\n  lt\n    /* \"#utility.yul\":1941:2054   */\n  iszero\n  tag_58\n  jumpi\n    /* \"#utility.yul\":2040:2041   */\n  dup1\n    /* \"#utility.yul\":2035:2038   */\n  dup3\n    /* \"#utility.yul\":2031:2042   */\n  add\n    /* \"#utility.yul\":2025:2043   */\n  mload\n    /* \"#utility.yul\":2021:2022   */\n  dup2\n    /* \"#utility.yul\":2016:2019   */\n  dup5\n    /* \"#utility.yul\":2012:2023   */\n  add\n    /* \"#utility.yul\":2005:2044   */\n  mstore\n    /* \"#utility.yul\":1977:1979   */\n  0x20\n    /* \"#utility.yul\":1974:1975   */\n  dup2\n    /* \"#utility.yul\":1970:1980   */\n  add\n    /* \"#utility.yul\":1965:1980   */\n  swap1\n  pop\n    /* \"#utility.yul\":1941:2054   */\n  jump(tag_56)\ntag_58:\n    /* \"#utility.yul\":2072:2078   */\n  dup4\n    /* \"#utility.yul\":2069:2070   */\n  dup2\n    /* \"#utility.yul\":2066:2079   */\n  gt\n    /* \"#utility.yul\":2063:2065   */\n  iszero\n  tag_59\n  jumpi\n    /* \"#utility.yul\":2152:2153   */\n  0x00\n    /* \"#utility.yul\":2143:2149   */\n  dup5\n    /* \"#utility.yul\":2138:2141   */\n  dup5\n    /* \"#utility.yul\":2134:2150   */\n  add\n    /* \"#utility.yul\":2127:2154   */\n  mstore\n    /* \"#utility.yul\":2063:2065   */\ntag_59:\n    /* \"#utility.yul\":1912:2170   */\n  pop\n  pop\n  pop\n  pop\n  jump\t// out\n    /* \"#utility.yul\":2176:2496   */\ntag_13:\n  0x00\n    /* \"#utility.yul\":2257:2258   */\n  0x02\n    /* \"#utility.yul\":2251:2255   */\n  dup3\n    /* \"#utility.yul\":2247:2259   */\n  div\n    /* \"#utility.yul\":2237:2259   */\n  swap1\n  pop\n    /* \"#utility.yul\":2304:2305   */\n  0x01\n    /* \"#utility.yul\":2298:2302   */\n  dup3\n    /* \"#utility.yul\":2294:2306   */\n  and\n    /* \"#utility.yul\":2325:2343   */\n  dup1\n    /* \"#utility.yul\":2315:2317   */\n  tag_61\n  jumpi\n    /* \"#utility.yul\":2381:2385   */\n  0x7f\n    /* \"#utility.yul\":2373:2379   */\n  dup3\n    /* \"#utility.yul\":2369:2386   */\n  and\n    /* \"#utility.yul\":2359:2386   */\n  swap2\n  pop\n    /* \"#utility.yul\":2315:2317   */\ntag_61:\n    /* \"#utility.yul\":2443:2445   */\n  0x20\n    /* \"#utility.yul\":2435:2441   */\n  dup3\n    /* \"#utility.yul\":2432:2446   */\n  lt\n    /* \"#utility.yul\":2412:2430   */\n  dup2\n    /* \"#utility.yul\":2409:2447   */\n  eq\n    /* \"#utility.yul\":2406:2408   */\n  iszero\n  tag_62\n  jumpi\n    /* \"#utility.yul\":2462:2480   */\n  tag_63\n  tag_64\n  jump\t// in\ntag_63:\n    /* \"#utility.yul\":2406:2408   */\ntag_62:\n    /* \"#utility.yul\":2227:2496   */\n  pop\n  swap2\n  swap1\n  pop\n  jump\t// out\n    /* \"#utility.yul\":2502:2783   */\ntag_47:\n    /* \"#utility.yul\":2585:2612   */\n  tag_66\n    /* \"#utility.yul\":2607:2611   */\n  dup3\n    /* \"#utility.yul\":2585:2612   */\n  tag_54\n  jump\t// in\ntag_66:\n    /* \"#utility.yul\":2577:2583   */\n  dup2\n    /* \"#utility.yul\":2573:2613   */\n  add\n    /* \"#utility.yul\":2715:2721   */\n  dup2\n    /* \"#utility.yul\":2703:2713   */\n  dup2\n    /* \"#utility.yul\":2700:2722   */\n  lt\n    /* \"#utility.yul\":2679:2697   */\n  0xffffffffffffffff\n    /* \"#utility.yul\":2667:2677   */\n  dup3\n    /* \"#utility.yul\":2664:2698   */\n  gt\n    /* \"#utility.yul\":2661:2723   */\n  or\n    /* \"#utility.yul\":2658:2660   */\n  iszero\n  tag_67\n  jumpi\n    /* \"#utility.yul\":2726:2744   */\n  tag_68\n  tag_52\n  jump\t// in\ntag_68:\n    /* \"#utility.yul\":2658:2660   */\ntag_67:\n    /* \"#utility.yul\":2766:2776   */\n  dup1\n    /* \"#utility.yul\":2762:2764   */\n  0x40\n    /* \"#utility.yul\":2755:2777   */\n  mstore\n    /* \"#utility.yul\":2545:2783   */\n  pop\n  pop\n  pop\n  jump\t// out\n    /* \"#utility.yul\":2789:2969   */\ntag_64:\n    /* \"#utility.yul\":2837:2914   */\n  0x4e487b7100000000000000000000000000000000000000000000000000000000\n    /* \"#utility.yul\":2834:2835   */\n  0x00\n    /* \"#utility.yul\":2827:2915   */\n  mstore\n    /* \"#utility.yul\":2934:2938   */\n  0x22\n    /* \"#utility.yul\":2931:2932   */\n  0x04\n    /* \"#utility.yul\":2924:2939   */\n  mstore\n    /* \"#utility.yul\":2958:2962   */\n  0x24\n    /* \"#utility.yul\":2955:2956   */\n  0x00\n    /* \"#utility.yul\":2948:2963   */\n  revert\n    /* \"#utility.yul\":2975:3155   */\ntag_52:\n    /* \"#utility.yul\":3023:3100   */\n  0x4e487b7100000000000000000000000000000000000000000000000000000000\n    /* \"#utility.yul\":3020:3021   */\n  0x00\n    /* \"#utility.yul\":3013:3101   */\n  mstore\n    /* \"#utility.yul\":3120:3124   */\n  0x41\n    /* \"#utility.yul\":3117:3118   */\n  0x04\n    /* \"#utility.yul\":3110:3125   */\n  mstore\n    /* \"#utility.yul\":3144:3148   */\n  0x24\n    /* \"#utility.yul\":3141:3142   */\n  0x00\n    /* \"#utility.yul\":3134:3149   */\n  revert\n    /* \"#utility.yul\":3161:3263   */\ntag_54:\n  0x00\n    /* \"#utility.yul\":3253:3255   */\n  0x1f\n    /* \"#utility.yul\":3249:3256   */\n  not\n    /* \"#utility.yul\":3244:3246   */\n  0x1f\n    /* \"#utility.yul\":3237:3242   */\n  dup4\n    /* \"#utility.yul\":3233:3247   */\n  add\n    /* \"#utility.yul\":3229:3257   */\n  and\n    /* \"#utility.yul\":3219:3257   */\n  swap1\n  pop\n    /* \"#utility.yul\":3209:3263   */\n  swap2\n  swap1\n  pop\n  jump\t// out\n    /* \"contracts/RecG.sol\":251:696  contract RecG is ERC721 {... */\ntag_11:\n  dataSize(sub_0)\n  dup1\n  dataOffset(sub_0)\n  0x00\n  codecopy\n  0x00\n  return\nstop\n\nsub_0: assembly {\n        /* \"contracts/RecG.sol\":251:696  contract RecG is ERC721 {... */\n      mstore(0x40, 0x80)\n      callvalue\n      dup1\n      iszero\n      tag_1\n      jumpi\n      0x00\n      dup1\n      revert\n    tag_1:\n      pop\n      jumpi(tag_2, lt(calldatasize, 0x04))\n      shr(0xe0, calldataload(0x00))\n      dup1\n      0x70a08231\n      gt\n      tag_17\n      jumpi\n      dup1\n      0xb88d4fde\n      gt\n      tag_18\n      jumpi\n      dup1\n      0xb88d4fde\n      eq\n      tag_13\n      jumpi\n      dup1\n      0xc87b56dd\n      eq\n      tag_14\n      jumpi\n      dup1\n      0xe985e9c5\n      eq\n      tag_15\n      jumpi\n      dup1\n      0xf2fb2120\n      eq\n      tag_16\n      jumpi\n      jump(tag_2)\n    tag_18:\n      dup1\n      0x70a08231\n      eq\n      tag_10\n      jumpi\n      dup1\n      0x95d89b41\n      eq\n      tag_11\n      jumpi\n      dup1\n      0xa22cb465\n      eq\n      tag_12\n      jumpi\n      jump(tag_2)\n    tag_17:\n      dup1\n      0x095ea7b3\n      gt\n      tag_19\n      jumpi\n      dup1\n      0x095ea7b3\n      eq\n      tag_6\n      jumpi\n      dup1\n      0x23b872dd\n      eq\n      tag_7\n      jumpi\n      dup1\n      0x42842e0e\n      eq\n      tag_8\n      jumpi\n      dup1\n      0x6352211e\n      eq\n      tag_9\n      jumpi\n      jump(tag_2)\n    tag_19:\n      dup1\n      0x01ffc9a7\n      eq\n      tag_3\n      jumpi\n      dup1\n      0x06fdde03\n      eq\n      tag_4\n      jumpi\n      dup1\n      0x081812fc\n      eq\n      tag_5\n      jumpi\n    tag_2:\n      0x00\n      dup1\n      revert\n        /* \"@openzeppelin/contracts/token/ERC721/ERC721.sol\":1570:1870  function supportsInterface(bytes4 interfaceId) public view virtual override(ERC165, IERC165) returns (bool) {... */\n    tag_3:\n      tag_20\n      0x04\n      dup1\n      calldatasize\n      sub\n      dup2\n      add\n      swap1\n      tag_21\n      swap2\n      swap1\n      tag_22\n      jump\t// in\n    tag_21:\n      tag_23\n      jump\t// in\n    tag_20:\n      mload(0x40)\n      tag_24\n      swap2\n      swap1\n      tag_25\n      jump\t// in\n    tag_24:\n      mload(0x40)\n      dup1\n      swap2\n      sub\n      swap1\n      return\n        /* \"@openzeppelin/contracts/token/ERC721/ERC721.sol\":2470:2568  function name() public view virtual override returns (string memory) {... */\n    tag_4:\n      tag_26\n      tag_27\n      jump\t// in\n    tag_26:\n      mload(0x40)\n      tag_28\n      swap2\n      swap1\n      tag_29\n      jump\t// in\n    tag_28:\n      mload(0x40)\n      dup1\n      swap2\n      sub\n      swap1\n      return\n        /* \"@openzeppelin/contracts/token/ERC721/ERC721.sol\":3956:4123  function getApproved(uint256 tokenId) public view virtual override returns (address) {... */\n    tag_5:\n      tag_30\n      0x04\n      dup1\n      calldatasize\n      sub\n      dup2\n      add\n      swap1\n      tag_31\n      swap2\n      swap1\n      tag_32\n      jump\t// in\n    tag_31:\n      tag_33\n      jump\t// in\n    tag_30:\n      mload(0x40)\n      tag_34\n      swap2\n      swap1\n      tag_35\n      jump\t// in\n    tag_34:\n      mload(0x40)\n      dup1\n      swap2\n      sub\n      swap1\n      return\n        /* \"@openzeppelin/contracts/token/ERC721/ERC721.sol\":3488:3895  function approve(address to, uint256 tokenId) public virtual override {... */\n    tag_6:\n      tag_36\n      0x04\n      dup1\n      calldatasize\n      sub\n      dup2\n      add\n      swap1\n      tag_37\n      swap2\n      swap1\n      tag_38\n      jump\t// in\n    tag_37:\n      tag_39\n      jump\t// in\n    tag_36:\n      stop\n        /* \"@openzeppelin/contracts/token/ERC721/ERC721.sol\":4633:4960  function transferFrom(... */\n    tag_7:\n      tag_40\n      0x04\n      dup1\n      calldatasize\n      sub\n      dup2\n      add\n      swap1\n      tag_41\n      swap2\n      swap1\n      tag_42\n      jump\t// in\n    tag_41:\n      tag_43\n      jump\t// in\n    tag_40:\n      stop\n        /* \"@openzeppelin/contracts/token/ERC721/ERC721.sol\":5026:5205  function safeTransferFrom(... */\n    tag_8:\n      tag_44\n      0x04\n      dup1\n      calldatasize\n      sub\n      dup2\n      add\n      swap1\n      tag_45\n      swap2\n      swap1\n      tag_42\n      jump\t// in\n    tag_45:\n      tag_46\n      jump\t// in\n    tag_44:\n      stop\n        /* \"@openzeppelin/contracts/token/ERC721/ERC721.sol\":2190:2408  function ownerOf(uint256 tokenId) public view virtual override returns (address) {... */\n    tag_9:\n      tag_47\n      0x04\n      dup1\n      calldatasize\n      sub\n      dup2\n      add\n      swap1\n      tag_48\n      swap2\n      swap1\n      tag_32\n      jump\t// in\n    tag_48:\n      tag_49\n      jump\t// in\n    tag_47:\n      mload(0x40)\n      tag_50\n      swap2\n      swap1\n      tag_35\n      jump\t// in\n    tag_50:\n      mload(0x40)\n      dup1\n      swap2\n      sub\n      swap1\n      return\n        /* \"@openzeppelin/contracts/token/ERC721/ERC721.sol\":1929:2133  function balanceOf(address owner) public view virtual override returns (uint256) {... */\n    tag_10:\n      tag_51\n      0x04\n      dup1\n      calldatasize\n      sub\n      dup2\n      add\n      swap1\n      tag_52\n      swap2\n      swap1\n      tag_53\n      jump\t// in\n    tag_52:\n      tag_54\n      jump\t// in\n    tag_51:\n      mload(0x40)\n      tag_55\n      swap2\n      swap1\n      tag_56\n      jump\t// in\n    tag_55:\n      mload(0x40)\n      dup1\n      swap2\n      sub\n      swap1\n      return\n        /* \"@openzeppelin/contracts/token/ERC721/ERC721.sol\":2632:2734  function symbol() public view virtual override returns (string memory) {... */\n    tag_11:\n      tag_57\n      tag_58\n      jump\t// in\n    tag_57:\n      mload(0x40)\n      tag_59\n      swap2\n      swap1\n      tag_29\n      jump\t// in\n    tag_59:\n      mload(0x40)\n      dup1\n      swap2\n      sub\n      swap1\n      return\n        /* \"@openzeppelin/contracts/token/ERC721/ERC721.sol\":4190:4343  function setApprovalForAll(address operator, bool approved) public virtual override {... */\n    tag_12:\n      tag_60\n      0x04\n      dup1\n      calldatasize\n      sub\n      dup2\n      add\n      swap1\n      tag_61\n      swap2\n      swap1\n      tag_62\n      jump\t// in\n    tag_61:\n      tag_63\n      jump\t// in\n    tag_60:\n      stop\n        /* \"@openzeppelin/contracts/token/ERC721/ERC721.sol\":5271:5586  function safeTransferFrom(... */\n    tag_13:\n      tag_64\n      0x04\n      dup1\n      calldatasize\n      sub\n      dup2\n      add\n      swap1\n      tag_65\n      swap2\n      swap1\n      tag_66\n      jump\t// in\n    tag_65:\n      tag_67\n      jump\t// in\n    tag_64:\n      stop\n        /* \"@openzeppelin/contracts/token/ERC721/ERC721.sol\":2800:3076  function tokenURI(uint256 tokenId) public view virtual override returns (string memory) {... */\n    tag_14:\n      tag_68\n      0x04\n      dup1\n      calldatasize\n      sub\n      dup2\n      add\n      swap1\n      tag_69\n      swap2\n      swap1\n      tag_32\n      jump\t// in\n    tag_69:\n      tag_70\n      jump\t// in\n    tag_68:\n      mload(0x40)\n      tag_71\n      swap2\n      swap1\n      tag_29\n      jump\t// in\n    tag_71:\n      mload(0x40)\n      dup1\n      swap2\n      sub\n      swap1\n      return\n        /* \"@openzeppelin/contracts/token/ERC721/ERC721.sol\":4409:4571  function isApprovedForAll(address owner, address operator) public view virtual override returns (bool) {... */\n    tag_15:\n      tag_72\n      0x04\n      dup1\n      calldatasize\n      sub\n      dup2\n      add\n      swap1\n      tag_73\n      swap2\n      swap1\n      tag_74\n      jump\t// in\n    tag_73:\n      tag_75\n      jump\t// in\n    tag_72:\n      mload(0x40)\n      tag_76\n      swap2\n      swap1\n      tag_25\n      jump\t// in\n    tag_76:\n      mload(0x40)\n      dup1\n      swap2\n      sub\n      swap1\n      return\n        /* \"contracts/RecG.sol\":466:693  function awardItem(address player)... */\n    tag_16:\n      tag_77\n      0x04\n      dup1\n      calldatasize\n      sub\n      dup2\n      add\n      swap1\n      tag_78\n      swap2\n      swap1\n      tag_53\n      jump\t// in\n    tag_78:\n      tag_79\n      jump\t// in\n    tag_77:\n      mload(0x40)\n      tag_80\n      swap2\n      swap1\n      tag_56\n      jump\t// in\n    tag_80:\n      mload(0x40)\n      dup1\n      swap2\n      sub\n      swap1\n      return\n        /* \"@openzeppelin/contracts/token/ERC721/ERC721.sol\":1570:1870  function supportsInterface(bytes4 interfaceId) public view virtual override(ERC165, IERC165) returns (bool) {... */\n    tag_23:\n        /* \"@openzeppelin/contracts/token/ERC721/ERC721.sol\":1672:1676  bool */\n      0x00\n        /* \"@openzeppelin/contracts/token/ERC721/ERC721.sol\":1722:1747  type(IERC721).interfaceId */\n      0x80ac58cd00000000000000000000000000000000000000000000000000000000\n        /* \"@openzeppelin/contracts/token/ERC721/ERC721.sol\":1707:1747  interfaceId == type(IERC721).interfaceId */\n      not(0xffffffffffffffffffffffffffffffffffffffffffffffffffffffff)\n      and\n        /* \"@openzeppelin/contracts/token/ERC721/ERC721.sol\":1707:1718  interfaceId */\n      dup3\n        /* \"@openzeppelin/contracts/token/ERC721/ERC721.sol\":1707:1747  interfaceId == type(IERC721).interfaceId */\n      not(0xffffffffffffffffffffffffffffffffffffffffffffffffffffffff)\n      and\n      eq\n        /* \"@openzeppelin/contracts/token/ERC721/ERC721.sol\":1707:1811  interfaceId == type(IERC721).interfaceId ||... */\n      dup1\n      tag_82\n      jumpi\n      pop\n        /* \"@openzeppelin/contracts/token/ERC721/ERC721.sol\":1778:1811  type(IERC721Metadata).interfaceId */\n      0x5b5e139f00000000000000000000000000000000000000000000000000000000\n        /* \"@openzeppelin/contracts/token/ERC721/ERC721.sol\":1763:1811  interfaceId == type(IERC721Metadata).interfaceId */\n      not(0xffffffffffffffffffffffffffffffffffffffffffffffffffffffff)\n      and\n        /* \"@openzeppelin/contracts/token/ERC721/ERC721.sol\":1763:1774  interfaceId */\n      dup3\n        /* \"@openzeppelin/contracts/token/ERC721/ERC721.sol\":1763:1811  interfaceId == type(IERC721Metadata).interfaceId */\n      not(0xffffffffffffffffffffffffffffffffffffffffffffffffffffffff)\n      and\n      eq\n        /* \"@openzeppelin/contracts/token/ERC721/ERC721.sol\":1707:1811  interfaceId == type(IERC721).interfaceId ||... */\n    tag_82:\n        /* \"@openzeppelin/contracts/token/ERC721/ERC721.sol\":1707:1863  interfaceId == type(IERC721).interfaceId ||... */\n      dup1\n      tag_83\n      jumpi\n      pop\n        /* \"@openzeppelin/contracts/token/ERC721/ERC721.sol\":1827:1863  super.supportsInterface(interfaceId) */\n      tag_84\n        /* \"@openzeppelin/contracts/token/ERC721/ERC721.sol\":1851:1862  interfaceId */\n      dup3\n        /* \"@openzeppelin/contracts/token/ERC721/ERC721.sol\":1827:1850  super.supportsInterface */\n      tag_85\n        /* \"@openzeppelin/contracts/token/ERC721/ERC721.sol\":1827:1863  super.supportsInterface(interfaceId) */\n      jump\t// in\n    tag_84:\n        /* \"@openzeppelin/contracts/token/ERC721/ERC721.sol\":1707:1863  interfaceId == type(IERC721).interfaceId ||... */\n    tag_83:\n        /* \"@openzeppelin/contracts/token/ERC721/ERC721.sol\":1688:1863  return... */\n      swap1\n      pop\n        /* \"@openzeppelin/contracts/token/ERC721/ERC721.sol\":1570:1870  function supportsInterface(bytes4 interfaceId) public view virtual override(ERC165, IERC165) returns (bool) {... */\n      swap2\n      swap1\n      pop\n      jump\t// out\n        /* \"@openzeppelin/contracts/token/ERC721/ERC721.sol\":2470:2568  function name() public view virtual override returns (string memory) {... */\n    tag_27:\n        /* \"@openzeppelin/contracts/token/ERC721/ERC721.sol\":2524:2537  string memory */\n      0x60\n        /* \"@openzeppelin/contracts/token/ERC721/ERC721.sol\":2556:2561  _name */\n      0x00\n        /* \"@openzeppelin/contracts/token/ERC721/ERC721.sol\":2549:2561  return _name */\n      dup1\n      sload\n      tag_87\n      swap1\n      tag_88\n      jump\t// in\n    tag_87:\n      dup1\n      0x1f\n      add\n      0x20\n      dup1\n      swap2\n      div\n      mul\n      0x20\n      add\n      mload(0x40)\n      swap1\n      dup2\n      add\n      0x40\n      mstore\n      dup1\n      swap3\n      swap2\n      swap1\n      dup2\n      dup2\n      mstore\n      0x20\n      add\n      dup3\n      dup1\n      sload\n      tag_89\n      swap1\n      tag_88\n      jump\t// in\n    tag_89:\n      dup1\n      iszero\n      tag_90\n      jumpi\n      dup1\n      0x1f\n      lt\n      tag_91\n      jumpi\n      0x0100\n      dup1\n      dup4\n      sload\n      div\n      mul\n      dup4\n      mstore\n      swap2\n      0x20\n      add\n      swap2\n      jump(tag_90)\n    tag_91:\n      dup3\n      add\n      swap2\n      swap1\n      0x00\n      mstore\n      keccak256(0x00, 0x20)\n      swap1\n    tag_92:\n      dup2\n      sload\n      dup2\n      mstore\n      swap1\n      0x01\n      add\n      swap1\n      0x20\n      add\n      dup1\n      dup4\n      gt\n      tag_92\n      jumpi\n      dup3\n      swap1\n      sub\n      0x1f\n      and\n      dup3\n      add\n      swap2\n    tag_90:\n      pop\n      pop\n      pop\n      pop\n      pop\n      swap1\n      pop\n        /* \"@openzeppelin/contracts/token/ERC721/ERC721.sol\":2470:2568  function name() public view virtual override returns (string memory) {... */\n      swap1\n      jump\t// out\n        /* \"@openzeppelin/contracts/token/ERC721/ERC721.sol\":3956:4123  function getApproved(uint256 tokenId) public view virtual override returns (address) {... */\n    tag_33:\n        /* \"@openzeppelin/contracts/token/ERC721/ERC721.sol\":4032:4039  address */\n      0x00\n        /* \"@openzeppelin/contracts/token/ERC721/ERC721.sol\":4051:4074  _requireMinted(tokenId) */\n      tag_94\n        /* \"@openzeppelin/contracts/token/ERC721/ERC721.sol\":4066:4073  tokenId */\n      dup3\n        /* \"@openzeppelin/contracts/token/ERC721/ERC721.sol\":4051:4065  _requireMinted */\n      tag_95\n        /* \"@openzeppelin/contracts/token/ERC721/ERC721.sol\":4051:4074  _requireMinted(tokenId) */\n      jump\t// in\n    tag_94:\n        /* \"@openzeppelin/contracts/token/ERC721/ERC721.sol\":4092:4107  _tokenApprovals */\n      0x04\n        /* \"@openzeppelin/contracts/token/ERC721/ERC721.sol\":4092:4116  _tokenApprovals[tokenId] */\n      0x00\n        /* \"@openzeppelin/contracts/token/ERC721/ERC721.sol\":4108:4115  tokenId */\n      dup4\n        /* \"@openzeppelin/contracts/token/ERC721/ERC721.sol\":4092:4116  _tokenApprovals[tokenId] */\n      dup2\n      mstore\n      0x20\n      add\n      swap1\n      dup2\n      mstore\n      0x20\n      add\n      0x00\n      keccak256\n      0x00\n      swap1\n      sload\n      swap1\n      0x0100\n      exp\n      swap1\n      div\n      0xffffffffffffffffffffffffffffffffffffffff\n      and\n        /* \"@openzeppelin/contracts/token/ERC721/ERC721.sol\":4085:4116  return _tokenApprovals[tokenId] */\n      swap1\n      pop\n        /* \"@openzeppelin/contracts/token/ERC721/ERC721.sol\":3956:4123  function getApproved(uint256 tokenId) public view virtual override returns (address) {... */\n      swap2\n      swap1\n      pop\n      jump\t// out\n        /* \"@openzeppelin/contracts/token/ERC721/ERC721.sol\":3488:3895  function approve(address to, uint256 tokenId) public virtual override {... */\n    tag_39:\n        /* \"@openzeppelin/contracts/token/ERC721/ERC721.sol\":3568:3581  address owner */\n      0x00\n        /* \"@openzeppelin/contracts/token/ERC721/ERC721.sol\":3584:3607  ERC721.ownerOf(tokenId) */\n      tag_97\n        /* \"@openzeppelin/contracts/token/ERC721/ERC721.sol\":3599:3606  tokenId */\n      dup3\n        /* \"@openzeppelin/contracts/token/ERC721/ERC721.sol\":3584:3598  ERC721.ownerOf */\n      tag_49\n        /* \"@openzeppelin/contracts/token/ERC721/ERC721.sol\":3584:3607  ERC721.ownerOf(tokenId) */\n      jump\t// in\n    tag_97:\n        /* \"@openzeppelin/contracts/token/ERC721/ERC721.sol\":3568:3607  address owner = ERC721.ownerOf(tokenId) */\n      swap1\n      pop\n        /* \"@openzeppelin/contracts/token/ERC721/ERC721.sol\":3631:3636  owner */\n      dup1\n        /* \"@openzeppelin/contracts/token/ERC721/ERC721.sol\":3625:3636  to != owner */\n      0xffffffffffffffffffffffffffffffffffffffff\n      and\n        /* \"@openzeppelin/contracts/token/ERC721/ERC721.sol\":3625:3627  to */\n      dup4\n        /* \"@openzeppelin/contracts/token/ERC721/ERC721.sol\":3625:3636  to != owner */\n      0xffffffffffffffffffffffffffffffffffffffff\n      and\n      eq\n      iszero\n        /* \"@openzeppelin/contracts/token/ERC721/ERC721.sol\":3617:3674  require(to != owner, \"ERC721: approval to current owner\") */\n      tag_98\n      jumpi\n      mload(0x40)\n      0x08c379a000000000000000000000000000000000000000000000000000000000\n      dup2\n      mstore\n      0x04\n      add\n      tag_99\n      swap1\n      tag_100\n      jump\t// in\n    tag_99:\n      mload(0x40)\n      dup1\n      swap2\n      sub\n      swap1\n      revert\n    tag_98:\n        /* \"@openzeppelin/contracts/token/ERC721/ERC721.sol\":3722:3727  owner */\n      dup1\n        /* \"@openzeppelin/contracts/token/ERC721/ERC721.sol\":3706:3727  _msgSender() == owner */\n      0xffffffffffffffffffffffffffffffffffffffff\n      and\n        /* \"@openzeppelin/contracts/token/ERC721/ERC721.sol\":3706:3718  _msgSender() */\n      tag_101\n        /* \"@openzeppelin/contracts/token/ERC721/ERC721.sol\":3706:3716  _msgSender */\n      tag_102\n        /* \"@openzeppelin/contracts/token/ERC721/ERC721.sol\":3706:3718  _msgSender() */\n      jump\t// in\n    tag_101:\n        /* \"@openzeppelin/contracts/token/ERC721/ERC721.sol\":3706:3727  _msgSender() == owner */\n      0xffffffffffffffffffffffffffffffffffffffff\n      and\n      eq\n        /* \"@openzeppelin/contracts/token/ERC721/ERC721.sol\":3706:3768  _msgSender() == owner || isApprovedForAll(owner, _msgSender()) */\n      dup1\n      tag_103\n      jumpi\n      pop\n        /* \"@openzeppelin/contracts/token/ERC721/ERC721.sol\":3731:3768  isApprovedForAll(owner, _msgSender()) */\n      tag_104\n        /* \"@openzeppelin/contracts/token/ERC721/ERC721.sol\":3748:3753  owner */\n      dup2\n        /* \"@openzeppelin/contracts/token/ERC721/ERC721.sol\":3755:3767  _msgSender() */\n      tag_105\n        /* \"@openzeppelin/contracts/token/ERC721/ERC721.sol\":3755:3765  _msgSender */\n      tag_102\n        /* \"@openzeppelin/contracts/token/ERC721/ERC721.sol\":3755:3767  _msgSender() */\n      jump\t// in\n    tag_105:\n        /* \"@openzeppelin/contracts/token/ERC721/ERC721.sol\":3731:3747  isApprovedForAll */\n      tag_75\n        /* \"@openzeppelin/contracts/token/ERC721/ERC721.sol\":3731:3768  isApprovedForAll(owner, _msgSender()) */\n      jump\t// in\n    tag_104:\n        /* \"@openzeppelin/contracts/token/ERC721/ERC721.sol\":3706:3768  _msgSender() == owner || isApprovedForAll(owner, _msgSender()) */\n    tag_103:\n        /* \"@openzeppelin/contracts/token/ERC721/ERC721.sol\":3685:3856  require(... */\n      tag_106\n      jumpi\n      mload(0x40)\n      0x08c379a000000000000000000000000000000000000000000000000000000000\n      dup2\n      mstore\n      0x04\n      add\n      tag_107\n      swap1\n      tag_108\n      jump\t// in\n    tag_107:\n      mload(0x40)\n      dup1\n      swap2\n      sub\n      swap1\n      revert\n    tag_106:\n        /* \"@openzeppelin/contracts/token/ERC721/ERC721.sol\":3867:3888  _approve(to, tokenId) */\n      tag_109\n        /* \"@openzeppelin/contracts/token/ERC721/ERC721.sol\":3876:3878  to */\n      dup4\n        /* \"@openzeppelin/contracts/token/ERC721/ERC721.sol\":3880:3887  tokenId */\n      dup4\n        /* \"@openzeppelin/contracts/token/ERC721/ERC721.sol\":3867:3875  _approve */\n      tag_110\n        /* \"@openzeppelin/contracts/token/ERC721/ERC721.sol\":3867:3888  _approve(to, tokenId) */\n      jump\t// in\n    tag_109:\n        /* \"@openzeppelin/contracts/token/ERC721/ERC721.sol\":3488:3895  function approve(address to, uint256 tokenId) public virtual override {... */\n      pop\n      pop\n      pop\n      jump\t// out\n        /* \"@openzeppelin/contracts/token/ERC721/ERC721.sol\":4633:4960  function transferFrom(... */\n    tag_43:\n        /* \"@openzeppelin/contracts/token/ERC721/ERC721.sol\":4822:4863  _isApprovedOrOwner(_msgSender(), tokenId) */\n      tag_112\n        /* \"@openzeppelin/contracts/token/ERC721/ERC721.sol\":4841:4853  _msgSender() */\n      tag_113\n        /* \"@openzeppelin/contracts/token/ERC721/ERC721.sol\":4841:4851  _msgSender */\n      tag_102\n        /* \"@openzeppelin/contracts/token/ERC721/ERC721.sol\":4841:4853  _msgSender() */\n      jump\t// in\n    tag_113:\n        /* \"@openzeppelin/contracts/token/ERC721/ERC721.sol\":4855:4862  tokenId */\n      dup3\n        /* \"@openzeppelin/contracts/token/ERC721/ERC721.sol\":4822:4840  _isApprovedOrOwner */\n      tag_114\n        /* \"@openzeppelin/contracts/token/ERC721/ERC721.sol\":4822:4863  _isApprovedOrOwner(_msgSender(), tokenId) */\n      jump\t// in\n    tag_112:\n        /* \"@openzeppelin/contracts/token/ERC721/ERC721.sol\":4814:4914  require(_isApprovedOrOwner(_msgSender(), tokenId), \"ERC721: caller is not token owner nor approved\") */\n      tag_115\n      jumpi\n      mload(0x40)\n      0x08c379a000000000000000000000000000000000000000000000000000000000\n      dup2\n      mstore\n      0x04\n      add\n      tag_116\n      swap1\n      tag_117\n      jump\t// in\n    tag_116:\n      mload(0x40)\n      dup1\n      swap2\n      sub\n      swap1\n      revert\n    tag_115:\n        /* \"@openzeppelin/contracts/token/ERC721/ERC721.sol\":4925:4953  _transfer(from, to, tokenId) */\n      tag_118\n        /* \"@openzeppelin/contracts/token/ERC721/ERC721.sol\":4935:4939  from */\n      dup4\n        /* \"@openzeppelin/contracts/token/ERC721/ERC721.sol\":4941:4943  to */\n      dup4\n        /* \"@openzeppelin/contracts/token/ERC721/ERC721.sol\":4945:4952  tokenId */\n      dup4\n        /* \"@openzeppelin/contracts/token/ERC721/ERC721.sol\":4925:4934  _transfer */\n      tag_119\n        /* \"@openzeppelin/contracts/token/ERC721/ERC721.sol\":4925:4953  _transfer(from, to, tokenId) */\n      jump\t// in\n    tag_118:\n        /* \"@openzeppelin/contracts/token/ERC721/ERC721.sol\":4633:4960  function transferFrom(... */\n      pop\n      pop\n      pop\n      jump\t// out\n        /* \"@openzeppelin/contracts/token/ERC721/ERC721.sol\":5026:5205  function safeTransferFrom(... */\n    tag_46:\n        /* \"@openzeppelin/contracts/token/ERC721/ERC721.sol\":5159:5198  safeTransferFrom(from, to, tokenId, \"\") */\n      tag_121\n        /* \"@openzeppelin/contracts/token/ERC721/ERC721.sol\":5176:5180  from */\n      dup4\n        /* \"@openzeppelin/contracts/token/ERC721/ERC721.sol\":5182:5184  to */\n      dup4\n        /* \"@openzeppelin/contracts/token/ERC721/ERC721.sol\":5186:5193  tokenId */\n      dup4\n        /* \"@openzeppelin/contracts/token/ERC721/ERC721.sol\":5159:5198  safeTransferFrom(from, to, tokenId, \"\") */\n      mload(0x40)\n      dup1\n      0x20\n      add\n      0x40\n      mstore\n      dup1\n      0x00\n      dup2\n      mstore\n      pop\n        /* \"@openzeppelin/contracts/token/ERC721/ERC721.sol\":5159:5175  safeTransferFrom */\n      tag_67\n        /* \"@openzeppelin/contracts/token/ERC721/ERC721.sol\":5159:5198  safeTransferFrom(from, to, tokenId, \"\") */\n      jump\t// in\n    tag_121:\n        /* \"@openzeppelin/contracts/token/ERC721/ERC721.sol\":5026:5205  function safeTransferFrom(... */\n      pop\n      pop\n      pop\n      jump\t// out\n        /* \"@openzeppelin/contracts/token/ERC721/ERC721.sol\":2190:2408  function ownerOf(uint256 tokenId) public view virtual override returns (address) {... */\n    tag_49:\n        /* \"@openzeppelin/contracts/token/ERC721/ERC721.sol\":2262:2269  address */\n      0x00\n        /* \"@openzeppelin/contracts/token/ERC721/ERC721.sol\":2281:2294  address owner */\n      dup1\n        /* \"@openzeppelin/contracts/token/ERC721/ERC721.sol\":2297:2304  _owners */\n      0x02\n        /* \"@openzeppelin/contracts/token/ERC721/ERC721.sol\":2297:2313  _owners[tokenId] */\n      0x00\n        /* \"@openzeppelin/contracts/token/ERC721/ERC721.sol\":2305:2312  tokenId */\n      dup5\n        /* \"@openzeppelin/contracts/token/ERC721/ERC721.sol\":2297:2313  _owners[tokenId] */\n      dup2\n      mstore\n      0x20\n      add\n      swap1\n      dup2\n      mstore\n      0x20\n      add\n      0x00\n      keccak256\n      0x00\n      swap1\n      sload\n      swap1\n      0x0100\n      exp\n      swap1\n      div\n      0xffffffffffffffffffffffffffffffffffffffff\n      and\n        /* \"@openzeppelin/contracts/token/ERC721/ERC721.sol\":2281:2313  address owner = _owners[tokenId] */\n      swap1\n      pop\n        /* \"@openzeppelin/contracts/token/ERC721/ERC721.sol\":2348:2349  0 */\n      0x00\n        /* \"@openzeppelin/contracts/token/ERC721/ERC721.sol\":2331:2350  owner != address(0) */\n      0xffffffffffffffffffffffffffffffffffffffff\n      and\n        /* \"@openzeppelin/contracts/token/ERC721/ERC721.sol\":2331:2336  owner */\n      dup2\n        /* \"@openzeppelin/contracts/token/ERC721/ERC721.sol\":2331:2350  owner != address(0) */\n      0xffffffffffffffffffffffffffffffffffffffff\n      and\n      eq\n      iszero\n        /* \"@openzeppelin/contracts/token/ERC721/ERC721.sol\":2323:2379  require(owner != address(0), \"ERC721: invalid token ID\") */\n      tag_123\n      jumpi\n      mload(0x40)\n      0x08c379a000000000000000000000000000000000000000000000000000000000\n      dup2\n      mstore\n      0x04\n      add\n      tag_124\n      swap1\n      tag_125\n      jump\t// in\n    tag_124:\n      mload(0x40)\n      dup1\n      swap2\n      sub\n      swap1\n      revert\n    tag_123:\n        /* \"@openzeppelin/contracts/token/ERC721/ERC721.sol\":2396:2401  owner */\n      dup1\n        /* \"@openzeppelin/contracts/token/ERC721/ERC721.sol\":2389:2401  return owner */\n      swap2\n      pop\n      pop\n        /* \"@openzeppelin/contracts/token/ERC721/ERC721.sol\":2190:2408  function ownerOf(uint256 tokenId) public view virtual override returns (address) {... */\n      swap2\n      swap1\n      pop\n      jump\t// out\n        /* \"@openzeppelin/contracts/token/ERC721/ERC721.sol\":1929:2133  function balanceOf(address owner) public view virtual override returns (uint256) {... */\n    tag_54:\n        /* \"@openzeppelin/contracts/token/ERC721/ERC721.sol\":2001:2008  uint256 */\n      0x00\n        /* \"@openzeppelin/contracts/token/ERC721/ERC721.sol\":2045:2046  0 */\n      dup1\n        /* \"@openzeppelin/contracts/token/ERC721/ERC721.sol\":2028:2047  owner != address(0) */\n      0xffffffffffffffffffffffffffffffffffffffff\n      and\n        /* \"@openzeppelin/contracts/token/ERC721/ERC721.sol\":2028:2033  owner */\n      dup3\n        /* \"@openzeppelin/contracts/token/ERC721/ERC721.sol\":2028:2047  owner != address(0) */\n      0xffffffffffffffffffffffffffffffffffffffff\n      and\n      eq\n      iszero\n        /* \"@openzeppelin/contracts/token/ERC721/ERC721.sol\":2020:2093  require(owner != address(0), \"ERC721: address zero is not a valid owner\") */\n      tag_127\n      jumpi\n      mload(0x40)\n      0x08c379a000000000000000000000000000000000000000000000000000000000\n      dup2\n      mstore\n      0x04\n      add\n      tag_128\n      swap1\n      tag_129\n      jump\t// in\n    tag_128:\n      mload(0x40)\n      dup1\n      swap2\n      sub\n      swap1\n      revert\n    tag_127:\n        /* \"@openzeppelin/contracts/token/ERC721/ERC721.sol\":2110:2119  _balances */\n      0x03\n        /* \"@openzeppelin/contracts/token/ERC721/ERC721.sol\":2110:2126  _balances[owner] */\n      0x00\n        /* \"@openzeppelin/contracts/token/ERC721/ERC721.sol\":2120:2125  owner */\n      dup4\n        /* \"@openzeppelin/contracts/token/ERC721/ERC721.sol\":2110:2126  _balances[owner] */\n      0xffffffffffffffffffffffffffffffffffffffff\n      and\n      0xffffffffffffffffffffffffffffffffffffffff\n      and\n      dup2\n      mstore\n      0x20\n      add\n      swap1\n      dup2\n      mstore\n      0x20\n      add\n      0x00\n      keccak256\n      sload\n        /* \"@openzeppelin/contracts/token/ERC721/ERC721.sol\":2103:2126  return _balances[owner] */\n      swap1\n      pop\n        /* \"@openzeppelin/contracts/token/ERC721/ERC721.sol\":1929:2133  function balanceOf(address owner) public view virtual override returns (uint256) {... */\n      swap2\n      swap1\n      pop\n      jump\t// out\n        /* \"@openzeppelin/contracts/token/ERC721/ERC721.sol\":2632:2734  function symbol() public view virtual override returns (string memory) {... */\n    tag_58:\n        /* \"@openzeppelin/contracts/token/ERC721/ERC721.sol\":2688:2701  string memory */\n      0x60\n        /* \"@openzeppelin/contracts/token/ERC721/ERC721.sol\":2720:2727  _symbol */\n      0x01\n        /* \"@openzeppelin/contracts/token/ERC721/ERC721.sol\":2713:2727  return _symbol */\n      dup1\n      sload\n      tag_131\n      swap1\n      tag_88\n      jump\t// in\n    tag_131:\n      dup1\n      0x1f\n      add\n      0x20\n      dup1\n      swap2\n      div\n      mul\n      0x20\n      add\n      mload(0x40)\n      swap1\n      dup2\n      add\n      0x40\n      mstore\n      dup1\n      swap3\n      swap2\n      swap1\n      dup2\n      dup2\n      mstore\n      0x20\n      add\n      dup3\n      dup1\n      sload\n      tag_132\n      swap1\n      tag_88\n      jump\t// in\n    tag_132:\n      dup1\n      iszero\n      tag_133\n      jumpi\n      dup1\n      0x1f\n      lt\n      tag_134\n      jumpi\n      0x0100\n      dup1\n      dup4\n      sload\n      div\n      mul\n      dup4\n      mstore\n      swap2\n      0x20\n      add\n      swap2\n      jump(tag_133)\n    tag_134:\n      dup3\n      add\n      swap2\n      swap1\n      0x00\n      mstore\n      keccak256(0x00, 0x20)\n      swap1\n    tag_135:\n      dup2\n      sload\n      dup2\n      mstore\n      swap1\n      0x01\n      add\n      swap1\n      0x20\n      add\n      dup1\n      dup4\n      gt\n      tag_135\n      jumpi\n      dup3\n      swap1\n      sub\n      0x1f\n      and\n      dup3\n      add\n      swap2\n    tag_133:\n      pop\n      pop\n      pop\n      pop\n      pop\n      swap1\n      pop\n        /* \"@openzeppelin/contracts/token/ERC721/ERC721.sol\":2632:2734  function symbol() public view virtual override returns (string memory) {... */\n      swap1\n      jump\t// out\n        /* \"@openzeppelin/contracts/token/ERC721/ERC721.sol\":4190:4343  function setApprovalForAll(address operator, bool approved) public virtual override {... */\n    tag_63:\n        /* \"@openzeppelin/contracts/token/ERC721/ERC721.sol\":4284:4336  _setApprovalForAll(_msgSender(), operator, approved) */\n      tag_137\n        /* \"@openzeppelin/contracts/token/ERC721/ERC721.sol\":4303:4315  _msgSender() */\n      tag_138\n        /* \"@openzeppelin/contracts/token/ERC721/ERC721.sol\":4303:4313  _msgSender */\n      tag_102\n        /* \"@openzeppelin/contracts/token/ERC721/ERC721.sol\":4303:4315  _msgSender() */\n      jump\t// in\n    tag_138:\n        /* \"@openzeppelin/contracts/token/ERC721/ERC721.sol\":4317:4325  operator */\n      dup4\n        /* \"@openzeppelin/contracts/token/ERC721/ERC721.sol\":4327:4335  approved */\n      dup4\n        /* \"@openzeppelin/contracts/token/ERC721/ERC721.sol\":4284:4302  _setApprovalForAll */\n      tag_139\n        /* \"@openzeppelin/contracts/token/ERC721/ERC721.sol\":4284:4336  _setApprovalForAll(_msgSender(), operator, approved) */\n      jump\t// in\n    tag_137:\n        /* \"@openzeppelin/contracts/token/ERC721/ERC721.sol\":4190:4343  function setApprovalForAll(address operator, bool approved) public virtual override {... */\n      pop\n      pop\n      jump\t// out\n        /* \"@openzeppelin/contracts/token/ERC721/ERC721.sol\":5271:5586  function safeTransferFrom(... */\n    tag_67:\n        /* \"@openzeppelin/contracts/token/ERC721/ERC721.sol\":5439:5480  _isApprovedOrOwner(_msgSender(), tokenId) */\n      tag_141\n        /* \"@openzeppelin/contracts/token/ERC721/ERC721.sol\":5458:5470  _msgSender() */\n      tag_142\n        /* \"@openzeppelin/contracts/token/ERC721/ERC721.sol\":5458:5468  _msgSender */\n      tag_102\n        /* \"@openzeppelin/contracts/token/ERC721/ERC721.sol\":5458:5470  _msgSender() */\n      jump\t// in\n    tag_142:\n        /* \"@openzeppelin/contracts/token/ERC721/ERC721.sol\":5472:5479  tokenId */\n      dup4\n        /* \"@openzeppelin/contracts/token/ERC721/ERC721.sol\":5439:5457  _isApprovedOrOwner */\n      tag_114\n        /* \"@openzeppelin/contracts/token/ERC721/ERC721.sol\":5439:5480  _isApprovedOrOwner(_msgSender(), tokenId) */\n      jump\t// in\n    tag_141:\n        /* \"@openzeppelin/contracts/token/ERC721/ERC721.sol\":5431:5531  require(_isApprovedOrOwner(_msgSender(), tokenId), \"ERC721: caller is not token owner nor approved\") */\n      tag_143\n      jumpi\n      mload(0x40)\n      0x08c379a000000000000000000000000000000000000000000000000000000000\n      dup2\n      mstore\n      0x04\n      add\n      tag_144\n      swap1\n      tag_117\n      jump\t// in\n    tag_144:\n      mload(0x40)\n      dup1\n      swap2\n      sub\n      swap1\n      revert\n    tag_143:\n        /* \"@openzeppelin/contracts/token/ERC721/ERC721.sol\":5541:5579  _safeTransfer(from, to, tokenId, data) */\n      tag_145\n        /* \"@openzeppelin/contracts/token/ERC721/ERC721.sol\":5555:5559  from */\n      dup5\n        /* \"@openzeppelin/contracts/token/ERC721/ERC721.sol\":5561:5563  to */\n      dup5\n        /* \"@openzeppelin/contracts/token/ERC721/ERC721.sol\":5565:5572  tokenId */\n      dup5\n        /* \"@openzeppelin/contracts/token/ERC721/ERC721.sol\":5574:5578  data */\n      dup5\n        /* \"@openzeppelin/contracts/token/ERC721/ERC721.sol\":5541:5554  _safeTransfer */\n      tag_146\n        /* \"@openzeppelin/contracts/token/ERC721/ERC721.sol\":5541:5579  _safeTransfer(from, to, tokenId, data) */\n      jump\t// in\n    tag_145:\n        /* \"@openzeppelin/contracts/token/ERC721/ERC721.sol\":5271:5586  function safeTransferFrom(... */\n      pop\n      pop\n      pop\n      pop\n      jump\t// out\n        /* \"@openzeppelin/contracts/token/ERC721/ERC721.sol\":2800:3076  function tokenURI(uint256 tokenId) public view virtual override returns (string memory) {... */\n    tag_70:\n        /* \"@openzeppelin/contracts/token/ERC721/ERC721.sol\":2873:2886  string memory */\n      0x60\n        /* \"@openzeppelin/contracts/token/ERC721/ERC721.sol\":2898:2921  _requireMinted(tokenId) */\n      tag_148\n        /* \"@openzeppelin/contracts/token/ERC721/ERC721.sol\":2913:2920  tokenId */\n      dup3\n        /* \"@openzeppelin/contracts/token/ERC721/ERC721.sol\":2898:2912  _requireMinted */\n      tag_95\n        /* \"@openzeppelin/contracts/token/ERC721/ERC721.sol\":2898:2921  _requireMinted(tokenId) */\n      jump\t// in\n    tag_148:\n        /* \"@openzeppelin/contracts/token/ERC721/ERC721.sol\":2932:2953  string memory baseURI */\n      0x00\n        /* \"@openzeppelin/contracts/token/ERC721/ERC721.sol\":2956:2966  _baseURI() */\n      tag_149\n        /* \"@openzeppelin/contracts/token/ERC721/ERC721.sol\":2956:2964  _baseURI */\n      tag_150\n        /* \"@openzeppelin/contracts/token/ERC721/ERC721.sol\":2956:2966  _baseURI() */\n      jump\t// in\n    tag_149:\n        /* \"@openzeppelin/contracts/token/ERC721/ERC721.sol\":2932:2966  string memory baseURI = _baseURI() */\n      swap1\n      pop\n        /* \"@openzeppelin/contracts/token/ERC721/ERC721.sol\":3007:3008  0 */\n      0x00\n        /* \"@openzeppelin/contracts/token/ERC721/ERC721.sol\":2989:2996  baseURI */\n      dup2\n        /* \"@openzeppelin/contracts/token/ERC721/ERC721.sol\":2983:3004  bytes(baseURI).length */\n      mload\n        /* \"@openzeppelin/contracts/token/ERC721/ERC721.sol\":2983:3008  bytes(baseURI).length > 0 */\n      gt\n        /* \"@openzeppelin/contracts/token/ERC721/ERC721.sol\":2983:3069  bytes(baseURI).length > 0 ? string(abi.encodePacked(baseURI, tokenId.toString())) : \"\" */\n      tag_151\n      jumpi\n      mload(0x40)\n      dup1\n      0x20\n      add\n      0x40\n      mstore\n      dup1\n      0x00\n      dup2\n      mstore\n      pop\n      jump(tag_152)\n    tag_151:\n        /* \"@openzeppelin/contracts/token/ERC721/ERC721.sol\":3035:3042  baseURI */\n      dup1\n        /* \"@openzeppelin/contracts/token/ERC721/ERC721.sol\":3044:3062  tokenId.toString() */\n      tag_153\n        /* \"@openzeppelin/contracts/token/ERC721/ERC721.sol\":3044:3051  tokenId */\n      dup5\n        /* \"@openzeppelin/contracts/token/ERC721/ERC721.sol\":3044:3060  tokenId.toString */\n      tag_154\n        /* \"@openzeppelin/contracts/token/ERC721/ERC721.sol\":3044:3062  tokenId.toString() */\n      jump\t// in\n    tag_153:\n        /* \"@openzeppelin/contracts/token/ERC721/ERC721.sol\":3018:3063  abi.encodePacked(baseURI, tokenId.toString()) */\n      add(0x20, mload(0x40))\n      tag_155\n      swap3\n      swap2\n      swap1\n      tag_156\n      jump\t// in\n    tag_155:\n      mload(0x40)\n      0x20\n      dup2\n      dup4\n      sub\n      sub\n      dup2\n      mstore\n      swap1\n      0x40\n      mstore\n        /* \"@openzeppelin/contracts/token/ERC721/ERC721.sol\":2983:3069  bytes(baseURI).length > 0 ? string(abi.encodePacked(baseURI, tokenId.toString())) : \"\" */\n    tag_152:\n        /* \"@openzeppelin/contracts/token/ERC721/ERC721.sol\":2976:3069  return bytes(baseURI).length > 0 ? string(abi.encodePacked(baseURI, tokenId.toString())) : \"\" */\n      swap2\n      pop\n      pop\n        /* \"@openzeppelin/contracts/token/ERC721/ERC721.sol\":2800:3076  function tokenURI(uint256 tokenId) public view virtual override returns (string memory) {... */\n      swap2\n      swap1\n      pop\n      jump\t// out\n        /* \"@openzeppelin/contracts/token/ERC721/ERC721.sol\":4409:4571  function isApprovedForAll(address owner, address operator) public view virtual override returns (bool) {... */\n    tag_75:\n        /* \"@openzeppelin/contracts/token/ERC721/ERC721.sol\":4506:4510  bool */\n      0x00\n        /* \"@openzeppelin/contracts/token/ERC721/ERC721.sol\":4529:4547  _operatorApprovals */\n      0x05\n        /* \"@openzeppelin/contracts/token/ERC721/ERC721.sol\":4529:4554  _operatorApprovals[owner] */\n      0x00\n        /* \"@openzeppelin/contracts/token/ERC721/ERC721.sol\":4548:4553  owner */\n      dup5\n        /* \"@openzeppelin/contracts/token/ERC721/ERC721.sol\":4529:4554  _operatorApprovals[owner] */\n      0xffffffffffffffffffffffffffffffffffffffff\n      and\n      0xffffffffffffffffffffffffffffffffffffffff\n      and\n      dup2\n      mstore\n      0x20\n      add\n      swap1\n      dup2\n      mstore\n      0x20\n      add\n      0x00\n      keccak256\n        /* \"@openzeppelin/contracts/token/ERC721/ERC721.sol\":4529:4564  _operatorApprovals[owner][operator] */\n      0x00\n        /* \"@openzeppelin/contracts/token/ERC721/ERC721.sol\":4555:4563  operator */\n      dup4\n        /* \"@openzeppelin/contracts/token/ERC721/ERC721.sol\":4529:4564  _operatorApprovals[owner][operator] */\n      0xffffffffffffffffffffffffffffffffffffffff\n      and\n      0xffffffffffffffffffffffffffffffffffffffff\n      and\n      dup2\n      mstore\n      0x20\n      add\n      swap1\n      dup2\n      mstore\n      0x20\n      add\n      0x00\n      keccak256\n      0x00\n      swap1\n      sload\n      swap1\n      0x0100\n      exp\n      swap1\n      div\n      0xff\n      and\n        /* \"@openzeppelin/contracts/token/ERC721/ERC721.sol\":4522:4564  return _operatorApprovals[owner][operator] */\n      swap1\n      pop\n        /* \"@openzeppelin/contracts/token/ERC721/ERC721.sol\":4409:4571  function isApprovedForAll(address owner, address operator) public view virtual override returns (bool) {... */\n      swap3\n      swap2\n      pop\n      pop\n      jump\t// out\n        /* \"contracts/RecG.sol\":466:693  function awardItem(address player)... */\n    tag_79:\n        /* \"contracts/RecG.sol\":533:540  uint256 */\n      0x00\n        /* \"contracts/RecG.sol\":556:577  _tokenIds.increment() */\n      tag_159\n        /* \"contracts/RecG.sol\":556:565  _tokenIds */\n      0x06\n        /* \"contracts/RecG.sol\":556:575  _tokenIds.increment */\n      tag_160\n        /* \"contracts/RecG.sol\":556:577  _tokenIds.increment() */\n      jump\t// in\n    tag_159:\n        /* \"contracts/RecG.sol\":587:604  uint256 newItemId */\n      0x00\n        /* \"contracts/RecG.sol\":607:626  _tokenIds.current() */\n      tag_161\n        /* \"contracts/RecG.sol\":607:616  _tokenIds */\n      0x06\n        /* \"contracts/RecG.sol\":607:624  _tokenIds.current */\n      tag_162\n        /* \"contracts/RecG.sol\":607:626  _tokenIds.current() */\n      jump\t// in\n    tag_161:\n        /* \"contracts/RecG.sol\":587:626  uint256 newItemId = _tokenIds.current() */\n      swap1\n      pop\n        /* \"contracts/RecG.sol\":636:660  _mint(player, newItemId) */\n      tag_163\n        /* \"contracts/RecG.sol\":642:648  player */\n      dup4\n        /* \"contracts/RecG.sol\":650:659  newItemId */\n      dup3\n        /* \"contracts/RecG.sol\":636:641  _mint */\n      tag_164\n        /* \"contracts/RecG.sol\":636:660  _mint(player, newItemId) */\n      jump\t// in\n    tag_163:\n        /* \"contracts/RecG.sol\":677:686  newItemId */\n      dup1\n        /* \"contracts/RecG.sol\":670:686  return newItemId */\n      swap2\n      pop\n      pop\n        /* \"contracts/RecG.sol\":466:693  function awardItem(address player)... */\n      swap2\n      swap1\n      pop\n      jump\t// out\n        /* \"@openzeppelin/contracts/utils/introspection/ERC165.sol\":829:984  function supportsInterface(bytes4 interfaceId) public view virtual override returns (bool) {... */\n    tag_85:\n        /* \"@openzeppelin/contracts/utils/introspection/ERC165.sol\":914:918  bool */\n      0x00\n        /* \"@openzeppelin/contracts/utils/introspection/ERC165.sol\":952:977  type(IERC165).interfaceId */\n      0x01ffc9a700000000000000000000000000000000000000000000000000000000\n        /* \"@openzeppelin/contracts/utils/introspection/ERC165.sol\":937:977  interfaceId == type(IERC165).interfaceId */\n      not(0xffffffffffffffffffffffffffffffffffffffffffffffffffffffff)\n      and\n        /* \"@openzeppelin/contracts/utils/introspection/ERC165.sol\":937:948  interfaceId */\n      dup3\n        /* \"@openzeppelin/contracts/utils/introspection/ERC165.sol\":937:977  interfaceId == type(IERC165).interfaceId */\n      not(0xffffffffffffffffffffffffffffffffffffffffffffffffffffffff)\n      and\n      eq\n        /* \"@openzeppelin/contracts/utils/introspection/ERC165.sol\":930:977  return interfaceId == type(IERC165).interfaceId */\n      swap1\n      pop\n        /* \"@openzeppelin/contracts/utils/introspection/ERC165.sol\":829:984  function supportsInterface(bytes4 interfaceId) public view virtual override returns (bool) {... */\n      swap2\n      swap1\n      pop\n      jump\t// out\n        /* \"@openzeppelin/contracts/token/ERC721/ERC721.sol\":11678:11811  function _requireMinted(uint256 tokenId) internal view virtual {... */\n    tag_95:\n        /* \"@openzeppelin/contracts/token/ERC721/ERC721.sol\":11759:11775  _exists(tokenId) */\n      tag_167\n        /* \"@openzeppelin/contracts/token/ERC721/ERC721.sol\":11767:11774  tokenId */\n      dup2\n        /* \"@openzeppelin/contracts/token/ERC721/ERC721.sol\":11759:11766  _exists */\n      tag_168\n        /* \"@openzeppelin/contracts/token/ERC721/ERC721.sol\":11759:11775  _exists(tokenId) */\n      jump\t// in\n    tag_167:\n        /* \"@openzeppelin/contracts/token/ERC721/ERC721.sol\":11751:11804  require(_exists(tokenId), \"ERC721: invalid token ID\") */\n      tag_169\n      jumpi\n      mload(0x40)\n      0x08c379a000000000000000000000000000000000000000000000000000000000\n      dup2\n      mstore\n      0x04\n      add\n      tag_170\n      swap1\n      tag_125\n      jump\t// in\n    tag_170:\n      mload(0x40)\n      dup1\n      swap2\n      sub\n      swap1\n      revert\n    tag_169:\n        /* \"@openzeppelin/contracts/token/ERC721/ERC721.sol\":11678:11811  function _requireMinted(uint256 tokenId) internal view virtual {... */\n      pop\n      jump\t// out\n        /* \"@openzeppelin/contracts/utils/Context.sol\":640:736  function _msgSender() internal view virtual returns (address) {... */\n    tag_102:\n        /* \"@openzeppelin/contracts/utils/Context.sol\":693:700  address */\n      0x00\n        /* \"@openzeppelin/contracts/utils/Context.sol\":719:729  msg.sender */\n      caller\n        /* \"@openzeppelin/contracts/utils/Context.sol\":712:729  return msg.sender */\n      swap1\n      pop\n        /* \"@openzeppelin/contracts/utils/Context.sol\":640:736  function _msgSender() internal view virtual returns (address) {... */\n      swap1\n      jump\t// out\n        /* \"@openzeppelin/contracts/token/ERC721/ERC721.sol\":10980:11151  function _approve(address to, uint256 tokenId) internal virtual {... */\n    tag_110:\n        /* \"@openzeppelin/contracts/token/ERC721/ERC721.sol\":11081:11083  to */\n      dup2\n        /* \"@openzeppelin/contracts/token/ERC721/ERC721.sol\":11054:11069  _tokenApprovals */\n      0x04\n        /* \"@openzeppelin/contracts/token/ERC721/ERC721.sol\":11054:11078  _tokenApprovals[tokenId] */\n      0x00\n        /* \"@openzeppelin/contracts/token/ERC721/ERC721.sol\":11070:11077  tokenId */\n      dup4\n        /* \"@openzeppelin/contracts/token/ERC721/ERC721.sol\":11054:11078  _tokenApprovals[tokenId] */\n      dup2\n      mstore\n      0x20\n      add\n      swap1\n      dup2\n      mstore\n      0x20\n      add\n      0x00\n      keccak256\n      0x00\n        /* \"@openzeppelin/contracts/token/ERC721/ERC721.sol\":11054:11083  _tokenApprovals[tokenId] = to */\n      0x0100\n      exp\n      dup2\n      sload\n      dup2\n      0xffffffffffffffffffffffffffffffffffffffff\n      mul\n      not\n      and\n      swap1\n      dup4\n      0xffffffffffffffffffffffffffffffffffffffff\n      and\n      mul\n      or\n      swap1\n      sstore\n      pop\n        /* \"@openzeppelin/contracts/token/ERC721/ERC721.sol\":11136:11143  tokenId */\n      dup1\n        /* \"@openzeppelin/contracts/token/ERC721/ERC721.sol\":11132:11134  to */\n      dup3\n        /* \"@openzeppelin/contracts/token/ERC721/ERC721.sol\":11098:11144  Approval(ERC721.ownerOf(tokenId), to, tokenId) */\n      0xffffffffffffffffffffffffffffffffffffffff\n      and\n        /* \"@openzeppelin/contracts/token/ERC721/ERC721.sol\":11107:11130  ERC721.ownerOf(tokenId) */\n      tag_173\n        /* \"@openzeppelin/contracts/token/ERC721/ERC721.sol\":11122:11129  tokenId */\n      dup4\n        /* \"@openzeppelin/contracts/token/ERC721/ERC721.sol\":11107:11121  ERC721.ownerOf */\n      tag_49\n        /* \"@openzeppelin/contracts/token/ERC721/ERC721.sol\":11107:11130  ERC721.ownerOf(tokenId) */\n      jump\t// in\n    tag_173:\n        /* \"@openzeppelin/contracts/token/ERC721/ERC721.sol\":11098:11144  Approval(ERC721.ownerOf(tokenId), to, tokenId) */\n      0xffffffffffffffffffffffffffffffffffffffff\n      and\n      0x8c5be1e5ebec7d5bd14f71427d1e84f3dd0314c0f7b2291e5b200ac8c7c3b925\n      mload(0x40)\n      mload(0x40)\n      dup1\n      swap2\n      sub\n      swap1\n      log4\n        /* \"@openzeppelin/contracts/token/ERC721/ERC721.sol\":10980:11151  function _approve(address to, uint256 tokenId) internal virtual {... */\n      pop\n      pop\n      jump\t// out\n        /* \"@openzeppelin/contracts/token/ERC721/ERC721.sol\":7338:7599  function _isApprovedOrOwner(address spender, uint256 tokenId) internal view virtual returns (bool) {... */\n    tag_114:\n        /* \"@openzeppelin/contracts/token/ERC721/ERC721.sol\":7431:7435  bool */\n      0x00\n        /* \"@openzeppelin/contracts/token/ERC721/ERC721.sol\":7447:7460  address owner */\n      dup1\n        /* \"@openzeppelin/contracts/token/ERC721/ERC721.sol\":7463:7486  ERC721.ownerOf(tokenId) */\n      tag_175\n        /* \"@openzeppelin/contracts/token/ERC721/ERC721.sol\":7478:7485  tokenId */\n      dup4\n        /* \"@openzeppelin/contracts/token/ERC721/ERC721.sol\":7463:7477  ERC721.ownerOf */\n      tag_49\n        /* \"@openzeppelin/contracts/token/ERC721/ERC721.sol\":7463:7486  ERC721.ownerOf(tokenId) */\n      jump\t// in\n    tag_175:\n        /* \"@openzeppelin/contracts/token/ERC721/ERC721.sol\":7447:7486  address owner = ERC721.ownerOf(tokenId) */\n      swap1\n      pop\n        /* \"@openzeppelin/contracts/token/ERC721/ERC721.sol\":7515:7520  owner */\n      dup1\n        /* \"@openzeppelin/contracts/token/ERC721/ERC721.sol\":7504:7520  spender == owner */\n      0xffffffffffffffffffffffffffffffffffffffff\n      and\n        /* \"@openzeppelin/contracts/token/ERC721/ERC721.sol\":7504:7511  spender */\n      dup5\n        /* \"@openzeppelin/contracts/token/ERC721/ERC721.sol\":7504:7520  spender == owner */\n      0xffffffffffffffffffffffffffffffffffffffff\n      and\n      eq\n        /* \"@openzeppelin/contracts/token/ERC721/ERC721.sol\":7504:7556  spender == owner || isApprovedForAll(owner, spender) */\n      dup1\n      tag_176\n      jumpi\n      pop\n        /* \"@openzeppelin/contracts/token/ERC721/ERC721.sol\":7524:7556  isApprovedForAll(owner, spender) */\n      tag_177\n        /* \"@openzeppelin/contracts/token/ERC721/ERC721.sol\":7541:7546  owner */\n      dup2\n        /* \"@openzeppelin/contracts/token/ERC721/ERC721.sol\":7548:7555  spender */\n      dup6\n        /* \"@openzeppelin/contracts/token/ERC721/ERC721.sol\":7524:7540  isApprovedForAll */\n      tag_75\n        /* \"@openzeppelin/contracts/token/ERC721/ERC721.sol\":7524:7556  isApprovedForAll(owner, spender) */\n      jump\t// in\n    tag_177:\n        /* \"@openzeppelin/contracts/token/ERC721/ERC721.sol\":7504:7556  spender == owner || isApprovedForAll(owner, spender) */\n    tag_176:\n        /* \"@openzeppelin/contracts/token/ERC721/ERC721.sol\":7504:7591  spender == owner || isApprovedForAll(owner, spender) || getApproved(tokenId) == spender */\n      dup1\n      tag_178\n      jumpi\n      pop\n        /* \"@openzeppelin/contracts/token/ERC721/ERC721.sol\":7584:7591  spender */\n      dup4\n        /* \"@openzeppelin/contracts/token/ERC721/ERC721.sol\":7560:7591  getApproved(tokenId) == spender */\n      0xffffffffffffffffffffffffffffffffffffffff\n      and\n        /* \"@openzeppelin/contracts/token/ERC721/ERC721.sol\":7560:7580  getApproved(tokenId) */\n      tag_179\n        /* \"@openzeppelin/contracts/token/ERC721/ERC721.sol\":7572:7579  tokenId */\n      dup5\n        /* \"@openzeppelin/contracts/token/ERC721/ERC721.sol\":7560:7571  getApproved */\n      tag_33\n        /* \"@openzeppelin/contracts/token/ERC721/ERC721.sol\":7560:7580  getApproved(tokenId) */\n      jump\t// in\n    tag_179:\n        /* \"@openzeppelin/contracts/token/ERC721/ERC721.sol\":7560:7591  getApproved(tokenId) == spender */\n      0xffffffffffffffffffffffffffffffffffffffff\n      and\n      eq\n        /* \"@openzeppelin/contracts/token/ERC721/ERC721.sol\":7504:7591  spender == owner || isApprovedForAll(owner, spender) || getApproved(tokenId) == spender */\n    tag_178:\n        /* \"@openzeppelin/contracts/token/ERC721/ERC721.sol\":7496:7592  return (spender == owner || isApprovedForAll(owner, spender) || getApproved(tokenId) == spender) */\n      swap2\n      pop\n      pop\n        /* \"@openzeppelin/contracts/token/ERC721/ERC721.sol\":7338:7599  function _isApprovedOrOwner(address spender, uint256 tokenId) internal view virtual returns (bool) {... */\n      swap3\n      swap2\n      pop\n      pop\n      jump\t// out\n        /* \"@openzeppelin/contracts/token/ERC721/ERC721.sol\":10263:10868  function _transfer(... */\n    tag_119:\n        /* \"@openzeppelin/contracts/token/ERC721/ERC721.sol\":10417:10421  from */\n      dup3\n        /* \"@openzeppelin/contracts/token/ERC721/ERC721.sol\":10390:10421  ERC721.ownerOf(tokenId) == from */\n      0xffffffffffffffffffffffffffffffffffffffff\n      and\n        /* \"@openzeppelin/contracts/token/ERC721/ERC721.sol\":10390:10413  ERC721.ownerOf(tokenId) */\n      tag_181\n        /* \"@openzeppelin/contracts/token/ERC721/ERC721.sol\":10405:10412  tokenId */\n      dup3\n        /* \"@openzeppelin/contracts/token/ERC721/ERC721.sol\":10390:10404  ERC721.ownerOf */\n      tag_49\n        /* \"@openzeppelin/contracts/token/ERC721/ERC721.sol\":10390:10413  ERC721.ownerOf(tokenId) */\n      jump\t// in\n    tag_181:\n        /* \"@openzeppelin/contracts/token/ERC721/ERC721.sol\":10390:10421  ERC721.ownerOf(tokenId) == from */\n      0xffffffffffffffffffffffffffffffffffffffff\n      and\n      eq\n        /* \"@openzeppelin/contracts/token/ERC721/ERC721.sol\":10382:10463  require(ERC721.ownerOf(tokenId) == from, \"ERC721: transfer from incorrect owner\") */\n      tag_182\n      jumpi\n      mload(0x40)\n      0x08c379a000000000000000000000000000000000000000000000000000000000\n      dup2\n      mstore\n      0x04\n      add\n      tag_183\n      swap1\n      tag_184\n      jump\t// in\n    tag_183:\n      mload(0x40)\n      dup1\n      swap2\n      sub\n      swap1\n      revert\n    tag_182:\n        /* \"@openzeppelin/contracts/token/ERC721/ERC721.sol\":10495:10496  0 */\n      0x00\n        /* \"@openzeppelin/contracts/token/ERC721/ERC721.sol\":10481:10497  to != address(0) */\n      0xffffffffffffffffffffffffffffffffffffffff\n      and\n        /* \"@openzeppelin/contracts/token/ERC721/ERC721.sol\":10481:10483  to */\n      dup3\n        /* \"@openzeppelin/contracts/token/ERC721/ERC721.sol\":10481:10497  to != address(0) */\n      0xffffffffffffffffffffffffffffffffffffffff\n      and\n      eq\n      iszero\n        /* \"@openzeppelin/contracts/token/ERC721/ERC721.sol\":10473:10538  require(to != address(0), \"ERC721: transfer to the zero address\") */\n      tag_185\n      jumpi\n      mload(0x40)\n      0x08c379a000000000000000000000000000000000000000000000000000000000\n      dup2\n      mstore\n      0x04\n      add\n      tag_186\n      swap1\n      tag_187\n      jump\t// in\n    tag_186:\n      mload(0x40)\n      dup1\n      swap2\n      sub\n      swap1\n      revert\n    tag_185:\n        /* \"@openzeppelin/contracts/token/ERC721/ERC721.sol\":10549:10588  _beforeTokenTransfer(from, to, tokenId) */\n      tag_188\n        /* \"@openzeppelin/contracts/token/ERC721/ERC721.sol\":10570:10574  from */\n      dup4\n        /* \"@openzeppelin/contracts/token/ERC721/ERC721.sol\":10576:10578  to */\n      dup4\n        /* \"@openzeppelin/contracts/token/ERC721/ERC721.sol\":10580:10587  tokenId */\n      dup4\n        /* \"@openzeppelin/contracts/token/ERC721/ERC721.sol\":10549:10569  _beforeTokenTransfer */\n      tag_189\n        /* \"@openzeppelin/contracts/token/ERC721/ERC721.sol\":10549:10588  _beforeTokenTransfer(from, to, tokenId) */\n      jump\t// in\n    tag_188:\n        /* \"@openzeppelin/contracts/token/ERC721/ERC721.sol\":10650:10679  _approve(address(0), tokenId) */\n      tag_190\n        /* \"@openzeppelin/contracts/token/ERC721/ERC721.sol\":10667:10668  0 */\n      0x00\n        /* \"@openzeppelin/contracts/token/ERC721/ERC721.sol\":10671:10678  tokenId */\n      dup3\n        /* \"@openzeppelin/contracts/token/ERC721/ERC721.sol\":10650:10658  _approve */\n      tag_110\n        /* \"@openzeppelin/contracts/token/ERC721/ERC721.sol\":10650:10679  _approve(address(0), tokenId) */\n      jump\t// in\n    tag_190:\n        /* \"@openzeppelin/contracts/token/ERC721/ERC721.sol\":10709:10710  1 */\n      0x01\n        /* \"@openzeppelin/contracts/token/ERC721/ERC721.sol\":10690:10699  _balances */\n      0x03\n        /* \"@openzeppelin/contracts/token/ERC721/ERC721.sol\":10690:10705  _balances[from] */\n      0x00\n        /* \"@openzeppelin/contracts/token/ERC721/ERC721.sol\":10700:10704  from */\n      dup6\n        /* \"@openzeppelin/contracts/token/ERC721/ERC721.sol\":10690:10705  _balances[from] */\n      0xffffffffffffffffffffffffffffffffffffffff\n      and\n      0xffffffffffffffffffffffffffffffffffffffff\n      and\n      dup2\n      mstore\n      0x20\n      add\n      swap1\n      dup2\n      mstore\n      0x20\n      add\n      0x00\n      keccak256\n      0x00\n        /* \"@openzeppelin/contracts/token/ERC721/ERC721.sol\":10690:10710  _balances[from] -= 1 */\n      dup3\n      dup3\n      sload\n      tag_191\n      swap2\n      swap1\n      tag_192\n      jump\t// in\n    tag_191:\n      swap3\n      pop\n      pop\n      dup2\n      swap1\n      sstore\n      pop\n        /* \"@openzeppelin/contracts/token/ERC721/ERC721.sol\":10737:10738  1 */\n      0x01\n        /* \"@openzeppelin/contracts/token/ERC721/ERC721.sol\":10720:10729  _balances */\n      0x03\n        /* \"@openzeppelin/contracts/token/ERC721/ERC721.sol\":10720:10733  _balances[to] */\n      0x00\n        /* \"@openzeppelin/contracts/token/ERC721/ERC721.sol\":10730:10732  to */\n      dup5\n        /* \"@openzeppelin/contracts/token/ERC721/ERC721.sol\":10720:10733  _balances[to] */\n      0xffffffffffffffffffffffffffffffffffffffff\n      and\n      0xffffffffffffffffffffffffffffffffffffffff\n      and\n      dup2\n      mstore\n      0x20\n      add\n      swap1\n      dup2\n      mstore\n      0x20\n      add\n      0x00\n      keccak256\n      0x00\n        /* \"@openzeppelin/contracts/token/ERC721/ERC721.sol\":10720:10738  _balances[to] += 1 */\n      dup3\n      dup3\n      sload\n      tag_193\n      swap2\n      swap1\n      tag_194\n      jump\t// in\n    tag_193:\n      swap3\n      pop\n      pop\n      dup2\n      swap1\n      sstore\n      pop\n        /* \"@openzeppelin/contracts/token/ERC721/ERC721.sol\":10767:10769  to */\n      dup2\n        /* \"@openzeppelin/contracts/token/ERC721/ERC721.sol\":10748:10755  _owners */\n      0x02\n        /* \"@openzeppelin/contracts/token/ERC721/ERC721.sol\":10748:10764  _owners[tokenId] */\n      0x00\n        /* \"@openzeppelin/contracts/token/ERC721/ERC721.sol\":10756:10763  tokenId */\n      dup4\n        /* \"@openzeppelin/contracts/token/ERC721/ERC721.sol\":10748:10764  _owners[tokenId] */\n      dup2\n      mstore\n      0x20\n      add\n      swap1\n      dup2\n      mstore\n      0x20\n      add\n      0x00\n      keccak256\n      0x00\n        /* \"@openzeppelin/contracts/token/ERC721/ERC721.sol\":10748:10769  _owners[tokenId] = to */\n      0x0100\n      exp\n      dup2\n      sload\n      dup2\n      0xffffffffffffffffffffffffffffffffffffffff\n      mul\n      not\n      and\n      swap1\n      dup4\n      0xffffffffffffffffffffffffffffffffffffffff\n      and\n      mul\n      or\n      swap1\n      sstore\n      pop\n        /* \"@openzeppelin/contracts/token/ERC721/ERC721.sol\":10804:10811  tokenId */\n      dup1\n        /* \"@openzeppelin/contracts/token/ERC721/ERC721.sol\":10800:10802  to */\n      dup3\n        /* \"@openzeppelin/contracts/token/ERC721/ERC721.sol\":10785:10812  Transfer(from, to, tokenId) */\n      0xffffffffffffffffffffffffffffffffffffffff\n      and\n        /* \"@openzeppelin/contracts/token/ERC721/ERC721.sol\":10794:10798  from */\n      dup5\n        /* \"@openzeppelin/contracts/token/ERC721/ERC721.sol\":10785:10812  Transfer(from, to, tokenId) */\n      0xffffffffffffffffffffffffffffffffffffffff\n      and\n      0xddf252ad1be2c89b69c2b068fc378daa952ba7f163c4a11628f55a4df523b3ef\n      mload(0x40)\n      mload(0x40)\n      dup1\n      swap2\n      sub\n      swap1\n      log4\n        /* \"@openzeppelin/contracts/token/ERC721/ERC721.sol\":10823:10861  _afterTokenTransfer(from, to, tokenId) */\n      tag_195\n        /* \"@openzeppelin/contracts/token/ERC721/ERC721.sol\":10843:10847  from */\n      dup4\n        /* \"@openzeppelin/contracts/token/ERC721/ERC721.sol\":10849:10851  to */\n      dup4\n        /* \"@openzeppelin/contracts/token/ERC721/ERC721.sol\":10853:10860  tokenId */\n      dup4\n        /* \"@openzeppelin/contracts/token/ERC721/ERC721.sol\":10823:10842  _afterTokenTransfer */\n      tag_196\n        /* \"@openzeppelin/contracts/token/ERC721/ERC721.sol\":10823:10861  _afterTokenTransfer(from, to, tokenId) */\n      jump\t// in\n    tag_195:\n        /* \"@openzeppelin/contracts/token/ERC721/ERC721.sol\":10263:10868  function _transfer(... */\n      pop\n      pop\n      pop\n      jump\t// out\n        /* \"@openzeppelin/contracts/token/ERC721/ERC721.sol\":11287:11594  function _setApprovalForAll(... */\n    tag_139:\n        /* \"@openzeppelin/contracts/token/ERC721/ERC721.sol\":11437:11445  operator */\n      dup2\n        /* \"@openzeppelin/contracts/token/ERC721/ERC721.sol\":11428:11445  owner != operator */\n      0xffffffffffffffffffffffffffffffffffffffff\n      and\n        /* \"@openzeppelin/contracts/token/ERC721/ERC721.sol\":11428:11433  owner */\n      dup4\n        /* \"@openzeppelin/contracts/token/ERC721/ERC721.sol\":11428:11445  owner != operator */\n      0xffffffffffffffffffffffffffffffffffffffff\n      and\n      eq\n      iszero\n        /* \"@openzeppelin/contracts/token/ERC721/ERC721.sol\":11420:11475  require(owner != operator, \"ERC721: approve to caller\") */\n      tag_198\n      jumpi\n      mload(0x40)\n      0x08c379a000000000000000000000000000000000000000000000000000000000\n      dup2\n      mstore\n      0x04\n      add\n      tag_199\n      swap1\n      tag_200\n      jump\t// in\n    tag_199:\n      mload(0x40)\n      dup1\n      swap2\n      sub\n      swap1\n      revert\n    tag_198:\n        /* \"@openzeppelin/contracts/token/ERC721/ERC721.sol\":11523:11531  approved */\n      dup1\n        /* \"@openzeppelin/contracts/token/ERC721/ERC721.sol\":11485:11503  _operatorApprovals */\n      0x05\n        /* \"@openzeppelin/contracts/token/ERC721/ERC721.sol\":11485:11510  _operatorApprovals[owner] */\n      0x00\n        /* \"@openzeppelin/contracts/token/ERC721/ERC721.sol\":11504:11509  owner */\n      dup6\n        /* \"@openzeppelin/contracts/token/ERC721/ERC721.sol\":11485:11510  _operatorApprovals[owner] */\n      0xffffffffffffffffffffffffffffffffffffffff\n      and\n      0xffffffffffffffffffffffffffffffffffffffff\n      and\n      dup2\n      mstore\n      0x20\n      add\n      swap1\n      dup2\n      mstore\n      0x20\n      add\n      0x00\n      keccak256\n        /* \"@openzeppelin/contracts/token/ERC721/ERC721.sol\":11485:11520  _operatorApprovals[owner][operator] */\n      0x00\n        /* \"@openzeppelin/contracts/token/ERC721/ERC721.sol\":11511:11519  operator */\n      dup5\n        /* \"@openzeppelin/contracts/token/ERC721/ERC721.sol\":11485:11520  _operatorApprovals[owner][operator] */\n      0xffffffffffffffffffffffffffffffffffffffff\n      and\n      0xffffffffffffffffffffffffffffffffffffffff\n      and\n      dup2\n      mstore\n      0x20\n      add\n      swap1\n      dup2\n      mstore\n      0x20\n      add\n      0x00\n      keccak256\n      0x00\n        /* \"@openzeppelin/contracts/token/ERC721/ERC721.sol\":11485:11531  _operatorApprovals[owner][operator] = approved */\n      0x0100\n      exp\n      dup2\n      sload\n      dup2\n      0xff\n      mul\n      not\n      and\n      swap1\n      dup4\n      iszero\n      iszero\n      mul\n      or\n      swap1\n      sstore\n      pop\n        /* \"@openzeppelin/contracts/token/ERC721/ERC721.sol\":11568:11576  operator */\n      dup2\n        /* \"@openzeppelin/contracts/token/ERC721/ERC721.sol\":11546:11587  ApprovalForAll(owner, operator, approved) */\n      0xffffffffffffffffffffffffffffffffffffffff\n      and\n        /* \"@openzeppelin/contracts/token/ERC721/ERC721.sol\":11561:11566  owner */\n      dup4\n        /* \"@openzeppelin/contracts/token/ERC721/ERC721.sol\":11546:11587  ApprovalForAll(owner, operator, approved) */\n      0xffffffffffffffffffffffffffffffffffffffff\n      and\n      0x17307eab39ab6107e8899845ad3d59bd9653f200f220920489ca2b5937696c31\n        /* \"@openzeppelin/contracts/token/ERC721/ERC721.sol\":11578:11586  approved */\n      dup4\n        /* \"@openzeppelin/contracts/token/ERC721/ERC721.sol\":11546:11587  ApprovalForAll(owner, operator, approved) */\n      mload(0x40)\n      tag_201\n      swap2\n      swap1\n      tag_25\n      jump\t// in\n    tag_201:\n      mload(0x40)\n      dup1\n      swap2\n      sub\n      swap1\n      log3\n        /* \"@openzeppelin/contracts/token/ERC721/ERC721.sol\":11287:11594  function _setApprovalForAll(... */\n      pop\n      pop\n      pop\n      jump\t// out\n        /* \"@openzeppelin/contracts/token/ERC721/ERC721.sol\":6447:6752  function _safeTransfer(... */\n    tag_146:\n        /* \"@openzeppelin/contracts/token/ERC721/ERC721.sol\":6597:6625  _transfer(from, to, tokenId) */\n      tag_203\n        /* \"@openzeppelin/contracts/token/ERC721/ERC721.sol\":6607:6611  from */\n      dup5\n        /* \"@openzeppelin/contracts/token/ERC721/ERC721.sol\":6613:6615  to */\n      dup5\n        /* \"@openzeppelin/contracts/token/ERC721/ERC721.sol\":6617:6624  tokenId */\n      dup5\n        /* \"@openzeppelin/contracts/token/ERC721/ERC721.sol\":6597:6606  _transfer */\n      tag_119\n        /* \"@openzeppelin/contracts/token/ERC721/ERC721.sol\":6597:6625  _transfer(from, to, tokenId) */\n      jump\t// in\n    tag_203:\n        /* \"@openzeppelin/contracts/token/ERC721/ERC721.sol\":6643:6690  _checkOnERC721Received(from, to, tokenId, data) */\n      tag_204\n        /* \"@openzeppelin/contracts/token/ERC721/ERC721.sol\":6666:6670  from */\n      dup5\n        /* \"@openzeppelin/contracts/token/ERC721/ERC721.sol\":6672:6674  to */\n      dup5\n        /* \"@openzeppelin/contracts/token/ERC721/ERC721.sol\":6676:6683  tokenId */\n      dup5\n        /* \"@openzeppelin/contracts/token/ERC721/ERC721.sol\":6685:6689  data */\n      dup5\n        /* \"@openzeppelin/contracts/token/ERC721/ERC721.sol\":6643:6665  _checkOnERC721Received */\n      tag_205\n        /* \"@openzeppelin/contracts/token/ERC721/ERC721.sol\":6643:6690  _checkOnERC721Received(from, to, tokenId, data) */\n      jump\t// in\n    tag_204:\n        /* \"@openzeppelin/contracts/token/ERC721/ERC721.sol\":6635:6745  require(_checkOnERC721Received(from, to, tokenId, data), \"ERC721: transfer to non ERC721Receiver implementer\") */\n      tag_206\n      jumpi\n      mload(0x40)\n      0x08c379a000000000000000000000000000000000000000000000000000000000\n      dup2\n      mstore\n      0x04\n      add\n      tag_207\n      swap1\n      tag_208\n      jump\t// in\n    tag_207:\n      mload(0x40)\n      dup1\n      swap2\n      sub\n      swap1\n      revert\n    tag_206:\n        /* \"@openzeppelin/contracts/token/ERC721/ERC721.sol\":6447:6752  function _safeTransfer(... */\n      pop\n      pop\n      pop\n      pop\n      jump\t// out\n        /* \"@openzeppelin/contracts/token/ERC721/ERC721.sol\":3318:3431  function _baseURI() internal view virtual returns (string memory) {... */\n    tag_150:\n        /* \"@openzeppelin/contracts/token/ERC721/ERC721.sol\":3369:3382  string memory */\n      0x60\n        /* \"@openzeppelin/contracts/token/ERC721/ERC721.sol\":3394:3424  return \"https://recg.com/nft/\" */\n      mload(0x40)\n      dup1\n      0x40\n      add\n      0x40\n      mstore\n      dup1\n      0x15\n      dup2\n      mstore\n      0x20\n      add\n      0x68747470733a2f2f726563672e636f6d2f6e66742f0000000000000000000000\n      dup2\n      mstore\n      pop\n      swap1\n      pop\n        /* \"@openzeppelin/contracts/token/ERC721/ERC721.sol\":3318:3431  function _baseURI() internal view virtual returns (string memory) {... */\n      swap1\n      jump\t// out\n        /* \"@openzeppelin/contracts/utils/Strings.sol\":392:1095  function toString(uint256 value) internal pure returns (string memory) {... */\n    tag_154:\n        /* \"@openzeppelin/contracts/utils/Strings.sol\":448:461  string memory */\n      0x60\n        /* \"@openzeppelin/contracts/utils/Strings.sol\":674:675  0 */\n      0x00\n        /* \"@openzeppelin/contracts/utils/Strings.sol\":665:670  value */\n      dup3\n        /* \"@openzeppelin/contracts/utils/Strings.sol\":665:675  value == 0 */\n      eq\n        /* \"@openzeppelin/contracts/utils/Strings.sol\":661:712  if (value == 0) {... */\n      iszero\n      tag_211\n      jumpi\n        /* \"@openzeppelin/contracts/utils/Strings.sol\":691:701  return \"0\" */\n      mload(0x40)\n      dup1\n      0x40\n      add\n      0x40\n      mstore\n      dup1\n      0x01\n      dup2\n      mstore\n      0x20\n      add\n      0x3000000000000000000000000000000000000000000000000000000000000000\n      dup2\n      mstore\n      pop\n      swap1\n      pop\n      jump(tag_210)\n        /* \"@openzeppelin/contracts/utils/Strings.sol\":661:712  if (value == 0) {... */\n    tag_211:\n        /* \"@openzeppelin/contracts/utils/Strings.sol\":721:733  uint256 temp */\n      0x00\n        /* \"@openzeppelin/contracts/utils/Strings.sol\":736:741  value */\n      dup3\n        /* \"@openzeppelin/contracts/utils/Strings.sol\":721:741  uint256 temp = value */\n      swap1\n      pop\n        /* \"@openzeppelin/contracts/utils/Strings.sol\":751:765  uint256 digits */\n      0x00\n        /* \"@openzeppelin/contracts/utils/Strings.sol\":775:850  while (temp != 0) {... */\n    tag_212:\n        /* \"@openzeppelin/contracts/utils/Strings.sol\":790:791  0 */\n      0x00\n        /* \"@openzeppelin/contracts/utils/Strings.sol\":782:786  temp */\n      dup3\n        /* \"@openzeppelin/contracts/utils/Strings.sol\":782:791  temp != 0 */\n      eq\n        /* \"@openzeppelin/contracts/utils/Strings.sol\":775:850  while (temp != 0) {... */\n      tag_213\n      jumpi\n        /* \"@openzeppelin/contracts/utils/Strings.sol\":807:815  digits++ */\n      dup1\n      dup1\n      tag_214\n      swap1\n      tag_215\n      jump\t// in\n    tag_214:\n      swap2\n      pop\n      pop\n        /* \"@openzeppelin/contracts/utils/Strings.sol\":837:839  10 */\n      0x0a\n        /* \"@openzeppelin/contracts/utils/Strings.sol\":829:839  temp /= 10 */\n      dup3\n      tag_216\n      swap2\n      swap1\n      tag_217\n      jump\t// in\n    tag_216:\n      swap2\n      pop\n        /* \"@openzeppelin/contracts/utils/Strings.sol\":775:850  while (temp != 0) {... */\n      jump(tag_212)\n    tag_213:\n        /* \"@openzeppelin/contracts/utils/Strings.sol\":859:878  bytes memory buffer */\n      0x00\n        /* \"@openzeppelin/contracts/utils/Strings.sol\":891:897  digits */\n      dup2\n        /* \"@openzeppelin/contracts/utils/Strings.sol\":881:898  new bytes(digits) */\n      0xffffffffffffffff\n      dup2\n      gt\n      iszero\n      tag_218\n      jumpi\n      mstore(0x00, 0x4e487b7100000000000000000000000000000000000000000000000000000000)\n      mstore(0x04, 0x41)\n      revert(0x00, 0x24)\n    tag_218:\n      mload(0x40)\n      swap1\n      dup1\n      dup3\n      mstore\n      dup1\n      0x1f\n      add\n      not(0x1f)\n      and\n      0x20\n      add\n      dup3\n      add\n      0x40\n      mstore\n      dup1\n      iszero\n      tag_219\n      jumpi\n      dup2\n      0x20\n      add\n      0x01\n      dup3\n      mul\n      dup1\n      calldatasize\n      dup4\n      calldatacopy\n      dup1\n      dup3\n      add\n      swap2\n      pop\n      pop\n      swap1\n      pop\n    tag_219:\n      pop\n        /* \"@openzeppelin/contracts/utils/Strings.sol\":859:898  bytes memory buffer = new bytes(digits) */\n      swap1\n      pop\n        /* \"@openzeppelin/contracts/utils/Strings.sol\":908:1058  while (value != 0) {... */\n    tag_220:\n        /* \"@openzeppelin/contracts/utils/Strings.sol\":924:925  0 */\n      0x00\n        /* \"@openzeppelin/contracts/utils/Strings.sol\":915:920  value */\n      dup6\n        /* \"@openzeppelin/contracts/utils/Strings.sol\":915:925  value != 0 */\n      eq\n        /* \"@openzeppelin/contracts/utils/Strings.sol\":908:1058  while (value != 0) {... */\n      tag_221\n      jumpi\n        /* \"@openzeppelin/contracts/utils/Strings.sol\":951:952  1 */\n      0x01\n        /* \"@openzeppelin/contracts/utils/Strings.sol\":941:952  digits -= 1 */\n      dup3\n      tag_222\n      swap2\n      swap1\n      tag_192\n      jump\t// in\n    tag_222:\n      swap2\n      pop\n        /* \"@openzeppelin/contracts/utils/Strings.sol\":1017:1019  10 */\n      0x0a\n        /* \"@openzeppelin/contracts/utils/Strings.sol\":1009:1014  value */\n      dup6\n        /* \"@openzeppelin/contracts/utils/Strings.sol\":1009:1019  value % 10 */\n      tag_223\n      swap2\n      swap1\n      tag_224\n      jump\t// in\n    tag_223:\n        /* \"@openzeppelin/contracts/utils/Strings.sol\":996:998  48 */\n      0x30\n        /* \"@openzeppelin/contracts/utils/Strings.sol\":996:1020  48 + uint256(value % 10) */\n      tag_225\n      swap2\n      swap1\n      tag_194\n      jump\t// in\n    tag_225:\n        /* \"@openzeppelin/contracts/utils/Strings.sol\":983:1022  bytes1(uint8(48 + uint256(value % 10))) */\n      0xf8\n      shl\n        /* \"@openzeppelin/contracts/utils/Strings.sol\":966:972  buffer */\n      dup2\n        /* \"@openzeppelin/contracts/utils/Strings.sol\":973:979  digits */\n      dup4\n        /* \"@openzeppelin/contracts/utils/Strings.sol\":966:980  buffer[digits] */\n      dup2\n      mload\n      dup2\n      lt\n      tag_226\n      jumpi\n      mstore(0x00, 0x4e487b7100000000000000000000000000000000000000000000000000000000)\n      mstore(0x04, 0x32)\n      revert(0x00, 0x24)\n    tag_226:\n      0x20\n      add\n      add\n        /* \"@openzeppelin/contracts/utils/Strings.sol\":966:1022  buffer[digits] = bytes1(uint8(48 + uint256(value % 10))) */\n      swap1\n      not(0xffffffffffffffffffffffffffffffffffffffffffffffffffffffffffffff)\n      and\n      swap1\n      dup2\n      0x00\n      byte\n      swap1\n      mstore8\n      pop\n        /* \"@openzeppelin/contracts/utils/Strings.sol\":1045:1047  10 */\n      0x0a\n        /* \"@openzeppelin/contracts/utils/Strings.sol\":1036:1047  value /= 10 */\n      dup6\n      tag_227\n      swap2\n      swap1\n      tag_217\n      jump\t// in\n    tag_227:\n      swap5\n      pop\n        /* \"@openzeppelin/contracts/utils/Strings.sol\":908:1058  while (value != 0) {... */\n      jump(tag_220)\n    tag_221:\n        /* \"@openzeppelin/contracts/utils/Strings.sol\":1081:1087  buffer */\n      dup1\n        /* \"@openzeppelin/contracts/utils/Strings.sol\":1067:1088  return string(buffer) */\n      swap4\n      pop\n      pop\n      pop\n      pop\n        /* \"@openzeppelin/contracts/utils/Strings.sol\":392:1095  function toString(uint256 value) internal pure returns (string memory) {... */\n    tag_210:\n      swap2\n      swap1\n      pop\n      jump\t// out\n        /* \"@openzeppelin/contracts/utils/Counters.sol\":945:1068  function increment(Counter storage counter) internal {... */\n    tag_160:\n        /* \"@openzeppelin/contracts/utils/Counters.sol\":1050:1051  1 */\n      0x01\n        /* \"@openzeppelin/contracts/utils/Counters.sol\":1032:1039  counter */\n      dup2\n        /* \"@openzeppelin/contracts/utils/Counters.sol\":1032:1046  counter._value */\n      0x00\n      add\n      0x00\n        /* \"@openzeppelin/contracts/utils/Counters.sol\":1032:1051  counter._value += 1 */\n      dup3\n      dup3\n      sload\n      add\n      swap3\n      pop\n      pop\n      dup2\n      swap1\n      sstore\n      pop\n        /* \"@openzeppelin/contracts/utils/Counters.sol\":945:1068  function increment(Counter storage counter) internal {... */\n      pop\n      jump\t// out\n        /* \"@openzeppelin/contracts/utils/Counters.sol\":827:939  function current(Counter storage counter) internal view returns (uint256) {... */\n    tag_162:\n        /* \"@openzeppelin/contracts/utils/Counters.sol\":892:899  uint256 */\n      0x00\n        /* \"@openzeppelin/contracts/utils/Counters.sol\":918:925  counter */\n      dup2\n        /* \"@openzeppelin/contracts/utils/Counters.sol\":918:932  counter._value */\n      0x00\n      add\n      sload\n        /* \"@openzeppelin/contracts/utils/Counters.sol\":911:932  return counter._value */\n      swap1\n      pop\n        /* \"@openzeppelin/contracts/utils/Counters.sol\":827:939  function current(Counter storage counter) internal view returns (uint256) {... */\n      swap2\n      swap1\n      pop\n      jump\t// out\n        /* \"@openzeppelin/contracts/token/ERC721/ERC721.sol\":8889:9316  function _mint(address to, uint256 tokenId) internal virtual {... */\n    tag_164:\n        /* \"@openzeppelin/contracts/token/ERC721/ERC721.sol\":8982:8983  0 */\n      0x00\n        /* \"@openzeppelin/contracts/token/ERC721/ERC721.sol\":8968:8984  to != address(0) */\n      0xffffffffffffffffffffffffffffffffffffffff\n      and\n        /* \"@openzeppelin/contracts/token/ERC721/ERC721.sol\":8968:8970  to */\n      dup3\n        /* \"@openzeppelin/contracts/token/ERC721/ERC721.sol\":8968:8984  to != address(0) */\n      0xffffffffffffffffffffffffffffffffffffffff\n      and\n      eq\n      iszero\n        /* \"@openzeppelin/contracts/token/ERC721/ERC721.sol\":8960:9021  require(to != address(0), \"ERC721: mint to the zero address\") */\n      tag_231\n      jumpi\n      mload(0x40)\n      0x08c379a000000000000000000000000000000000000000000000000000000000\n      dup2\n      mstore\n      0x04\n      add\n      tag_232\n      swap1\n      tag_233\n      jump\t// in\n    tag_232:\n      mload(0x40)\n      dup1\n      swap2\n      sub\n      swap1\n      revert\n    tag_231:\n        /* \"@openzeppelin/contracts/token/ERC721/ERC721.sol\":9040:9056  _exists(tokenId) */\n      tag_234\n        /* \"@openzeppelin/contracts/token/ERC721/ERC721.sol\":9048:9055  tokenId */\n      dup2\n        /* \"@openzeppelin/contracts/token/ERC721/ERC721.sol\":9040:9047  _exists */\n      tag_168\n        /* \"@openzeppelin/contracts/token/ERC721/ERC721.sol\":9040:9056  _exists(tokenId) */\n      jump\t// in\n    tag_234:\n        /* \"@openzeppelin/contracts/token/ERC721/ERC721.sol\":9039:9056  !_exists(tokenId) */\n      iszero\n        /* \"@openzeppelin/contracts/token/ERC721/ERC721.sol\":9031:9089  require(!_exists(tokenId), \"ERC721: token already minted\") */\n      tag_235\n      jumpi\n      mload(0x40)\n      0x08c379a000000000000000000000000000000000000000000000000000000000\n      dup2\n      mstore\n      0x04\n      add\n      tag_236\n      swap1\n      tag_237\n      jump\t// in\n    tag_236:\n      mload(0x40)\n      dup1\n      swap2\n      sub\n      swap1\n      revert\n    tag_235:\n        /* \"@openzeppelin/contracts/token/ERC721/ERC721.sol\":9100:9145  _beforeTokenTransfer(address(0), to, tokenId) */\n      tag_238\n        /* \"@openzeppelin/contracts/token/ERC721/ERC721.sol\":9129:9130  0 */\n      0x00\n        /* \"@openzeppelin/contracts/token/ERC721/ERC721.sol\":9133:9135  to */\n      dup4\n        /* \"@openzeppelin/contracts/token/ERC721/ERC721.sol\":9137:9144  tokenId */\n      dup4\n        /* \"@openzeppelin/contracts/token/ERC721/ERC721.sol\":9100:9120  _beforeTokenTransfer */\n      tag_189\n        /* \"@openzeppelin/contracts/token/ERC721/ERC721.sol\":9100:9145  _beforeTokenTransfer(address(0), to, tokenId) */\n      jump\t// in\n    tag_238:\n        /* \"@openzeppelin/contracts/token/ERC721/ERC721.sol\":9173:9174  1 */\n      0x01\n        /* \"@openzeppelin/contracts/token/ERC721/ERC721.sol\":9156:9165  _balances */\n      0x03\n        /* \"@openzeppelin/contracts/token/ERC721/ERC721.sol\":9156:9169  _balances[to] */\n      0x00\n        /* \"@openzeppelin/contracts/token/ERC721/ERC721.sol\":9166:9168  to */\n      dup5\n        /* \"@openzeppelin/contracts/token/ERC721/ERC721.sol\":9156:9169  _balances[to] */\n      0xffffffffffffffffffffffffffffffffffffffff\n      and\n      0xffffffffffffffffffffffffffffffffffffffff\n      and\n      dup2\n      mstore\n      0x20\n      add\n      swap1\n      dup2\n      mstore\n      0x20\n      add\n      0x00\n      keccak256\n      0x00\n        /* \"@openzeppelin/contracts/token/ERC721/ERC721.sol\":9156:9174  _balances[to] += 1 */\n      dup3\n      dup3\n      sload\n      tag_239\n      swap2\n      swap1\n      tag_194\n      jump\t// in\n    tag_239:\n      swap3\n      pop\n      pop\n      dup2\n      swap1\n      sstore\n      pop\n        /* \"@openzeppelin/contracts/token/ERC721/ERC721.sol\":9203:9205  to */\n      dup2\n        /* \"@openzeppelin/contracts/token/ERC721/ERC721.sol\":9184:9191  _owners */\n      0x02\n        /* \"@openzeppelin/contracts/token/ERC721/ERC721.sol\":9184:9200  _owners[tokenId] */\n      0x00\n        /* \"@openzeppelin/contracts/token/ERC721/ERC721.sol\":9192:9199  tokenId */\n      dup4\n        /* \"@openzeppelin/contracts/token/ERC721/ERC721.sol\":9184:9200  _owners[tokenId] */\n      dup2\n      mstore\n      0x20\n      add\n      swap1\n      dup2\n      mstore\n      0x20\n      add\n      0x00\n      keccak256\n      0x00\n        /* \"@openzeppelin/contracts/token/ERC721/ERC721.sol\":9184:9205  _owners[tokenId] = to */\n      0x0100\n      exp\n      dup2\n      sload\n      dup2\n      0xffffffffffffffffffffffffffffffffffffffff\n      mul\n      not\n      and\n      swap1\n      dup4\n      0xffffffffffffffffffffffffffffffffffffffff\n      and\n      mul\n      or\n      swap1\n      sstore\n      pop\n        /* \"@openzeppelin/contracts/token/ERC721/ERC721.sol\":9246:9253  tokenId */\n      dup1\n        /* \"@openzeppelin/contracts/token/ERC721/ERC721.sol\":9242:9244  to */\n      dup3\n        /* \"@openzeppelin/contracts/token/ERC721/ERC721.sol\":9221:9254  Transfer(address(0), to, tokenId) */\n      0xffffffffffffffffffffffffffffffffffffffff\n      and\n        /* \"@openzeppelin/contracts/token/ERC721/ERC721.sol\":9238:9239  0 */\n      0x00\n        /* \"@openzeppelin/contracts/token/ERC721/ERC721.sol\":9221:9254  Transfer(address(0), to, tokenId) */\n      0xffffffffffffffffffffffffffffffffffffffff\n      and\n      0xddf252ad1be2c89b69c2b068fc378daa952ba7f163c4a11628f55a4df523b3ef\n      mload(0x40)\n      mload(0x40)\n      dup1\n      swap2\n      sub\n      swap1\n      log4\n        /* \"@openzeppelin/contracts/token/ERC721/ERC721.sol\":9265:9309  _afterTokenTransfer(address(0), to, tokenId) */\n      tag_240\n        /* \"@openzeppelin/contracts/token/ERC721/ERC721.sol\":9293:9294  0 */\n      0x00\n        /* \"@openzeppelin/contracts/token/ERC721/ERC721.sol\":9297:9299  to */\n      dup4\n        /* \"@openzeppelin/contracts/token/ERC721/ERC721.sol\":9301:9308  tokenId */\n      dup4\n        /* \"@openzeppelin/contracts/token/ERC721/ERC721.sol\":9265:9284  _afterTokenTransfer */\n      tag_196\n        /* \"@openzeppelin/contracts/token/ERC721/ERC721.sol\":9265:9309  _afterTokenTransfer(address(0), to, tokenId) */\n      jump\t// in\n    tag_240:\n        /* \"@openzeppelin/contracts/token/ERC721/ERC721.sol\":8889:9316  function _mint(address to, uint256 tokenId) internal virtual {... */\n      pop\n      pop\n      jump\t// out\n        /* \"@openzeppelin/contracts/token/ERC721/ERC721.sol\":7055:7180  function _exists(uint256 tokenId) internal view virtual returns (bool) {... */\n    tag_168:\n        /* \"@openzeppelin/contracts/token/ERC721/ERC721.sol\":7120:7124  bool */\n      0x00\n        /* \"@openzeppelin/contracts/token/ERC721/ERC721.sol\":7171:7172  0 */\n      dup1\n        /* \"@openzeppelin/contracts/token/ERC721/ERC721.sol\":7143:7173  _owners[tokenId] != address(0) */\n      0xffffffffffffffffffffffffffffffffffffffff\n      and\n        /* \"@openzeppelin/contracts/token/ERC721/ERC721.sol\":7143:7150  _owners */\n      0x02\n        /* \"@openzeppelin/contracts/token/ERC721/ERC721.sol\":7143:7159  _owners[tokenId] */\n      0x00\n        /* \"@openzeppelin/contracts/token/ERC721/ERC721.sol\":7151:7158  tokenId */\n      dup5\n        /* \"@openzeppelin/contracts/token/ERC721/ERC721.sol\":7143:7159  _owners[tokenId] */\n      dup2\n      mstore\n      0x20\n      add\n      swap1\n      dup2\n      mstore\n      0x20\n      add\n      0x00\n      keccak256\n      0x00\n      swap1\n      sload\n      swap1\n      0x0100\n      exp\n      swap1\n      div\n      0xffffffffffffffffffffffffffffffffffffffff\n      and\n        /* \"@openzeppelin/contracts/token/ERC721/ERC721.sol\":7143:7173  _owners[tokenId] != address(0) */\n      0xffffffffffffffffffffffffffffffffffffffff\n      and\n      eq\n      iszero\n        /* \"@openzeppelin/contracts/token/ERC721/ERC721.sol\":7136:7173  return _owners[tokenId] != address(0) */\n      swap1\n      pop\n        /* \"@openzeppelin/contracts/token/ERC721/ERC721.sol\":7055:7180  function _exists(uint256 tokenId) internal view virtual returns (bool) {... */\n      swap2\n      swap1\n      pop\n      jump\t// out\n        /* \"@openzeppelin/contracts/token/ERC721/ERC721.sol\":13750:13872  function _beforeTokenTransfer(... */\n    tag_189:\n      pop\n      pop\n      pop\n      jump\t// out\n        /* \"@openzeppelin/contracts/token/ERC721/ERC721.sol\":14244:14365  function _afterTokenTransfer(... */\n    tag_196:\n      pop\n      pop\n      pop\n      jump\t// out\n        /* \"@openzeppelin/contracts/token/ERC721/ERC721.sol\":12363:13194  function _checkOnERC721Received(... */\n    tag_205:\n        /* \"@openzeppelin/contracts/token/ERC721/ERC721.sol\":12512:12516  bool */\n      0x00\n        /* \"@openzeppelin/contracts/token/ERC721/ERC721.sol\":12532:12547  to.isContract() */\n      tag_245\n        /* \"@openzeppelin/contracts/token/ERC721/ERC721.sol\":12532:12534  to */\n      dup5\n        /* \"@openzeppelin/contracts/token/ERC721/ERC721.sol\":12532:12545  to.isContract */\n      0xffffffffffffffffffffffffffffffffffffffff\n      and\n      tag_246\n        /* \"@openzeppelin/contracts/token/ERC721/ERC721.sol\":12532:12547  to.isContract() */\n      jump\t// in\n    tag_245:\n        /* \"@openzeppelin/contracts/token/ERC721/ERC721.sol\":12528:13188  if (to.isContract()) {... */\n      iszero\n      tag_247\n      jumpi\n        /* \"@openzeppelin/contracts/token/ERC721/ERC721.sol\":12583:12585  to */\n      dup4\n        /* \"@openzeppelin/contracts/token/ERC721/ERC721.sol\":12567:12603  IERC721Receiver(to).onERC721Received */\n      0xffffffffffffffffffffffffffffffffffffffff\n      and\n      0x150b7a02\n        /* \"@openzeppelin/contracts/token/ERC721/ERC721.sol\":12604:12616  _msgSender() */\n      tag_248\n        /* \"@openzeppelin/contracts/token/ERC721/ERC721.sol\":12604:12614  _msgSender */\n      tag_102\n        /* \"@openzeppelin/contracts/token/ERC721/ERC721.sol\":12604:12616  _msgSender() */\n      jump\t// in\n    tag_248:\n        /* \"@openzeppelin/contracts/token/ERC721/ERC721.sol\":12618:12622  from */\n      dup8\n        /* \"@openzeppelin/contracts/token/ERC721/ERC721.sol\":12624:12631  tokenId */\n      dup7\n        /* \"@openzeppelin/contracts/token/ERC721/ERC721.sol\":12633:12637  data */\n      dup7\n        /* \"@openzeppelin/contracts/token/ERC721/ERC721.sol\":12567:12638  IERC721Receiver(to).onERC721Received(_msgSender(), from, tokenId, data) */\n      mload(0x40)\n      dup6\n      0xffffffff\n      and\n      0xe0\n      shl\n      dup2\n      mstore\n      0x04\n      add\n      tag_249\n      swap5\n      swap4\n      swap3\n      swap2\n      swap1\n      tag_250\n      jump\t// in\n    tag_249:\n      0x20\n      mload(0x40)\n      dup1\n      dup4\n      sub\n      dup2\n      0x00\n      dup8\n      dup1\n      extcodesize\n      iszero\n      dup1\n      iszero\n      tag_251\n      jumpi\n      0x00\n      dup1\n      revert\n    tag_251:\n      pop\n      gas\n      call\n      swap3\n      pop\n      pop\n      pop\n      dup1\n      iszero\n      tag_252\n      jumpi\n      pop\n      mload(0x40)\n      returndatasize\n      not(0x1f)\n      0x1f\n      dup3\n      add\n      and\n      dup3\n      add\n      dup1\n      0x40\n      mstore\n      pop\n      dup2\n      add\n      swap1\n      tag_253\n      swap2\n      swap1\n      tag_254\n      jump\t// in\n    tag_253:\n      0x01\n    tag_252:\n        /* \"@openzeppelin/contracts/token/ERC721/ERC721.sol\":12563:13136  try IERC721Receiver(to).onERC721Received(_msgSender(), from, tokenId, data) returns (bytes4 retval) {... */\n      tag_255\n      jumpi\n      returndatasize\n      dup1\n      0x00\n      dup2\n      eq\n      tag_260\n      jumpi\n      mload(0x40)\n      swap2\n      pop\n      and(add(returndatasize, 0x3f), not(0x1f))\n      dup3\n      add\n      0x40\n      mstore\n      returndatasize\n      dup3\n      mstore\n      returndatasize\n      0x00\n      0x20\n      dup5\n      add\n      returndatacopy\n      jump(tag_259)\n    tag_260:\n      0x60\n      swap2\n      pop\n    tag_259:\n      pop\n        /* \"@openzeppelin/contracts/token/ERC721/ERC721.sol\":12822:12823  0 */\n      0x00\n        /* \"@openzeppelin/contracts/token/ERC721/ERC721.sol\":12805:12811  reason */\n      dup2\n        /* \"@openzeppelin/contracts/token/ERC721/ERC721.sol\":12805:12818  reason.length */\n      mload\n        /* \"@openzeppelin/contracts/token/ERC721/ERC721.sol\":12805:12823  reason.length == 0 */\n      eq\n        /* \"@openzeppelin/contracts/token/ERC721/ERC721.sol\":12801:13122  if (reason.length == 0) {... */\n      iszero\n      tag_261\n      jumpi\n        /* \"@openzeppelin/contracts/token/ERC721/ERC721.sol\":12847:12907  revert(\"ERC721: transfer to non ERC721Receiver implementer\") */\n      mload(0x40)\n      0x08c379a000000000000000000000000000000000000000000000000000000000\n      dup2\n      mstore\n      0x04\n      add\n      tag_262\n      swap1\n      tag_208\n      jump\t// in\n    tag_262:\n      mload(0x40)\n      dup1\n      swap2\n      sub\n      swap1\n      revert\n        /* \"@openzeppelin/contracts/token/ERC721/ERC721.sol\":12801:13122  if (reason.length == 0) {... */\n    tag_261:\n        /* \"@openzeppelin/contracts/token/ERC721/ERC721.sol\":13074:13080  reason */\n      dup1\n        /* \"@openzeppelin/contracts/token/ERC721/ERC721.sol\":13068:13081  mload(reason) */\n      mload\n        /* \"@openzeppelin/contracts/token/ERC721/ERC721.sol\":13059:13065  reason */\n      dup2\n        /* \"@openzeppelin/contracts/token/ERC721/ERC721.sol\":13055:13057  32 */\n      0x20\n        /* \"@openzeppelin/contracts/token/ERC721/ERC721.sol\":13051:13066  add(32, reason) */\n      add\n        /* \"@openzeppelin/contracts/token/ERC721/ERC721.sol\":13044:13082  revert(add(32, reason), mload(reason)) */\n      revert\n        /* \"@openzeppelin/contracts/token/ERC721/ERC721.sol\":12563:13136  try IERC721Receiver(to).onERC721Received(_msgSender(), from, tokenId, data) returns (bytes4 retval) {... */\n    tag_255:\n        /* \"@openzeppelin/contracts/token/ERC721/ERC721.sol\":12698:12739  IERC721Receiver.onERC721Received.selector */\n      shl(0xe0, 0x150b7a02)\n        /* \"@openzeppelin/contracts/token/ERC721/ERC721.sol\":12688:12739  retval == IERC721Receiver.onERC721Received.selector */\n      not(0xffffffffffffffffffffffffffffffffffffffffffffffffffffffff)\n      and\n        /* \"@openzeppelin/contracts/token/ERC721/ERC721.sol\":12688:12694  retval */\n      dup2\n        /* \"@openzeppelin/contracts/token/ERC721/ERC721.sol\":12688:12739  retval == IERC721Receiver.onERC721Received.selector */\n      not(0xffffffffffffffffffffffffffffffffffffffffffffffffffffffff)\n      and\n      eq\n        /* \"@openzeppelin/contracts/token/ERC721/ERC721.sol\":12681:12739  return retval == IERC721Receiver.onERC721Received.selector */\n      swap2\n      pop\n      pop\n      jump(tag_244)\n        /* \"@openzeppelin/contracts/token/ERC721/ERC721.sol\":12528:13188  if (to.isContract()) {... */\n    tag_247:\n        /* \"@openzeppelin/contracts/token/ERC721/ERC721.sol\":13173:13177  true */\n      0x01\n        /* \"@openzeppelin/contracts/token/ERC721/ERC721.sol\":13166:13177  return true */\n      swap1\n      pop\n        /* \"@openzeppelin/contracts/token/ERC721/ERC721.sol\":12363:13194  function _checkOnERC721Received(... */\n    tag_244:\n      swap5\n      swap4\n      pop\n      pop\n      pop\n      pop\n      jump\t// out\n        /* \"@openzeppelin/contracts/utils/Address.sol\":1175:1495  function isContract(address account) internal view returns (bool) {... */\n    tag_246:\n        /* \"@openzeppelin/contracts/utils/Address.sol\":1235:1239  bool */\n      0x00\n        /* \"@openzeppelin/contracts/utils/Address.sol\":1487:1488  0 */\n      dup1\n        /* \"@openzeppelin/contracts/utils/Address.sol\":1465:1472  account */\n      dup3\n        /* \"@openzeppelin/contracts/utils/Address.sol\":1465:1484  account.code.length */\n      0xffffffffffffffffffffffffffffffffffffffff\n      and\n      extcodesize\n        /* \"@openzeppelin/contracts/utils/Address.sol\":1465:1488  account.code.length > 0 */\n      gt\n        /* \"@openzeppelin/contracts/utils/Address.sol\":1458:1488  return account.code.length > 0 */\n      swap1\n      pop\n        /* \"@openzeppelin/contracts/utils/Address.sol\":1175:1495  function isContract(address account) internal view returns (bool) {... */\n      swap2\n      swap1\n      pop\n      jump\t// out\n        /* \"#utility.yul\":7:350   */\n    tag_268:\n      0x00\n        /* \"#utility.yul\":109:174   */\n      tag_270\n        /* \"#utility.yul\":125:173   */\n      tag_271\n        /* \"#utility.yul\":166:172   */\n      dup5\n        /* \"#utility.yul\":125:173   */\n      tag_272\n      jump\t// in\n    tag_271:\n        /* \"#utility.yul\":109:174   */\n      tag_273\n      jump\t// in\n    tag_270:\n        /* \"#utility.yul\":100:174   */\n      swap1\n      pop\n        /* \"#utility.yul\":197:203   */\n      dup3\n        /* \"#utility.yul\":190:195   */\n      dup2\n        /* \"#utility.yul\":183:204   */\n      mstore\n        /* \"#utility.yul\":235:239   */\n      0x20\n        /* \"#utility.yul\":228:233   */\n      dup2\n        /* \"#utility.yul\":224:240   */\n      add\n        /* \"#utility.yul\":273:276   */\n      dup5\n        /* \"#utility.yul\":264:270   */\n      dup5\n        /* \"#utility.yul\":259:262   */\n      dup5\n        /* \"#utility.yul\":255:271   */\n      add\n        /* \"#utility.yul\":252:277   */\n      gt\n        /* \"#utility.yul\":249:251   */\n      iszero\n      tag_274\n      jumpi\n        /* \"#utility.yul\":290:291   */\n      0x00\n        /* \"#utility.yul\":287:288   */\n      dup1\n        /* \"#utility.yul\":280:292   */\n      revert\n        /* \"#utility.yul\":249:251   */\n    tag_274:\n        /* \"#utility.yul\":303:344   */\n      tag_275\n        /* \"#utility.yul\":337:343   */\n      dup5\n        /* \"#utility.yul\":332:335   */\n      dup3\n        /* \"#utility.yul\":327:330   */\n      dup6\n        /* \"#utility.yul\":303:344   */\n      tag_276\n      jump\t// in\n    tag_275:\n        /* \"#utility.yul\":90:350   */\n      pop\n      swap4\n      swap3\n      pop\n      pop\n      pop\n      jump\t// out\n        /* \"#utility.yul\":356:495   */\n    tag_277:\n      0x00\n        /* \"#utility.yul\":440:446   */\n      dup2\n        /* \"#utility.yul\":427:447   */\n      calldataload\n        /* \"#utility.yul\":418:447   */\n      swap1\n      pop\n        /* \"#utility.yul\":456:489   */\n      tag_279\n        /* \"#utility.yul\":483:488   */\n      dup2\n        /* \"#utility.yul\":456:489   */\n      tag_280\n      jump\t// in\n    tag_279:\n        /* \"#utility.yul\":408:495   */\n      swap3\n      swap2\n      pop\n      pop\n      jump\t// out\n        /* \"#utility.yul\":501:634   */\n    tag_281:\n      0x00\n        /* \"#utility.yul\":582:588   */\n      dup2\n        /* \"#utility.yul\":569:589   */\n      calldataload\n        /* \"#utility.yul\":560:589   */\n      swap1\n      pop\n        /* \"#utility.yul\":598:628   */\n      tag_283\n        /* \"#utility.yul\":622:627   */\n      dup2\n        /* \"#utility.yul\":598:628   */\n      tag_284\n      jump\t// in\n    tag_283:\n        /* \"#utility.yul\":550:634   */\n      swap3\n      swap2\n      pop\n      pop\n      jump\t// out\n        /* \"#utility.yul\":640:777   */\n    tag_285:\n      0x00\n        /* \"#utility.yul\":723:729   */\n      dup2\n        /* \"#utility.yul\":710:730   */\n      calldataload\n        /* \"#utility.yul\":701:730   */\n      swap1\n      pop\n        /* \"#utility.yul\":739:771   */\n      tag_287\n        /* \"#utility.yul\":765:770   */\n      dup2\n        /* \"#utility.yul\":739:771   */\n      tag_288\n      jump\t// in\n    tag_287:\n        /* \"#utility.yul\":691:777   */\n      swap3\n      swap2\n      pop\n      pop\n      jump\t// out\n        /* \"#utility.yul\":783:924   */\n    tag_289:\n      0x00\n        /* \"#utility.yul\":870:876   */\n      dup2\n        /* \"#utility.yul\":864:877   */\n      mload\n        /* \"#utility.yul\":855:877   */\n      swap1\n      pop\n        /* \"#utility.yul\":886:918   */\n      tag_291\n        /* \"#utility.yul\":912:917   */\n      dup2\n        /* \"#utility.yul\":886:918   */\n      tag_288\n      jump\t// in\n    tag_291:\n        /* \"#utility.yul\":845:924   */\n      swap3\n      swap2\n      pop\n      pop\n      jump\t// out\n        /* \"#utility.yul\":943:1214   */\n    tag_292:\n      0x00\n        /* \"#utility.yul\":1047:1050   */\n      dup3\n        /* \"#utility.yul\":1040:1044   */\n      0x1f\n        /* \"#utility.yul\":1032:1038   */\n      dup4\n        /* \"#utility.yul\":1028:1045   */\n      add\n        /* \"#utility.yul\":1024:1051   */\n      slt\n        /* \"#utility.yul\":1014:1016   */\n      tag_294\n      jumpi\n        /* \"#utility.yul\":1065:1066   */\n      0x00\n        /* \"#utility.yul\":1062:1063   */\n      dup1\n        /* \"#utility.yul\":1055:1067   */\n      revert\n        /* \"#utility.yul\":1014:1016   */\n    tag_294:\n        /* \"#utility.yul\":1105:1111   */\n      dup2\n        /* \"#utility.yul\":1092:1112   */\n      calldataload\n        /* \"#utility.yul\":1130:1208   */\n      tag_295\n        /* \"#utility.yul\":1204:1207   */\n      dup5\n        /* \"#utility.yul\":1196:1202   */\n      dup3\n        /* \"#utility.yul\":1189:1193   */\n      0x20\n        /* \"#utility.yul\":1181:1187   */\n      dup7\n        /* \"#utility.yul\":1177:1194   */\n      add\n        /* \"#utility.yul\":1130:1208   */\n      tag_268\n      jump\t// in\n    tag_295:\n        /* \"#utility.yul\":1121:1208   */\n      swap2\n      pop\n        /* \"#utility.yul\":1004:1214   */\n      pop\n      swap3\n      swap2\n      pop\n      pop\n      jump\t// out\n        /* \"#utility.yul\":1220:1359   */\n    tag_296:\n      0x00\n        /* \"#utility.yul\":1304:1310   */\n      dup2\n        /* \"#utility.yul\":1291:1311   */\n      calldataload\n        /* \"#utility.yul\":1282:1311   */\n      swap1\n      pop\n        /* \"#utility.yul\":1320:1353   */\n      tag_298\n        /* \"#utility.yul\":1347:1352   */\n      dup2\n        /* \"#utility.yul\":1320:1353   */\n      tag_299\n      jump\t// in\n    tag_298:\n        /* \"#utility.yul\":1272:1359   */\n      swap3\n      swap2\n      pop\n      pop\n      jump\t// out\n        /* \"#utility.yul\":1365:1627   */\n    tag_53:\n      0x00\n        /* \"#utility.yul\":1473:1475   */\n      0x20\n        /* \"#utility.yul\":1461:1470   */\n      dup3\n        /* \"#utility.yul\":1452:1459   */\n      dup5\n        /* \"#utility.yul\":1448:1471   */\n      sub\n        /* \"#utility.yul\":1444:1476   */\n      slt\n        /* \"#utility.yul\":1441:1443   */\n      iszero\n      tag_301\n      jumpi\n        /* \"#utility.yul\":1489:1490   */\n      0x00\n        /* \"#utility.yul\":1486:1487   */\n      dup1\n        /* \"#utility.yul\":1479:1491   */\n      revert\n        /* \"#utility.yul\":1441:1443   */\n    tag_301:\n        /* \"#utility.yul\":1532:1533   */\n      0x00\n        /* \"#utility.yul\":1557:1610   */\n      tag_302\n        /* \"#utility.yul\":1602:1609   */\n      dup5\n        /* \"#utility.yul\":1593:1599   */\n      dup3\n        /* \"#utility.yul\":1582:1591   */\n      dup6\n        /* \"#utility.yul\":1578:1600   */\n      add\n        /* \"#utility.yul\":1557:1610   */\n      tag_277\n      jump\t// in\n    tag_302:\n        /* \"#utility.yul\":1547:1610   */\n      swap2\n      pop\n        /* \"#utility.yul\":1503:1620   */\n      pop\n        /* \"#utility.yul\":1431:1627   */\n      swap3\n      swap2\n      pop\n      pop\n      jump\t// out\n        /* \"#utility.yul\":1633:2040   */\n    tag_74:\n      0x00\n      dup1\n        /* \"#utility.yul\":1758:1760   */\n      0x40\n        /* \"#utility.yul\":1746:1755   */\n      dup4\n        /* \"#utility.yul\":1737:1744   */\n      dup6\n        /* \"#utility.yul\":1733:1756   */\n      sub\n        /* \"#utility.yul\":1729:1761   */\n      slt\n        /* \"#utility.yul\":1726:1728   */\n      iszero\n      tag_304\n      jumpi\n        /* \"#utility.yul\":1774:1775   */\n      0x00\n        /* \"#utility.yul\":1771:1772   */\n      dup1\n        /* \"#utility.yul\":1764:1776   */\n      revert\n        /* \"#utility.yul\":1726:1728   */\n    tag_304:\n        /* \"#utility.yul\":1817:1818   */\n      0x00\n        /* \"#utility.yul\":1842:1895   */\n      tag_305\n        /* \"#utility.yul\":1887:1894   */\n      dup6\n        /* \"#utility.yul\":1878:1884   */\n      dup3\n        /* \"#utility.yul\":1867:1876   */\n      dup7\n        /* \"#utility.yul\":1863:1885   */\n      add\n        /* \"#utility.yul\":1842:1895   */\n      tag_277\n      jump\t// in\n    tag_305:\n        /* \"#utility.yul\":1832:1895   */\n      swap3\n      pop\n        /* \"#utility.yul\":1788:1905   */\n      pop\n        /* \"#utility.yul\":1944:1946   */\n      0x20\n        /* \"#utility.yul\":1970:2023   */\n      tag_306\n        /* \"#utility.yul\":2015:2022   */\n      dup6\n        /* \"#utility.yul\":2006:2012   */\n      dup3\n        /* \"#utility.yul\":1995:2004   */\n      dup7\n        /* \"#utility.yul\":1991:2013   */\n      add\n        /* \"#utility.yul\":1970:2023   */\n      tag_277\n      jump\t// in\n    tag_306:\n        /* \"#utility.yul\":1960:2023   */\n      swap2\n      pop\n        /* \"#utility.yul\":1915:2033   */\n      pop\n        /* \"#utility.yul\":1716:2040   */\n      swap3\n      pop\n      swap3\n      swap1\n      pop\n      jump\t// out\n        /* \"#utility.yul\":2046:2598   */\n    tag_42:\n      0x00\n      dup1\n      0x00\n        /* \"#utility.yul\":2188:2190   */\n      0x60\n        /* \"#utility.yul\":2176:2185   */\n      dup5\n        /* \"#utility.yul\":2167:2174   */\n      dup7\n        /* \"#utility.yul\":2163:2186   */\n      sub\n        /* \"#utility.yul\":2159:2191   */\n      slt\n        /* \"#utility.yul\":2156:2158   */\n      iszero\n      tag_308\n      jumpi\n        /* \"#utility.yul\":2204:2205   */\n      0x00\n        /* \"#utility.yul\":2201:2202   */\n      dup1\n        /* \"#utility.yul\":2194:2206   */\n      revert\n        /* \"#utility.yul\":2156:2158   */\n    tag_308:\n        /* \"#utility.yul\":2247:2248   */\n      0x00\n        /* \"#utility.yul\":2272:2325   */\n      tag_309\n        /* \"#utility.yul\":2317:2324   */\n      dup7\n        /* \"#utility.yul\":2308:2314   */\n      dup3\n        /* \"#utility.yul\":2297:2306   */\n      dup8\n        /* \"#utility.yul\":2293:2315   */\n      add\n        /* \"#utility.yul\":2272:2325   */\n      tag_277\n      jump\t// in\n    tag_309:\n        /* \"#utility.yul\":2262:2325   */\n      swap4\n      pop\n        /* \"#utility.yul\":2218:2335   */\n      pop\n        /* \"#utility.yul\":2374:2376   */\n      0x20\n        /* \"#utility.yul\":2400:2453   */\n      tag_310\n        /* \"#utility.yul\":2445:2452   */\n      dup7\n        /* \"#utility.yul\":2436:2442   */\n      dup3\n        /* \"#utility.yul\":2425:2434   */\n      dup8\n        /* \"#utility.yul\":2421:2443   */\n      add\n        /* \"#utility.yul\":2400:2453   */\n      tag_277\n      jump\t// in\n    tag_310:\n        /* \"#utility.yul\":2390:2453   */\n      swap3\n      pop\n        /* \"#utility.yul\":2345:2463   */\n      pop\n        /* \"#utility.yul\":2502:2504   */\n      0x40\n        /* \"#utility.yul\":2528:2581   */\n      tag_311\n        /* \"#utility.yul\":2573:2580   */\n      dup7\n        /* \"#utility.yul\":2564:2570   */\n      dup3\n        /* \"#utility.yul\":2553:2562   */\n      dup8\n        /* \"#utility.yul\":2549:2571   */\n      add\n        /* \"#utility.yul\":2528:2581   */\n      tag_296\n      jump\t// in\n    tag_311:\n        /* \"#utility.yul\":2518:2581   */\n      swap2\n      pop\n        /* \"#utility.yul\":2473:2591   */\n      pop\n        /* \"#utility.yul\":2146:2598   */\n      swap3\n      pop\n      swap3\n      pop\n      swap3\n      jump\t// out\n        /* \"#utility.yul\":2604:3413   */\n    tag_66:\n      0x00\n      dup1\n      0x00\n      dup1\n        /* \"#utility.yul\":2772:2775   */\n      0x80\n        /* \"#utility.yul\":2760:2769   */\n      dup6\n        /* \"#utility.yul\":2751:2758   */\n      dup8\n        /* \"#utility.yul\":2747:2770   */\n      sub\n        /* \"#utility.yul\":2743:2776   */\n      slt\n        /* \"#utility.yul\":2740:2742   */\n      iszero\n      tag_313\n      jumpi\n        /* \"#utility.yul\":2789:2790   */\n      0x00\n        /* \"#utility.yul\":2786:2787   */\n      dup1\n        /* \"#utility.yul\":2779:2791   */\n      revert\n        /* \"#utility.yul\":2740:2742   */\n    tag_313:\n        /* \"#utility.yul\":2832:2833   */\n      0x00\n        /* \"#utility.yul\":2857:2910   */\n      tag_314\n        /* \"#utility.yul\":2902:2909   */\n      dup8\n        /* \"#utility.yul\":2893:2899   */\n      dup3\n        /* \"#utility.yul\":2882:2891   */\n      dup9\n        /* \"#utility.yul\":2878:2900   */\n      add\n        /* \"#utility.yul\":2857:2910   */\n      tag_277\n      jump\t// in\n    tag_314:\n        /* \"#utility.yul\":2847:2910   */\n      swap5\n      pop\n        /* \"#utility.yul\":2803:2920   */\n      pop\n        /* \"#utility.yul\":2959:2961   */\n      0x20\n        /* \"#utility.yul\":2985:3038   */\n      tag_315\n        /* \"#utility.yul\":3030:3037   */\n      dup8\n        /* \"#utility.yul\":3021:3027   */\n      dup3\n        /* \"#utility.yul\":3010:3019   */\n      dup9\n        /* \"#utility.yul\":3006:3028   */\n      add\n        /* \"#utility.yul\":2985:3038   */\n      tag_277\n      jump\t// in\n    tag_315:\n        /* \"#utility.yul\":2975:3038   */\n      swap4\n      pop\n        /* \"#utility.yul\":2930:3048   */\n      pop\n        /* \"#utility.yul\":3087:3089   */\n      0x40\n        /* \"#utility.yul\":3113:3166   */\n      tag_316\n        /* \"#utility.yul\":3158:3165   */\n      dup8\n        /* \"#utility.yul\":3149:3155   */\n      dup3\n        /* \"#utility.yul\":3138:3147   */\n      dup9\n        /* \"#utility.yul\":3134:3156   */\n      add\n        /* \"#utility.yul\":3113:3166   */\n      tag_296\n      jump\t// in\n    tag_316:\n        /* \"#utility.yul\":3103:3166   */\n      swap3\n      pop\n        /* \"#utility.yul\":3058:3176   */\n      pop\n        /* \"#utility.yul\":3243:3245   */\n      0x60\n        /* \"#utility.yul\":3232:3241   */\n      dup6\n        /* \"#utility.yul\":3228:3246   */\n      add\n        /* \"#utility.yul\":3215:3247   */\n      calldataload\n        /* \"#utility.yul\":3274:3292   */\n      0xffffffffffffffff\n        /* \"#utility.yul\":3266:3272   */\n      dup2\n        /* \"#utility.yul\":3263:3293   */\n      gt\n        /* \"#utility.yul\":3260:3262   */\n      iszero\n      tag_317\n      jumpi\n        /* \"#utility.yul\":3306:3307   */\n      0x00\n        /* \"#utility.yul\":3303:3304   */\n      dup1\n        /* \"#utility.yul\":3296:3308   */\n      revert\n        /* \"#utility.yul\":3260:3262   */\n    tag_317:\n        /* \"#utility.yul\":3334:3396   */\n      tag_318\n        /* \"#utility.yul\":3388:3395   */\n      dup8\n        /* \"#utility.yul\":3379:3385   */\n      dup3\n        /* \"#utility.yul\":3368:3377   */\n      dup9\n        /* \"#utility.yul\":3364:3386   */\n      add\n        /* \"#utility.yul\":3334:3396   */\n      tag_292\n      jump\t// in\n    tag_318:\n        /* \"#utility.yul\":3324:3396   */\n      swap2\n      pop\n        /* \"#utility.yul\":3186:3406   */\n      pop\n        /* \"#utility.yul\":2730:3413   */\n      swap3\n      swap6\n      swap2\n      swap5\n      pop\n      swap3\n      pop\n      jump\t// out\n        /* \"#utility.yul\":3419:3820   */\n    tag_62:\n      0x00\n      dup1\n        /* \"#utility.yul\":3541:3543   */\n      0x40\n        /* \"#utility.yul\":3529:3538   */\n      dup4\n        /* \"#utility.yul\":3520:3527   */\n      dup6\n        /* \"#utility.yul\":3516:3539   */\n      sub\n        /* \"#utility.yul\":3512:3544   */\n      slt\n        /* \"#utility.yul\":3509:3511   */\n      iszero\n      tag_320\n      jumpi\n        /* \"#utility.yul\":3557:3558   */\n      0x00\n        /* \"#utility.yul\":3554:3555   */\n      dup1\n        /* \"#utility.yul\":3547:3559   */\n      revert\n        /* \"#utility.yul\":3509:3511   */\n    tag_320:\n        /* \"#utility.yul\":3600:3601   */\n      0x00\n        /* \"#utility.yul\":3625:3678   */\n      tag_321\n        /* \"#utility.yul\":3670:3677   */\n      dup6\n        /* \"#utility.yul\":3661:3667   */\n      dup3\n        /* \"#utility.yul\":3650:3659   */\n      dup7\n        /* \"#utility.yul\":3646:3668   */\n      add\n        /* \"#utility.yul\":3625:3678   */\n      tag_277\n      jump\t// in\n    tag_321:\n        /* \"#utility.yul\":3615:3678   */\n      swap3\n      pop\n        /* \"#utility.yul\":3571:3688   */\n      pop\n        /* \"#utility.yul\":3727:3729   */\n      0x20\n        /* \"#utility.yul\":3753:3803   */\n      tag_322\n        /* \"#utility.yul\":3795:3802   */\n      dup6\n        /* \"#utility.yul\":3786:3792   */\n      dup3\n        /* \"#utility.yul\":3775:3784   */\n      dup7\n        /* \"#utility.yul\":3771:3793   */\n      add\n        /* \"#utility.yul\":3753:3803   */\n      tag_281\n      jump\t// in\n    tag_322:\n        /* \"#utility.yul\":3743:3803   */\n      swap2\n      pop\n        /* \"#utility.yul\":3698:3813   */\n      pop\n        /* \"#utility.yul\":3499:3820   */\n      swap3\n      pop\n      swap3\n      swap1\n      pop\n      jump\t// out\n        /* \"#utility.yul\":3826:4233   */\n    tag_38:\n      0x00\n      dup1\n        /* \"#utility.yul\":3951:3953   */\n      0x40\n        /* \"#utility.yul\":3939:3948   */\n      dup4\n        /* \"#utility.yul\":3930:3937   */\n      dup6\n        /* \"#utility.yul\":3926:3949   */\n      sub\n        /* \"#utility.yul\":3922:3954   */\n      slt\n        /* \"#utility.yul\":3919:3921   */\n      iszero\n      tag_324\n      jumpi\n        /* \"#utility.yul\":3967:3968   */\n      0x00\n        /* \"#utility.yul\":3964:3965   */\n      dup1\n        /* \"#utility.yul\":3957:3969   */\n      revert\n        /* \"#utility.yul\":3919:3921   */\n    tag_324:\n        /* \"#utility.yul\":4010:4011   */\n      0x00\n        /* \"#utility.yul\":4035:4088   */\n      tag_325\n        /* \"#utility.yul\":4080:4087   */\n      dup6\n        /* \"#utility.yul\":4071:4077   */\n      dup3\n        /* \"#utility.yul\":4060:4069   */\n      dup7\n        /* \"#utility.yul\":4056:4078   */\n      add\n        /* \"#utility.yul\":4035:4088   */\n      tag_277\n      jump\t// in\n    tag_325:\n        /* \"#utility.yul\":4025:4088   */\n      swap3\n      pop\n        /* \"#utility.yul\":3981:4098   */\n      pop\n        /* \"#utility.yul\":4137:4139   */\n      0x20\n        /* \"#utility.yul\":4163:4216   */\n      tag_326\n        /* \"#utility.yul\":4208:4215   */\n      dup6\n        /* \"#utility.yul\":4199:4205   */\n      dup3\n        /* \"#utility.yul\":4188:4197   */\n      dup7\n        /* \"#utility.yul\":4184:4206   */\n      add\n        /* \"#utility.yul\":4163:4216   */\n      tag_296\n      jump\t// in\n    tag_326:\n        /* \"#utility.yul\":4153:4216   */\n      swap2\n      pop\n        /* \"#utility.yul\":4108:4226   */\n      pop\n        /* \"#utility.yul\":3909:4233   */\n      swap3\n      pop\n      swap3\n      swap1\n      pop\n      jump\t// out\n        /* \"#utility.yul\":4239:4499   */\n    tag_22:\n      0x00\n        /* \"#utility.yul\":4346:4348   */\n      0x20\n        /* \"#utility.yul\":4334:4343   */\n      dup3\n        /* \"#utility.yul\":4325:4332   */\n      dup5\n        /* \"#utility.yul\":4321:4344   */\n      sub\n        /* \"#utility.yul\":4317:4349   */\n      slt\n        /* \"#utility.yul\":4314:4316   */\n      iszero\n      tag_328\n      jumpi\n        /* \"#utility.yul\":4362:4363   */\n      0x00\n        /* \"#utility.yul\":4359:4360   */\n      dup1\n        /* \"#utility.yul\":4352:4364   */\n      revert\n        /* \"#utility.yul\":4314:4316   */\n    tag_328:\n        /* \"#utility.yul\":4405:4406   */\n      0x00\n        /* \"#utility.yul\":4430:4482   */\n      tag_329\n        /* \"#utility.yul\":4474:4481   */\n      dup5\n        /* \"#utility.yul\":4465:4471   */\n      dup3\n        /* \"#utility.yul\":4454:4463   */\n      dup6\n        /* \"#utility.yul\":4450:4472   */\n      add\n        /* \"#utility.yul\":4430:4482   */\n      tag_285\n      jump\t// in\n    tag_329:\n        /* \"#utility.yul\":4420:4482   */\n      swap2\n      pop\n        /* \"#utility.yul\":4376:4492   */\n      pop\n        /* \"#utility.yul\":4304:4499   */\n      swap3\n      swap2\n      pop\n      pop\n      jump\t// out\n        /* \"#utility.yul\":4505:4787   */\n    tag_254:\n      0x00\n        /* \"#utility.yul\":4623:4625   */\n      0x20\n        /* \"#utility.yul\":4611:4620   */\n      dup3\n        /* \"#utility.yul\":4602:4609   */\n      dup5\n        /* \"#utility.yul\":4598:4621   */\n      sub\n        /* \"#utility.yul\":4594:4626   */\n      slt\n        /* \"#utility.yul\":4591:4593   */\n      iszero\n      tag_331\n      jumpi\n        /* \"#utility.yul\":4639:4640   */\n      0x00\n        /* \"#utility.yul\":4636:4637   */\n      dup1\n        /* \"#utility.yul\":4629:4641   */\n      revert\n        /* \"#utility.yul\":4591:4593   */\n    tag_331:\n        /* \"#utility.yul\":4682:4683   */\n      0x00\n        /* \"#utility.yul\":4707:4770   */\n      tag_332\n        /* \"#utility.yul\":4762:4769   */\n      dup5\n        /* \"#utility.yul\":4753:4759   */\n      dup3\n        /* \"#utility.yul\":4742:4751   */\n      dup6\n        /* \"#utility.yul\":4738:4760   */\n      add\n        /* \"#utility.yul\":4707:4770   */\n      tag_289\n      jump\t// in\n    tag_332:\n        /* \"#utility.yul\":4697:4770   */\n      swap2\n      pop\n        /* \"#utility.yul\":4653:4780   */\n      pop\n        /* \"#utility.yul\":4581:4787   */\n      swap3\n      swap2\n      pop\n      pop\n      jump\t// out\n        /* \"#utility.yul\":4793:5055   */\n    tag_32:\n      0x00\n        /* \"#utility.yul\":4901:4903   */\n      0x20\n        /* \"#utility.yul\":4889:4898   */\n      dup3\n        /* \"#utility.yul\":4880:4887   */\n      dup5\n        /* \"#utility.yul\":4876:4899   */\n      sub\n        /* \"#utility.yul\":4872:4904   */\n      slt\n        /* \"#utility.yul\":4869:4871   */\n      iszero\n      tag_334\n      jumpi\n        /* \"#utility.yul\":4917:4918   */\n      0x00\n        /* \"#utility.yul\":4914:4915   */\n      dup1\n        /* \"#utility.yul\":4907:4919   */\n      revert\n        /* \"#utility.yul\":4869:4871   */\n    tag_334:\n        /* \"#utility.yul\":4960:4961   */\n      0x00\n        /* \"#utility.yul\":4985:5038   */\n      tag_335\n        /* \"#utility.yul\":5030:5037   */\n      dup5\n        /* \"#utility.yul\":5021:5027   */\n      dup3\n        /* \"#utility.yul\":5010:5019   */\n      dup6\n        /* \"#utility.yul\":5006:5028   */\n      add\n        /* \"#utility.yul\":4985:5038   */\n      tag_296\n      jump\t// in\n    tag_335:\n        /* \"#utility.yul\":4975:5038   */\n      swap2\n      pop\n        /* \"#utility.yul\":4931:5048   */\n      pop\n        /* \"#utility.yul\":4859:5055   */\n      swap3\n      swap2\n      pop\n      pop\n      jump\t// out\n        /* \"#utility.yul\":5061:5179   */\n    tag_336:\n        /* \"#utility.yul\":5148:5172   */\n      tag_338\n        /* \"#utility.yul\":5166:5171   */\n      dup2\n        /* \"#utility.yul\":5148:5172   */\n      tag_339\n      jump\t// in\n    tag_338:\n        /* \"#utility.yul\":5143:5146   */\n      dup3\n        /* \"#utility.yul\":5136:5173   */\n      mstore\n        /* \"#utility.yul\":5126:5179   */\n      pop\n      pop\n      jump\t// out\n        /* \"#utility.yul\":5185:5294   */\n    tag_340:\n        /* \"#utility.yul\":5266:5287   */\n      tag_342\n        /* \"#utility.yul\":5281:5286   */\n      dup2\n        /* \"#utility.yul\":5266:5287   */\n      tag_343\n      jump\t// in\n    tag_342:\n        /* \"#utility.yul\":5261:5264   */\n      dup3\n        /* \"#utility.yul\":5254:5288   */\n      mstore\n        /* \"#utility.yul\":5244:5294   */\n      pop\n      pop\n      jump\t// out\n        /* \"#utility.yul\":5300:5660   */\n    tag_344:\n      0x00\n        /* \"#utility.yul\":5414:5452   */\n      tag_346\n        /* \"#utility.yul\":5446:5451   */\n      dup3\n        /* \"#utility.yul\":5414:5452   */\n      tag_347\n      jump\t// in\n    tag_346:\n        /* \"#utility.yul\":5468:5538   */\n      tag_348\n        /* \"#utility.yul\":5531:5537   */\n      dup2\n        /* \"#utility.yul\":5526:5529   */\n      dup6\n        /* \"#utility.yul\":5468:5538   */\n      tag_349\n      jump\t// in\n    tag_348:\n        /* \"#utility.yul\":5461:5538   */\n      swap4\n      pop\n        /* \"#utility.yul\":5547:5599   */\n      tag_350\n        /* \"#utility.yul\":5592:5598   */\n      dup2\n        /* \"#utility.yul\":5587:5590   */\n      dup6\n        /* \"#utility.yul\":5580:5584   */\n      0x20\n        /* \"#utility.yul\":5573:5578   */\n      dup7\n        /* \"#utility.yul\":5569:5585   */\n      add\n        /* \"#utility.yul\":5547:5599   */\n      tag_351\n      jump\t// in\n    tag_350:\n        /* \"#utility.yul\":5624:5653   */\n      tag_352\n        /* \"#utility.yul\":5646:5652   */\n      dup2\n        /* \"#utility.yul\":5624:5653   */\n      tag_353\n      jump\t// in\n    tag_352:\n        /* \"#utility.yul\":5619:5622   */\n      dup5\n        /* \"#utility.yul\":5615:5654   */\n      add\n        /* \"#utility.yul\":5608:5654   */\n      swap2\n      pop\n        /* \"#utility.yul\":5390:5660   */\n      pop\n      swap3\n      swap2\n      pop\n      pop\n      jump\t// out\n        /* \"#utility.yul\":5666:6030   */\n    tag_354:\n      0x00\n        /* \"#utility.yul\":5782:5821   */\n      tag_356\n        /* \"#utility.yul\":5815:5820   */\n      dup3\n        /* \"#utility.yul\":5782:5821   */\n      tag_357\n      jump\t// in\n    tag_356:\n        /* \"#utility.yul\":5837:5908   */\n      tag_358\n        /* \"#utility.yul\":5901:5907   */\n      dup2\n        /* \"#utility.yul\":5896:5899   */\n      dup6\n        /* \"#utility.yul\":5837:5908   */\n      tag_359\n      jump\t// in\n    tag_358:\n        /* \"#utility.yul\":5830:5908   */\n      swap4\n      pop\n        /* \"#utility.yul\":5917:5969   */\n      tag_360\n        /* \"#utility.yul\":5962:5968   */\n      dup2\n        /* \"#utility.yul\":5957:5960   */\n      dup6\n        /* \"#utility.yul\":5950:5954   */\n      0x20\n        /* \"#utility.yul\":5943:5948   */\n      dup7\n        /* \"#utility.yul\":5939:5955   */\n      add\n        /* \"#utility.yul\":5917:5969   */\n      tag_351\n      jump\t// in\n    tag_360:\n        /* \"#utility.yul\":5994:6023   */\n      tag_361\n        /* \"#utility.yul\":6016:6022   */\n      dup2\n        /* \"#utility.yul\":5994:6023   */\n      tag_353\n      jump\t// in\n    tag_361:\n        /* \"#utility.yul\":5989:5992   */\n      dup5\n        /* \"#utility.yul\":5985:6024   */\n      add\n        /* \"#utility.yul\":5978:6024   */\n      swap2\n      pop\n        /* \"#utility.yul\":5758:6030   */\n      pop\n      swap3\n      swap2\n      pop\n      pop\n      jump\t// out\n        /* \"#utility.yul\":6036:6413   */\n    tag_362:\n      0x00\n        /* \"#utility.yul\":6170:6209   */\n      tag_364\n        /* \"#utility.yul\":6203:6208   */\n      dup3\n        /* \"#utility.yul\":6170:6209   */\n      tag_357\n      jump\t// in\n    tag_364:\n        /* \"#utility.yul\":6225:6314   */\n      tag_365\n        /* \"#utility.yul\":6307:6313   */\n      dup2\n        /* \"#utility.yul\":6302:6305   */\n      dup6\n        /* \"#utility.yul\":6225:6314   */\n      tag_366\n      jump\t// in\n    tag_365:\n        /* \"#utility.yul\":6218:6314   */\n      swap4\n      pop\n        /* \"#utility.yul\":6323:6375   */\n      tag_367\n        /* \"#utility.yul\":6368:6374   */\n      dup2\n        /* \"#utility.yul\":6363:6366   */\n      dup6\n        /* \"#utility.yul\":6356:6360   */\n      0x20\n        /* \"#utility.yul\":6349:6354   */\n      dup7\n        /* \"#utility.yul\":6345:6361   */\n      add\n        /* \"#utility.yul\":6323:6375   */\n      tag_351\n      jump\t// in\n    tag_367:\n        /* \"#utility.yul\":6400:6406   */\n      dup1\n        /* \"#utility.yul\":6395:6398   */\n      dup5\n        /* \"#utility.yul\":6391:6407   */\n      add\n        /* \"#utility.yul\":6384:6407   */\n      swap2\n      pop\n        /* \"#utility.yul\":6146:6413   */\n      pop\n      swap3\n      swap2\n      pop\n      pop\n      jump\t// out\n        /* \"#utility.yul\":6419:6785   */\n    tag_368:\n      0x00\n        /* \"#utility.yul\":6582:6649   */\n      tag_370\n        /* \"#utility.yul\":6646:6648   */\n      0x32\n        /* \"#utility.yul\":6641:6644   */\n      dup4\n        /* \"#utility.yul\":6582:6649   */\n      tag_359\n      jump\t// in\n    tag_370:\n        /* \"#utility.yul\":6575:6649   */\n      swap2\n      pop\n        /* \"#utility.yul\":6658:6751   */\n      tag_371\n        /* \"#utility.yul\":6747:6750   */\n      dup3\n        /* \"#utility.yul\":6658:6751   */\n      tag_372\n      jump\t// in\n    tag_371:\n        /* \"#utility.yul\":6776:6778   */\n      0x40\n        /* \"#utility.yul\":6771:6774   */\n      dup3\n        /* \"#utility.yul\":6767:6779   */\n      add\n        /* \"#utility.yul\":6760:6779   */\n      swap1\n      pop\n        /* \"#utility.yul\":6565:6785   */\n      swap2\n      swap1\n      pop\n      jump\t// out\n        /* \"#utility.yul\":6791:7157   */\n    tag_373:\n      0x00\n        /* \"#utility.yul\":6954:7021   */\n      tag_375\n        /* \"#utility.yul\":7018:7020   */\n      0x25\n        /* \"#utility.yul\":7013:7016   */\n      dup4\n        /* \"#utility.yul\":6954:7021   */\n      tag_359\n      jump\t// in\n    tag_375:\n        /* \"#utility.yul\":6947:7021   */\n      swap2\n      pop\n        /* \"#utility.yul\":7030:7123   */\n      tag_376\n        /* \"#utility.yul\":7119:7122   */\n      dup3\n        /* \"#utility.yul\":7030:7123   */\n      tag_377\n      jump\t// in\n    tag_376:\n        /* \"#utility.yul\":7148:7150   */\n      0x40\n        /* \"#utility.yul\":7143:7146   */\n      dup3\n        /* \"#utility.yul\":7139:7151   */\n      add\n        /* \"#utility.yul\":7132:7151   */\n      swap1\n      pop\n        /* \"#utility.yul\":6937:7157   */\n      swap2\n      swap1\n      pop\n      jump\t// out\n        /* \"#utility.yul\":7163:7529   */\n    tag_378:\n      0x00\n        /* \"#utility.yul\":7326:7393   */\n      tag_380\n        /* \"#utility.yul\":7390:7392   */\n      0x1c\n        /* \"#utility.yul\":7385:7388   */\n      dup4\n        /* \"#utility.yul\":7326:7393   */\n      tag_359\n      jump\t// in\n    tag_380:\n        /* \"#utility.yul\":7319:7393   */\n      swap2\n      pop\n        /* \"#utility.yul\":7402:7495   */\n      tag_381\n        /* \"#utility.yul\":7491:7494   */\n      dup3\n        /* \"#utility.yul\":7402:7495   */\n      tag_382\n      jump\t// in\n    tag_381:\n        /* \"#utility.yul\":7520:7522   */\n      0x20\n        /* \"#utility.yul\":7515:7518   */\n      dup3\n        /* \"#utility.yul\":7511:7523   */\n      add\n        /* \"#utility.yul\":7504:7523   */\n      swap1\n      pop\n        /* \"#utility.yul\":7309:7529   */\n      swap2\n      swap1\n      pop\n      jump\t// out\n        /* \"#utility.yul\":7535:7901   */\n    tag_383:\n      0x00\n        /* \"#utility.yul\":7698:7765   */\n      tag_385\n        /* \"#utility.yul\":7762:7764   */\n      0x24\n        /* \"#utility.yul\":7757:7760   */\n      dup4\n        /* \"#utility.yul\":7698:7765   */\n      tag_359\n      jump\t// in\n    tag_385:\n        /* \"#utility.yul\":7691:7765   */\n      swap2\n      pop\n        /* \"#utility.yul\":7774:7867   */\n      tag_386\n        /* \"#utility.yul\":7863:7866   */\n      dup3\n        /* \"#utility.yul\":7774:7867   */\n      tag_387\n      jump\t// in\n    tag_386:\n        /* \"#utility.yul\":7892:7894   */\n      0x40\n        /* \"#utility.yul\":7887:7890   */\n      dup3\n        /* \"#utility.yul\":7883:7895   */\n      add\n        /* \"#utility.yul\":7876:7895   */\n      swap1\n      pop\n        /* \"#utility.yul\":7681:7901   */\n      swap2\n      swap1\n      pop\n      jump\t// out\n        /* \"#utility.yul\":7907:8273   */\n    tag_388:\n      0x00\n        /* \"#utility.yul\":8070:8137   */\n      tag_390\n        /* \"#utility.yul\":8134:8136   */\n      0x19\n        /* \"#utility.yul\":8129:8132   */\n      dup4\n        /* \"#utility.yul\":8070:8137   */\n      tag_359\n      jump\t// in\n    tag_390:\n        /* \"#utility.yul\":8063:8137   */\n      swap2\n      pop\n        /* \"#utility.yul\":8146:8239   */\n      tag_391\n        /* \"#utility.yul\":8235:8238   */\n      dup3\n        /* \"#utility.yul\":8146:8239   */\n      tag_392\n      jump\t// in\n    tag_391:\n        /* \"#utility.yul\":8264:8266   */\n      0x20\n        /* \"#utility.yul\":8259:8262   */\n      dup3\n        /* \"#utility.yul\":8255:8267   */\n      add\n        /* \"#utility.yul\":8248:8267   */\n      swap1\n      pop\n        /* \"#utility.yul\":8053:8273   */\n      swap2\n      swap1\n      pop\n      jump\t// out\n        /* \"#utility.yul\":8279:8645   */\n    tag_393:\n      0x00\n        /* \"#utility.yul\":8442:8509   */\n      tag_395\n        /* \"#utility.yul\":8506:8508   */\n      0x29\n        /* \"#utility.yul\":8501:8504   */\n      dup4\n        /* \"#utility.yul\":8442:8509   */\n      tag_359\n      jump\t// in\n    tag_395:\n        /* \"#utility.yul\":8435:8509   */\n      swap2\n      pop\n        /* \"#utility.yul\":8518:8611   */\n      tag_396\n        /* \"#utility.yul\":8607:8610   */\n      dup3\n        /* \"#utility.yul\":8518:8611   */\n      tag_397\n      jump\t// in\n    tag_396:\n        /* \"#utility.yul\":8636:8638   */\n      0x40\n        /* \"#utility.yul\":8631:8634   */\n      dup3\n        /* \"#utility.yul\":8627:8639   */\n      add\n        /* \"#utility.yul\":8620:8639   */\n      swap1\n      pop\n        /* \"#utility.yul\":8425:8645   */\n      swap2\n      swap1\n      pop\n      jump\t// out\n        /* \"#utility.yul\":8651:9017   */\n    tag_398:\n      0x00\n        /* \"#utility.yul\":8814:8881   */\n      tag_400\n        /* \"#utility.yul\":8878:8880   */\n      0x3e\n        /* \"#utility.yul\":8873:8876   */\n      dup4\n        /* \"#utility.yul\":8814:8881   */\n      tag_359\n      jump\t// in\n    tag_400:\n        /* \"#utility.yul\":8807:8881   */\n      swap2\n      pop\n        /* \"#utility.yul\":8890:8983   */\n      tag_401\n        /* \"#utility.yul\":8979:8982   */\n      dup3\n        /* \"#utility.yul\":8890:8983   */\n      tag_402\n      jump\t// in\n    tag_401:\n        /* \"#utility.yul\":9008:9010   */\n      0x40\n        /* \"#utility.yul\":9003:9006   */\n      dup3\n        /* \"#utility.yul\":8999:9011   */\n      add\n        /* \"#utility.yul\":8992:9011   */\n      swap1\n      pop\n        /* \"#utility.yul\":8797:9017   */\n      swap2\n      swap1\n      pop\n      jump\t// out\n        /* \"#utility.yul\":9023:9389   */\n    tag_403:\n      0x00\n        /* \"#utility.yul\":9186:9253   */\n      tag_405\n        /* \"#utility.yul\":9250:9252   */\n      0x20\n        /* \"#utility.yul\":9245:9248   */\n      dup4\n        /* \"#utility.yul\":9186:9253   */\n      tag_359\n      jump\t// in\n    tag_405:\n        /* \"#utility.yul\":9179:9253   */\n      swap2\n      pop\n        /* \"#utility.yul\":9262:9355   */\n      tag_406\n        /* \"#utility.yul\":9351:9354   */\n      dup3\n        /* \"#utility.yul\":9262:9355   */\n      tag_407\n      jump\t// in\n    tag_406:\n        /* \"#utility.yul\":9380:9382   */\n      0x20\n        /* \"#utility.yul\":9375:9378   */\n      dup3\n        /* \"#utility.yul\":9371:9383   */\n      add\n        /* \"#utility.yul\":9364:9383   */\n      swap1\n      pop\n        /* \"#utility.yul\":9169:9389   */\n      swap2\n      swap1\n      pop\n      jump\t// out\n        /* \"#utility.yul\":9395:9761   */\n    tag_408:\n      0x00\n        /* \"#utility.yul\":9558:9625   */\n      tag_410\n        /* \"#utility.yul\":9622:9624   */\n      0x18\n        /* \"#utility.yul\":9617:9620   */\n      dup4\n        /* \"#utility.yul\":9558:9625   */\n      tag_359\n      jump\t// in\n    tag_410:\n        /* \"#utility.yul\":9551:9625   */\n      swap2\n      pop\n        /* \"#utility.yul\":9634:9727   */\n      tag_411\n        /* \"#utility.yul\":9723:9726   */\n      dup3\n        /* \"#utility.yul\":9634:9727   */\n      tag_412\n      jump\t// in\n    tag_411:\n        /* \"#utility.yul\":9752:9754   */\n      0x20\n        /* \"#utility.yul\":9747:9750   */\n      dup3\n        /* \"#utility.yul\":9743:9755   */\n      add\n        /* \"#utility.yul\":9736:9755   */\n      swap1\n      pop\n        /* \"#utility.yul\":9541:9761   */\n      swap2\n      swap1\n      pop\n      jump\t// out\n        /* \"#utility.yul\":9767:10133   */\n    tag_413:\n      0x00\n        /* \"#utility.yul\":9930:9997   */\n      tag_415\n        /* \"#utility.yul\":9994:9996   */\n      0x21\n        /* \"#utility.yul\":9989:9992   */\n      dup4\n        /* \"#utility.yul\":9930:9997   */\n      tag_359\n      jump\t// in\n    tag_415:\n        /* \"#utility.yul\":9923:9997   */\n      swap2\n      pop\n        /* \"#utility.yul\":10006:10099   */\n      tag_416\n        /* \"#utility.yul\":10095:10098   */\n      dup3\n        /* \"#utility.yul\":10006:10099   */\n      tag_417\n      jump\t// in\n    tag_416:\n        /* \"#utility.yul\":10124:10126   */\n      0x40\n        /* \"#utility.yul\":10119:10122   */\n      dup3\n        /* \"#utility.yul\":10115:10127   */\n      add\n        /* \"#utility.yul\":10108:10127   */\n      swap1\n      pop\n        /* \"#utility.yul\":9913:10133   */\n      swap2\n      swap1\n      pop\n      jump\t// out\n        /* \"#utility.yul\":10139:10505   */\n    tag_418:\n      0x00\n        /* \"#utility.yul\":10302:10369   */\n      tag_420\n        /* \"#utility.yul\":10366:10368   */\n      0x2e\n        /* \"#utility.yul\":10361:10364   */\n      dup4\n        /* \"#utility.yul\":10302:10369   */\n      tag_359\n      jump\t// in\n    tag_420:\n        /* \"#utility.yul\":10295:10369   */\n      swap2\n      pop\n        /* \"#utility.yul\":10378:10471   */\n      tag_421\n        /* \"#utility.yul\":10467:10470   */\n      dup3\n        /* \"#utility.yul\":10378:10471   */\n      tag_422\n      jump\t// in\n    tag_421:\n        /* \"#utility.yul\":10496:10498   */\n      0x40\n        /* \"#utility.yul\":10491:10494   */\n      dup3\n        /* \"#utility.yul\":10487:10499   */\n      add\n        /* \"#utility.yul\":10480:10499   */\n      swap1\n      pop\n        /* \"#utility.yul\":10285:10505   */\n      swap2\n      swap1\n      pop\n      jump\t// out\n        /* \"#utility.yul\":10511:10629   */\n    tag_423:\n        /* \"#utility.yul\":10598:10622   */\n      tag_425\n        /* \"#utility.yul\":10616:10621   */\n      dup2\n        /* \"#utility.yul\":10598:10622   */\n      tag_426\n      jump\t// in\n    tag_425:\n        /* \"#utility.yul\":10593:10596   */\n      dup3\n        /* \"#utility.yul\":10586:10623   */\n      mstore\n        /* \"#utility.yul\":10576:10629   */\n      pop\n      pop\n      jump\t// out\n        /* \"#utility.yul\":10635:11070   */\n    tag_156:\n      0x00\n        /* \"#utility.yul\":10837:10932   */\n      tag_428\n        /* \"#utility.yul\":10928:10931   */\n      dup3\n        /* \"#utility.yul\":10919:10925   */\n      dup6\n        /* \"#utility.yul\":10837:10932   */\n      tag_362\n      jump\t// in\n    tag_428:\n        /* \"#utility.yul\":10830:10932   */\n      swap2\n      pop\n        /* \"#utility.yul\":10949:11044   */\n      tag_429\n        /* \"#utility.yul\":11040:11043   */\n      dup3\n        /* \"#utility.yul\":11031:11037   */\n      dup5\n        /* \"#utility.yul\":10949:11044   */\n      tag_362\n      jump\t// in\n    tag_429:\n        /* \"#utility.yul\":10942:11044   */\n      swap2\n      pop\n        /* \"#utility.yul\":11061:11064   */\n      dup2\n        /* \"#utility.yul\":11054:11064   */\n      swap1\n      pop\n        /* \"#utility.yul\":10819:11070   */\n      swap4\n      swap3\n      pop\n      pop\n      pop\n      jump\t// out\n        /* \"#utility.yul\":11076:11298   */\n    tag_35:\n      0x00\n        /* \"#utility.yul\":11207:11209   */\n      0x20\n        /* \"#utility.yul\":11196:11205   */\n      dup3\n        /* \"#utility.yul\":11192:11210   */\n      add\n        /* \"#utility.yul\":11184:11210   */\n      swap1\n      pop\n        /* \"#utility.yul\":11220:11291   */\n      tag_431\n        /* \"#utility.yul\":11288:11289   */\n      0x00\n        /* \"#utility.yul\":11277:11286   */\n      dup4\n        /* \"#utility.yul\":11273:11290   */\n      add\n        /* \"#utility.yul\":11264:11270   */\n      dup5\n        /* \"#utility.yul\":11220:11291   */\n      tag_336\n      jump\t// in\n    tag_431:\n        /* \"#utility.yul\":11174:11298   */\n      swap3\n      swap2\n      pop\n      pop\n      jump\t// out\n        /* \"#utility.yul\":11304:11944   */\n    tag_250:\n      0x00\n        /* \"#utility.yul\":11537:11540   */\n      0x80\n        /* \"#utility.yul\":11526:11535   */\n      dup3\n        /* \"#utility.yul\":11522:11541   */\n      add\n        /* \"#utility.yul\":11514:11541   */\n      swap1\n      pop\n        /* \"#utility.yul\":11551:11622   */\n      tag_433\n        /* \"#utility.yul\":11619:11620   */\n      0x00\n        /* \"#utility.yul\":11608:11617   */\n      dup4\n        /* \"#utility.yul\":11604:11621   */\n      add\n        /* \"#utility.yul\":11595:11601   */\n      dup8\n        /* \"#utility.yul\":11551:11622   */\n      tag_336\n      jump\t// in\n    tag_433:\n        /* \"#utility.yul\":11632:11704   */\n      tag_434\n        /* \"#utility.yul\":11700:11702   */\n      0x20\n        /* \"#utility.yul\":11689:11698   */\n      dup4\n        /* \"#utility.yul\":11685:11703   */\n      add\n        /* \"#utility.yul\":11676:11682   */\n      dup7\n        /* \"#utility.yul\":11632:11704   */\n      tag_336\n      jump\t// in\n    tag_434:\n        /* \"#utility.yul\":11714:11786   */\n      tag_435\n        /* \"#utility.yul\":11782:11784   */\n      0x40\n        /* \"#utility.yul\":11771:11780   */\n      dup4\n        /* \"#utility.yul\":11767:11785   */\n      add\n        /* \"#utility.yul\":11758:11764   */\n      dup6\n        /* \"#utility.yul\":11714:11786   */\n      tag_423\n      jump\t// in\n    tag_435:\n        /* \"#utility.yul\":11833:11842   */\n      dup2\n        /* \"#utility.yul\":11827:11831   */\n      dup2\n        /* \"#utility.yul\":11823:11843   */\n      sub\n        /* \"#utility.yul\":11818:11820   */\n      0x60\n        /* \"#utility.yul\":11807:11816   */\n      dup4\n        /* \"#utility.yul\":11803:11821   */\n      add\n        /* \"#utility.yul\":11796:11844   */\n      mstore\n        /* \"#utility.yul\":11861:11937   */\n      tag_436\n        /* \"#utility.yul\":11932:11936   */\n      dup2\n        /* \"#utility.yul\":11923:11929   */\n      dup5\n        /* \"#utility.yul\":11861:11937   */\n      tag_344\n      jump\t// in\n    tag_436:\n        /* \"#utility.yul\":11853:11937   */\n      swap1\n      pop\n        /* \"#utility.yul\":11504:11944   */\n      swap6\n      swap5\n      pop\n      pop\n      pop\n      pop\n      pop\n      jump\t// out\n        /* \"#utility.yul\":11950:12160   */\n    tag_25:\n      0x00\n        /* \"#utility.yul\":12075:12077   */\n      0x20\n        /* \"#utility.yul\":12064:12073   */\n      dup3\n        /* \"#utility.yul\":12060:12078   */\n      add\n        /* \"#utility.yul\":12052:12078   */\n      swap1\n      pop\n        /* \"#utility.yul\":12088:12153   */\n      tag_438\n        /* \"#utility.yul\":12150:12151   */\n      0x00\n        /* \"#utility.yul\":12139:12148   */\n      dup4\n        /* \"#utility.yul\":12135:12152   */\n      add\n        /* \"#utility.yul\":12126:12132   */\n      dup5\n        /* \"#utility.yul\":12088:12153   */\n      tag_340\n      jump\t// in\n    tag_438:\n        /* \"#utility.yul\":12042:12160   */\n      swap3\n      swap2\n      pop\n      pop\n      jump\t// out\n        /* \"#utility.yul\":12166:12479   */\n    tag_29:\n      0x00\n        /* \"#utility.yul\":12317:12319   */\n      0x20\n        /* \"#utility.yul\":12306:12315   */\n      dup3\n        /* \"#utility.yul\":12302:12320   */\n      add\n        /* \"#utility.yul\":12294:12320   */\n      swap1\n      pop\n        /* \"#utility.yul\":12366:12375   */\n      dup2\n        /* \"#utility.yul\":12360:12364   */\n      dup2\n        /* \"#utility.yul\":12356:12376   */\n      sub\n        /* \"#utility.yul\":12352:12353   */\n      0x00\n        /* \"#utility.yul\":12341:12350   */\n      dup4\n        /* \"#utility.yul\":12337:12354   */\n      add\n        /* \"#utility.yul\":12330:12377   */\n      mstore\n        /* \"#utility.yul\":12394:12472   */\n      tag_440\n        /* \"#utility.yul\":12467:12471   */\n      dup2\n        /* \"#utility.yul\":12458:12464   */\n      dup5\n        /* \"#utility.yul\":12394:12472   */\n      tag_354\n      jump\t// in\n    tag_440:\n        /* \"#utility.yul\":12386:12472   */\n      swap1\n      pop\n        /* \"#utility.yul\":12284:12479   */\n      swap3\n      swap2\n      pop\n      pop\n      jump\t// out\n        /* \"#utility.yul\":12485:12904   */\n    tag_208:\n      0x00\n        /* \"#utility.yul\":12689:12691   */\n      0x20\n        /* \"#utility.yul\":12678:12687   */\n      dup3\n        /* \"#utility.yul\":12674:12692   */\n      add\n        /* \"#utility.yul\":12666:12692   */\n      swap1\n      pop\n        /* \"#utility.yul\":12738:12747   */\n      dup2\n        /* \"#utility.yul\":12732:12736   */\n      dup2\n        /* \"#utility.yul\":12728:12748   */\n      sub\n        /* \"#utility.yul\":12724:12725   */\n      0x00\n        /* \"#utility.yul\":12713:12722   */\n      dup4\n        /* \"#utility.yul\":12709:12726   */\n      add\n        /* \"#utility.yul\":12702:12749   */\n      mstore\n        /* \"#utility.yul\":12766:12897   */\n      tag_442\n        /* \"#utility.yul\":12892:12896   */\n      dup2\n        /* \"#utility.yul\":12766:12897   */\n      tag_368\n      jump\t// in\n    tag_442:\n        /* \"#utility.yul\":12758:12897   */\n      swap1\n      pop\n        /* \"#utility.yul\":12656:12904   */\n      swap2\n      swap1\n      pop\n      jump\t// out\n        /* \"#utility.yul\":12910:13329   */\n    tag_184:\n      0x00\n        /* \"#utility.yul\":13114:13116   */\n      0x20\n        /* \"#utility.yul\":13103:13112   */\n      dup3\n        /* \"#utility.yul\":13099:13117   */\n      add\n        /* \"#utility.yul\":13091:13117   */\n      swap1\n      pop\n        /* \"#utility.yul\":13163:13172   */\n      dup2\n        /* \"#utility.yul\":13157:13161   */\n      dup2\n        /* \"#utility.yul\":13153:13173   */\n      sub\n        /* \"#utility.yul\":13149:13150   */\n      0x00\n        /* \"#utility.yul\":13138:13147   */\n      dup4\n        /* \"#utility.yul\":13134:13151   */\n      add\n        /* \"#utility.yul\":13127:13174   */\n      mstore\n        /* \"#utility.yul\":13191:13322   */\n      tag_444\n        /* \"#utility.yul\":13317:13321   */\n      dup2\n        /* \"#utility.yul\":13191:13322   */\n      tag_373\n      jump\t// in\n    tag_444:\n        /* \"#utility.yul\":13183:13322   */\n      swap1\n      pop\n        /* \"#utility.yul\":13081:13329   */\n      swap2\n      swap1\n      pop\n      jump\t// out\n        /* \"#utility.yul\":13335:13754   */\n    tag_237:\n      0x00\n        /* \"#utility.yul\":13539:13541   */\n      0x20\n        /* \"#utility.yul\":13528:13537   */\n      dup3\n        /* \"#utility.yul\":13524:13542   */\n      add\n        /* \"#utility.yul\":13516:13542   */\n      swap1\n      pop\n        /* \"#utility.yul\":13588:13597   */\n      dup2\n        /* \"#utility.yul\":13582:13586   */\n      dup2\n        /* \"#utility.yul\":13578:13598   */\n      sub\n        /* \"#utility.yul\":13574:13575   */\n      0x00\n        /* \"#utility.yul\":13563:13572   */\n      dup4\n        /* \"#utility.yul\":13559:13576   */\n      add\n        /* \"#utility.yul\":13552:13599   */\n      mstore\n        /* \"#utility.yul\":13616:13747   */\n      tag_446\n        /* \"#utility.yul\":13742:13746   */\n      dup2\n        /* \"#utility.yul\":13616:13747   */\n      tag_378\n      jump\t// in\n    tag_446:\n        /* \"#utility.yul\":13608:13747   */\n      swap1\n      pop\n        /* \"#utility.yul\":13506:13754   */\n      swap2\n      swap1\n      pop\n      jump\t// out\n        /* \"#utility.yul\":13760:14179   */\n    tag_187:\n      0x00\n        /* \"#utility.yul\":13964:13966   */\n      0x20\n        /* \"#utility.yul\":13953:13962   */\n      dup3\n        /* \"#utility.yul\":13949:13967   */\n      add\n        /* \"#utility.yul\":13941:13967   */\n      swap1\n      pop\n        /* \"#utility.yul\":14013:14022   */\n      dup2\n        /* \"#utility.yul\":14007:14011   */\n      dup2\n        /* \"#utility.yul\":14003:14023   */\n      sub\n        /* \"#utility.yul\":13999:14000   */\n      0x00\n        /* \"#utility.yul\":13988:13997   */\n      dup4\n        /* \"#utility.yul\":13984:14001   */\n      add\n        /* \"#utility.yul\":13977:14024   */\n      mstore\n        /* \"#utility.yul\":14041:14172   */\n      tag_448\n        /* \"#utility.yul\":14167:14171   */\n      dup2\n        /* \"#utility.yul\":14041:14172   */\n      tag_383\n      jump\t// in\n    tag_448:\n        /* \"#utility.yul\":14033:14172   */\n      swap1\n      pop\n        /* \"#utility.yul\":13931:14179   */\n      swap2\n      swap1\n      pop\n      jump\t// out\n        /* \"#utility.yul\":14185:14604   */\n    tag_200:\n      0x00\n        /* \"#utility.yul\":14389:14391   */\n      0x20\n        /* \"#utility.yul\":14378:14387   */\n      dup3\n        /* \"#utility.yul\":14374:14392   */\n      add\n        /* \"#utility.yul\":14366:14392   */\n      swap1\n      pop\n        /* \"#utility.yul\":14438:14447   */\n      dup2\n        /* \"#utility.yul\":14432:14436   */\n      dup2\n        /* \"#utility.yul\":14428:14448   */\n      sub\n        /* \"#utility.yul\":14424:14425   */\n      0x00\n        /* \"#utility.yul\":14413:14422   */\n      dup4\n        /* \"#utility.yul\":14409:14426   */\n      add\n        /* \"#utility.yul\":14402:14449   */\n      mstore\n        /* \"#utility.yul\":14466:14597   */\n      tag_450\n        /* \"#utility.yul\":14592:14596   */\n      dup2\n        /* \"#utility.yul\":14466:14597   */\n      tag_388\n      jump\t// in\n    tag_450:\n        /* \"#utility.yul\":14458:14597   */\n      swap1\n      pop\n        /* \"#utility.yul\":14356:14604   */\n      swap2\n      swap1\n      pop\n      jump\t// out\n        /* \"#utility.yul\":14610:15029   */\n    tag_129:\n      0x00\n        /* \"#utility.yul\":14814:14816   */\n      0x20\n        /* \"#utility.yul\":14803:14812   */\n      dup3\n        /* \"#utility.yul\":14799:14817   */\n      add\n        /* \"#utility.yul\":14791:14817   */\n      swap1\n      pop\n        /* \"#utility.yul\":14863:14872   */\n      dup2\n        /* \"#utility.yul\":14857:14861   */\n      dup2\n        /* \"#utility.yul\":14853:14873   */\n      sub\n        /* \"#utility.yul\":14849:14850   */\n      0x00\n        /* \"#utility.yul\":14838:14847   */\n      dup4\n        /* \"#utility.yul\":14834:14851   */\n      add\n        /* \"#utility.yul\":14827:14874   */\n      mstore\n        /* \"#utility.yul\":14891:15022   */\n      tag_452\n        /* \"#utility.yul\":15017:15021   */\n      dup2\n        /* \"#utility.yul\":14891:15022   */\n      tag_393\n      jump\t// in\n    tag_452:\n        /* \"#utility.yul\":14883:15022   */\n      swap1\n      pop\n        /* \"#utility.yul\":14781:15029   */\n      swap2\n      swap1\n      pop\n      jump\t// out\n        /* \"#utility.yul\":15035:15454   */\n    tag_108:\n      0x00\n        /* \"#utility.yul\":15239:15241   */\n      0x20\n        /* \"#utility.yul\":15228:15237   */\n      dup3\n        /* \"#utility.yul\":15224:15242   */\n      add\n        /* \"#utility.yul\":15216:15242   */\n      swap1\n      pop\n        /* \"#utility.yul\":15288:15297   */\n      dup2\n        /* \"#utility.yul\":15282:15286   */\n      dup2\n        /* \"#utility.yul\":15278:15298   */\n      sub\n        /* \"#utility.yul\":15274:15275   */\n      0x00\n        /* \"#utility.yul\":15263:15272   */\n      dup4\n        /* \"#utility.yul\":15259:15276   */\n      add\n        /* \"#utility.yul\":15252:15299   */\n      mstore\n        /* \"#utility.yul\":15316:15447   */\n      tag_454\n        /* \"#utility.yul\":15442:15446   */\n      dup2\n        /* \"#utility.yul\":15316:15447   */\n      tag_398\n      jump\t// in\n    tag_454:\n        /* \"#utility.yul\":15308:15447   */\n      swap1\n      pop\n        /* \"#utility.yul\":15206:15454   */\n      swap2\n      swap1\n      pop\n      jump\t// out\n        /* \"#utility.yul\":15460:15879   */\n    tag_233:\n      0x00\n        /* \"#utility.yul\":15664:15666   */\n      0x20\n        /* \"#utility.yul\":15653:15662   */\n      dup3\n        /* \"#utility.yul\":15649:15667   */\n      add\n        /* \"#utility.yul\":15641:15667   */\n      swap1\n      pop\n        /* \"#utility.yul\":15713:15722   */\n      dup2\n        /* \"#utility.yul\":15707:15711   */\n      dup2\n        /* \"#utility.yul\":15703:15723   */\n      sub\n        /* \"#utility.yul\":15699:15700   */\n      0x00\n        /* \"#utility.yul\":15688:15697   */\n      dup4\n        /* \"#utility.yul\":15684:15701   */\n      add\n        /* \"#utility.yul\":15677:15724   */\n      mstore\n        /* \"#utility.yul\":15741:15872   */\n      tag_456\n        /* \"#utility.yul\":15867:15871   */\n      dup2\n        /* \"#utility.yul\":15741:15872   */\n      tag_403\n      jump\t// in\n    tag_456:\n        /* \"#utility.yul\":15733:15872   */\n      swap1\n      pop\n        /* \"#utility.yul\":15631:15879   */\n      swap2\n      swap1\n      pop\n      jump\t// out\n        /* \"#utility.yul\":15885:16304   */\n    tag_125:\n      0x00\n        /* \"#utility.yul\":16089:16091   */\n      0x20\n        /* \"#utility.yul\":16078:16087   */\n      dup3\n        /* \"#utility.yul\":16074:16092   */\n      add\n        /* \"#utility.yul\":16066:16092   */\n      swap1\n      pop\n        /* \"#utility.yul\":16138:16147   */\n      dup2\n        /* \"#utility.yul\":16132:16136   */\n      dup2\n        /* \"#utility.yul\":16128:16148   */\n      sub\n        /* \"#utility.yul\":16124:16125   */\n      0x00\n        /* \"#utility.yul\":16113:16122   */\n      dup4\n        /* \"#utility.yul\":16109:16126   */\n      add\n        /* \"#utility.yul\":16102:16149   */\n      mstore\n        /* \"#utility.yul\":16166:16297   */\n      tag_458\n        /* \"#utility.yul\":16292:16296   */\n      dup2\n        /* \"#utility.yul\":16166:16297   */\n      tag_408\n      jump\t// in\n    tag_458:\n        /* \"#utility.yul\":16158:16297   */\n      swap1\n      pop\n        /* \"#utility.yul\":16056:16304   */\n      swap2\n      swap1\n      pop\n      jump\t// out\n        /* \"#utility.yul\":16310:16729   */\n    tag_100:\n      0x00\n        /* \"#utility.yul\":16514:16516   */\n      0x20\n        /* \"#utility.yul\":16503:16512   */\n      dup3\n        /* \"#utility.yul\":16499:16517   */\n      add\n        /* \"#utility.yul\":16491:16517   */\n      swap1\n      pop\n        /* \"#utility.yul\":16563:16572   */\n      dup2\n        /* \"#utility.yul\":16557:16561   */\n      dup2\n        /* \"#utility.yul\":16553:16573   */\n      sub\n        /* \"#utility.yul\":16549:16550   */\n      0x00\n        /* \"#utility.yul\":16538:16547   */\n      dup4\n        /* \"#utility.yul\":16534:16551   */\n      add\n        /* \"#utility.yul\":16527:16574   */\n      mstore\n        /* \"#utility.yul\":16591:16722   */\n      tag_460\n        /* \"#utility.yul\":16717:16721   */\n      dup2\n        /* \"#utility.yul\":16591:16722   */\n      tag_413\n      jump\t// in\n    tag_460:\n        /* \"#utility.yul\":16583:16722   */\n      swap1\n      pop\n        /* \"#utility.yul\":16481:16729   */\n      swap2\n      swap1\n      pop\n      jump\t// out\n        /* \"#utility.yul\":16735:17154   */\n    tag_117:\n      0x00\n        /* \"#utility.yul\":16939:16941   */\n      0x20\n        /* \"#utility.yul\":16928:16937   */\n      dup3\n        /* \"#utility.yul\":16924:16942   */\n      add\n        /* \"#utility.yul\":16916:16942   */\n      swap1\n      pop\n        /* \"#utility.yul\":16988:16997   */\n      dup2\n        /* \"#utility.yul\":16982:16986   */\n      dup2\n        /* \"#utility.yul\":16978:16998   */\n      sub\n        /* \"#utility.yul\":16974:16975   */\n      0x00\n        /* \"#utility.yul\":16963:16972   */\n      dup4\n        /* \"#utility.yul\":16959:16976   */\n      add\n        /* \"#utility.yul\":16952:16999   */\n      mstore\n        /* \"#utility.yul\":17016:17147   */\n      tag_462\n        /* \"#utility.yul\":17142:17146   */\n      dup2\n        /* \"#utility.yul\":17016:17147   */\n      tag_418\n      jump\t// in\n    tag_462:\n        /* \"#utility.yul\":17008:17147   */\n      swap1\n      pop\n        /* \"#utility.yul\":16906:17154   */\n      swap2\n      swap1\n      pop\n      jump\t// out\n        /* \"#utility.yul\":17160:17382   */\n    tag_56:\n      0x00\n        /* \"#utility.yul\":17291:17293   */\n      0x20\n        /* \"#utility.yul\":17280:17289   */\n      dup3\n        /* \"#utility.yul\":17276:17294   */\n      add\n        /* \"#utility.yul\":17268:17294   */\n      swap1\n      pop\n        /* \"#utility.yul\":17304:17375   */\n      tag_464\n        /* \"#utility.yul\":17372:17373   */\n      0x00\n        /* \"#utility.yul\":17361:17370   */\n      dup4\n        /* \"#utility.yul\":17357:17374   */\n      add\n        /* \"#utility.yul\":17348:17354   */\n      dup5\n        /* \"#utility.yul\":17304:17375   */\n      tag_423\n      jump\t// in\n    tag_464:\n        /* \"#utility.yul\":17258:17382   */\n      swap3\n      swap2\n      pop\n      pop\n      jump\t// out\n        /* \"#utility.yul\":17388:17517   */\n    tag_273:\n      0x00\n        /* \"#utility.yul\":17449:17469   */\n      tag_466\n      tag_467\n      jump\t// in\n    tag_466:\n        /* \"#utility.yul\":17439:17469   */\n      swap1\n      pop\n        /* \"#utility.yul\":17478:17511   */\n      tag_468\n        /* \"#utility.yul\":17506:17510   */\n      dup3\n        /* \"#utility.yul\":17498:17504   */\n      dup3\n        /* \"#utility.yul\":17478:17511   */\n      tag_469\n      jump\t// in\n    tag_468:\n        /* \"#utility.yul\":17429:17517   */\n      swap2\n      swap1\n      pop\n      jump\t// out\n        /* \"#utility.yul\":17523:17598   */\n    tag_467:\n      0x00\n        /* \"#utility.yul\":17589:17591   */\n      0x40\n        /* \"#utility.yul\":17583:17592   */\n      mload\n        /* \"#utility.yul\":17573:17592   */\n      swap1\n      pop\n        /* \"#utility.yul\":17563:17598   */\n      swap1\n      jump\t// out\n        /* \"#utility.yul\":17604:17911   */\n    tag_272:\n      0x00\n        /* \"#utility.yul\":17755:17773   */\n      0xffffffffffffffff\n        /* \"#utility.yul\":17747:17753   */\n      dup3\n        /* \"#utility.yul\":17744:17774   */\n      gt\n        /* \"#utility.yul\":17741:17743   */\n      iszero\n      tag_472\n      jumpi\n        /* \"#utility.yul\":17777:17795   */\n      tag_473\n      tag_474\n      jump\t// in\n    tag_473:\n        /* \"#utility.yul\":17741:17743   */\n    tag_472:\n        /* \"#utility.yul\":17815:17844   */\n      tag_475\n        /* \"#utility.yul\":17837:17843   */\n      dup3\n        /* \"#utility.yul\":17815:17844   */\n      tag_353\n      jump\t// in\n    tag_475:\n        /* \"#utility.yul\":17807:17844   */\n      swap1\n      pop\n        /* \"#utility.yul\":17899:17903   */\n      0x20\n        /* \"#utility.yul\":17893:17897   */\n      dup2\n        /* \"#utility.yul\":17889:17904   */\n      add\n        /* \"#utility.yul\":17881:17904   */\n      swap1\n      pop\n        /* \"#utility.yul\":17670:17911   */\n      swap2\n      swap1\n      pop\n      jump\t// out\n        /* \"#utility.yul\":17917:18015   */\n    tag_347:\n      0x00\n        /* \"#utility.yul\":18002:18007   */\n      dup2\n        /* \"#utility.yul\":17996:18008   */\n      mload\n        /* \"#utility.yul\":17986:18008   */\n      swap1\n      pop\n        /* \"#utility.yul\":17975:18015   */\n      swap2\n      swap1\n      pop\n      jump\t// out\n        /* \"#utility.yul\":18021:18120   */\n    tag_357:\n      0x00\n        /* \"#utility.yul\":18107:18112   */\n      dup2\n        /* \"#utility.yul\":18101:18113   */\n      mload\n        /* \"#utility.yul\":18091:18113   */\n      swap1\n      pop\n        /* \"#utility.yul\":18080:18120   */\n      swap2\n      swap1\n      pop\n      jump\t// out\n        /* \"#utility.yul\":18126:18294   */\n    tag_349:\n      0x00\n        /* \"#utility.yul\":18243:18249   */\n      dup3\n        /* \"#utility.yul\":18238:18241   */\n      dup3\n        /* \"#utility.yul\":18231:18250   */\n      mstore\n        /* \"#utility.yul\":18283:18287   */\n      0x20\n        /* \"#utility.yul\":18278:18281   */\n      dup3\n        /* \"#utility.yul\":18274:18288   */\n      add\n        /* \"#utility.yul\":18259:18288   */\n      swap1\n      pop\n        /* \"#utility.yul\":18221:18294   */\n      swap3\n      swap2\n      pop\n      pop\n      jump\t// out\n        /* \"#utility.yul\":18300:18469   */\n    tag_359:\n      0x00\n        /* \"#utility.yul\":18418:18424   */\n      dup3\n        /* \"#utility.yul\":18413:18416   */\n      dup3\n        /* \"#utility.yul\":18406:18425   */\n      mstore\n        /* \"#utility.yul\":18458:18462   */\n      0x20\n        /* \"#utility.yul\":18453:18456   */\n      dup3\n        /* \"#utility.yul\":18449:18463   */\n      add\n        /* \"#utility.yul\":18434:18463   */\n      swap1\n      pop\n        /* \"#utility.yul\":18396:18469   */\n      swap3\n      swap2\n      pop\n      pop\n      jump\t// out\n        /* \"#utility.yul\":18475:18623   */\n    tag_366:\n      0x00\n        /* \"#utility.yul\":18614:18617   */\n      dup2\n        /* \"#utility.yul\":18599:18617   */\n      swap1\n      pop\n        /* \"#utility.yul\":18589:18623   */\n      swap3\n      swap2\n      pop\n      pop\n      jump\t// out\n        /* \"#utility.yul\":18629:18934   */\n    tag_194:\n      0x00\n        /* \"#utility.yul\":18688:18708   */\n      tag_482\n        /* \"#utility.yul\":18706:18707   */\n      dup3\n        /* \"#utility.yul\":18688:18708   */\n      tag_426\n      jump\t// in\n    tag_482:\n        /* \"#utility.yul\":18683:18708   */\n      swap2\n      pop\n        /* \"#utility.yul\":18722:18742   */\n      tag_483\n        /* \"#utility.yul\":18740:18741   */\n      dup4\n        /* \"#utility.yul\":18722:18742   */\n      tag_426\n      jump\t// in\n    tag_483:\n        /* \"#utility.yul\":18717:18742   */\n      swap3\n      pop\n        /* \"#utility.yul\":18876:18877   */\n      dup3\n        /* \"#utility.yul\":18808:18874   */\n      0xffffffffffffffffffffffffffffffffffffffffffffffffffffffffffffffff\n        /* \"#utility.yul\":18804:18878   */\n      sub\n        /* \"#utility.yul\":18801:18802   */\n      dup3\n        /* \"#utility.yul\":18798:18879   */\n      gt\n        /* \"#utility.yul\":18795:18797   */\n      iszero\n      tag_484\n      jumpi\n        /* \"#utility.yul\":18882:18900   */\n      tag_485\n      tag_486\n      jump\t// in\n    tag_485:\n        /* \"#utility.yul\":18795:18797   */\n    tag_484:\n        /* \"#utility.yul\":18926:18927   */\n      dup3\n        /* \"#utility.yul\":18923:18924   */\n      dup3\n        /* \"#utility.yul\":18919:18928   */\n      add\n        /* \"#utility.yul\":18912:18928   */\n      swap1\n      pop\n        /* \"#utility.yul\":18673:18934   */\n      swap3\n      swap2\n      pop\n      pop\n      jump\t// out\n        /* \"#utility.yul\":18940:19125   */\n    tag_217:\n      0x00\n        /* \"#utility.yul\":18997:19017   */\n      tag_488\n        /* \"#utility.yul\":19015:19016   */\n      dup3\n        /* \"#utility.yul\":18997:19017   */\n      tag_426\n      jump\t// in\n    tag_488:\n        /* \"#utility.yul\":18992:19017   */\n      swap2\n      pop\n        /* \"#utility.yul\":19031:19051   */\n      tag_489\n        /* \"#utility.yul\":19049:19050   */\n      dup4\n        /* \"#utility.yul\":19031:19051   */\n      tag_426\n      jump\t// in\n    tag_489:\n        /* \"#utility.yul\":19026:19051   */\n      swap3\n      pop\n        /* \"#utility.yul\":19070:19071   */\n      dup3\n        /* \"#utility.yul\":19060:19062   */\n      tag_490\n      jumpi\n        /* \"#utility.yul\":19075:19093   */\n      tag_491\n      tag_492\n      jump\t// in\n    tag_491:\n        /* \"#utility.yul\":19060:19062   */\n    tag_490:\n        /* \"#utility.yul\":19117:19118   */\n      dup3\n        /* \"#utility.yul\":19114:19115   */\n      dup3\n        /* \"#utility.yul\":19110:19119   */\n      div\n        /* \"#utility.yul\":19105:19119   */\n      swap1\n      pop\n        /* \"#utility.yul\":18982:19125   */\n      swap3\n      swap2\n      pop\n      pop\n      jump\t// out\n        /* \"#utility.yul\":19131:19322   */\n    tag_192:\n      0x00\n        /* \"#utility.yul\":19191:19211   */\n      tag_494\n        /* \"#utility.yul\":19209:19210   */\n      dup3\n        /* \"#utility.yul\":19191:19211   */\n      tag_426\n      jump\t// in\n    tag_494:\n        /* \"#utility.yul\":19186:19211   */\n      swap2\n      pop\n        /* \"#utility.yul\":19225:19245   */\n      tag_495\n        /* \"#utility.yul\":19243:19244   */\n      dup4\n        /* \"#utility.yul\":19225:19245   */\n      tag_426\n      jump\t// in\n    tag_495:\n        /* \"#utility.yul\":19220:19245   */\n      swap3\n      pop\n        /* \"#utility.yul\":19264:19265   */\n      dup3\n        /* \"#utility.yul\":19261:19262   */\n      dup3\n        /* \"#utility.yul\":19258:19266   */\n      lt\n        /* \"#utility.yul\":19255:19257   */\n      iszero\n      tag_496\n      jumpi\n        /* \"#utility.yul\":19269:19287   */\n      tag_497\n      tag_486\n      jump\t// in\n    tag_497:\n        /* \"#utility.yul\":19255:19257   */\n    tag_496:\n        /* \"#utility.yul\":19314:19315   */\n      dup3\n        /* \"#utility.yul\":19311:19312   */\n      dup3\n        /* \"#utility.yul\":19307:19316   */\n      sub\n        /* \"#utility.yul\":19299:19316   */\n      swap1\n      pop\n        /* \"#utility.yul\":19176:19322   */\n      swap3\n      swap2\n      pop\n      pop\n      jump\t// out\n        /* \"#utility.yul\":19328:19424   */\n    tag_339:\n      0x00\n        /* \"#utility.yul\":19394:19418   */\n      tag_499\n        /* \"#utility.yul\":19412:19417   */\n      dup3\n        /* \"#utility.yul\":19394:19418   */\n      tag_500\n      jump\t// in\n    tag_499:\n        /* \"#utility.yul\":19383:19418   */\n      swap1\n      pop\n        /* \"#utility.yul\":19373:19424   */\n      swap2\n      swap1\n      pop\n      jump\t// out\n        /* \"#utility.yul\":19430:19520   */\n    tag_343:\n      0x00\n        /* \"#utility.yul\":19507:19512   */\n      dup2\n        /* \"#utility.yul\":19500:19513   */\n      iszero\n        /* \"#utility.yul\":19493:19514   */\n      iszero\n        /* \"#utility.yul\":19482:19514   */\n      swap1\n      pop\n        /* \"#utility.yul\":19472:19520   */\n      swap2\n      swap1\n      pop\n      jump\t// out\n        /* \"#utility.yul\":19526:19675   */\n    tag_502:\n      0x00\n        /* \"#utility.yul\":19602:19668   */\n      0xffffffff00000000000000000000000000000000000000000000000000000000\n        /* \"#utility.yul\":19595:19600   */\n      dup3\n        /* \"#utility.yul\":19591:19669   */\n      and\n        /* \"#utility.yul\":19580:19669   */\n      swap1\n      pop\n        /* \"#utility.yul\":19570:19675   */\n      swap2\n      swap1\n      pop\n      jump\t// out\n        /* \"#utility.yul\":19681:19807   */\n    tag_500:\n      0x00\n        /* \"#utility.yul\":19758:19800   */\n      0xffffffffffffffffffffffffffffffffffffffff\n        /* \"#utility.yul\":19751:19756   */\n      dup3\n        /* \"#utility.yul\":19747:19801   */\n      and\n        /* \"#utility.yul\":19736:19801   */\n      swap1\n      pop\n        /* \"#utility.yul\":19726:19807   */\n      swap2\n      swap1\n      pop\n      jump\t// out\n        /* \"#utility.yul\":19813:19890   */\n    tag_426:\n      0x00\n        /* \"#utility.yul\":19879:19884   */\n      dup2\n        /* \"#utility.yul\":19868:19884   */\n      swap1\n      pop\n        /* \"#utility.yul\":19858:19890   */\n      swap2\n      swap1\n      pop\n      jump\t// out\n        /* \"#utility.yul\":19896:20050   */\n    tag_276:\n        /* \"#utility.yul\":19980:19986   */\n      dup3\n        /* \"#utility.yul\":19975:19978   */\n      dup2\n        /* \"#utility.yul\":19970:19973   */\n      dup4\n        /* \"#utility.yul\":19957:19987   */\n      calldatacopy\n        /* \"#utility.yul\":20042:20043   */\n      0x00\n        /* \"#utility.yul\":20033:20039   */\n      dup4\n        /* \"#utility.yul\":20028:20031   */\n      dup4\n        /* \"#utility.yul\":20024:20040   */\n      add\n        /* \"#utility.yul\":20017:20044   */\n      mstore\n        /* \"#utility.yul\":19947:20050   */\n      pop\n      pop\n      pop\n      jump\t// out\n        /* \"#utility.yul\":20056:20363   */\n    tag_351:\n        /* \"#utility.yul\":20124:20125   */\n      0x00\n        /* \"#utility.yul\":20134:20247   */\n    tag_508:\n        /* \"#utility.yul\":20148:20154   */\n      dup4\n        /* \"#utility.yul\":20145:20146   */\n      dup2\n        /* \"#utility.yul\":20142:20155   */\n      lt\n        /* \"#utility.yul\":20134:20247   */\n      iszero\n      tag_510\n      jumpi\n        /* \"#utility.yul\":20233:20234   */\n      dup1\n        /* \"#utility.yul\":20228:20231   */\n      dup3\n        /* \"#utility.yul\":20224:20235   */\n      add\n        /* \"#utility.yul\":20218:20236   */\n      mload\n        /* \"#utility.yul\":20214:20215   */\n      dup2\n        /* \"#utility.yul\":20209:20212   */\n      dup5\n        /* \"#utility.yul\":20205:20216   */\n      add\n        /* \"#utility.yul\":20198:20237   */\n      mstore\n        /* \"#utility.yul\":20170:20172   */\n      0x20\n        /* \"#utility.yul\":20167:20168   */\n      dup2\n        /* \"#utility.yul\":20163:20173   */\n      add\n        /* \"#utility.yul\":20158:20173   */\n      swap1\n      pop\n        /* \"#utility.yul\":20134:20247   */\n      jump(tag_508)\n    tag_510:\n        /* \"#utility.yul\":20265:20271   */\n      dup4\n        /* \"#utility.yul\":20262:20263   */\n      dup2\n        /* \"#utility.yul\":20259:20272   */\n      gt\n        /* \"#utility.yul\":20256:20258   */\n      iszero\n      tag_511\n      jumpi\n        /* \"#utility.yul\":20345:20346   */\n      0x00\n        /* \"#utility.yul\":20336:20342   */\n      dup5\n        /* \"#utility.yul\":20331:20334   */\n      dup5\n        /* \"#utility.yul\":20327:20343   */\n      add\n        /* \"#utility.yul\":20320:20347   */\n      mstore\n        /* \"#utility.yul\":20256:20258   */\n    tag_511:\n        /* \"#utility.yul\":20105:20363   */\n      pop\n      pop\n      pop\n      pop\n      jump\t// out\n        /* \"#utility.yul\":20369:20689   */\n    tag_88:\n      0x00\n        /* \"#utility.yul\":20450:20451   */\n      0x02\n        /* \"#utility.yul\":20444:20448   */\n      dup3\n        /* \"#utility.yul\":20440:20452   */\n      div\n        /* \"#utility.yul\":20430:20452   */\n      swap1\n      pop\n        /* \"#utility.yul\":20497:20498   */\n      0x01\n        /* \"#utility.yul\":20491:20495   */\n      dup3\n        /* \"#utility.yul\":20487:20499   */\n      and\n        /* \"#utility.yul\":20518:20536   */\n      dup1\n        /* \"#utility.yul\":20508:20510   */\n      tag_513\n      jumpi\n        /* \"#utility.yul\":20574:20578   */\n      0x7f\n        /* \"#utility.yul\":20566:20572   */\n      dup3\n        /* \"#utility.yul\":20562:20579   */\n      and\n        /* \"#utility.yul\":20552:20579   */\n      swap2\n      pop\n        /* \"#utility.yul\":20508:20510   */\n    tag_513:\n        /* \"#utility.yul\":20636:20638   */\n      0x20\n        /* \"#utility.yul\":20628:20634   */\n      dup3\n        /* \"#utility.yul\":20625:20639   */\n      lt\n        /* \"#utility.yul\":20605:20623   */\n      dup2\n        /* \"#utility.yul\":20602:20640   */\n      eq\n        /* \"#utility.yul\":20599:20601   */\n      iszero\n      tag_514\n      jumpi\n        /* \"#utility.yul\":20655:20673   */\n      tag_515\n      tag_516\n      jump\t// in\n    tag_515:\n        /* \"#utility.yul\":20599:20601   */\n    tag_514:\n        /* \"#utility.yul\":20420:20689   */\n      pop\n      swap2\n      swap1\n      pop\n      jump\t// out\n        /* \"#utility.yul\":20695:20976   */\n    tag_469:\n        /* \"#utility.yul\":20778:20805   */\n      tag_518\n        /* \"#utility.yul\":20800:20804   */\n      dup3\n        /* \"#utility.yul\":20778:20805   */\n      tag_353\n      jump\t// in\n    tag_518:\n        /* \"#utility.yul\":20770:20776   */\n      dup2\n        /* \"#utility.yul\":20766:20806   */\n      add\n        /* \"#utility.yul\":20908:20914   */\n      dup2\n        /* \"#utility.yul\":20896:20906   */\n      dup2\n        /* \"#utility.yul\":20893:20915   */\n      lt\n        /* \"#utility.yul\":20872:20890   */\n      0xffffffffffffffff\n        /* \"#utility.yul\":20860:20870   */\n      dup3\n        /* \"#utility.yul\":20857:20891   */\n      gt\n        /* \"#utility.yul\":20854:20916   */\n      or\n        /* \"#utility.yul\":20851:20853   */\n      iszero\n      tag_519\n      jumpi\n        /* \"#utility.yul\":20919:20937   */\n      tag_520\n      tag_474\n      jump\t// in\n    tag_520:\n        /* \"#utility.yul\":20851:20853   */\n    tag_519:\n        /* \"#utility.yul\":20959:20969   */\n      dup1\n        /* \"#utility.yul\":20955:20957   */\n      0x40\n        /* \"#utility.yul\":20948:20970   */\n      mstore\n        /* \"#utility.yul\":20738:20976   */\n      pop\n      pop\n      pop\n      jump\t// out\n        /* \"#utility.yul\":20982:21215   */\n    tag_215:\n      0x00\n        /* \"#utility.yul\":21044:21068   */\n      tag_522\n        /* \"#utility.yul\":21062:21067   */\n      dup3\n        /* \"#utility.yul\":21044:21068   */\n      tag_426\n      jump\t// in\n    tag_522:\n        /* \"#utility.yul\":21035:21068   */\n      swap2\n      pop\n        /* \"#utility.yul\":21090:21156   */\n      0xffffffffffffffffffffffffffffffffffffffffffffffffffffffffffffffff\n        /* \"#utility.yul\":21083:21088   */\n      dup3\n        /* \"#utility.yul\":21080:21157   */\n      eq\n        /* \"#utility.yul\":21077:21079   */\n      iszero\n      tag_523\n      jumpi\n        /* \"#utility.yul\":21160:21178   */\n      tag_524\n      tag_486\n      jump\t// in\n    tag_524:\n        /* \"#utility.yul\":21077:21079   */\n    tag_523:\n        /* \"#utility.yul\":21207:21208   */\n      0x01\n        /* \"#utility.yul\":21200:21205   */\n      dup3\n        /* \"#utility.yul\":21196:21209   */\n      add\n        /* \"#utility.yul\":21189:21209   */\n      swap1\n      pop\n        /* \"#utility.yul\":21025:21215   */\n      swap2\n      swap1\n      pop\n      jump\t// out\n        /* \"#utility.yul\":21221:21397   */\n    tag_224:\n      0x00\n        /* \"#utility.yul\":21270:21290   */\n      tag_526\n        /* \"#utility.yul\":21288:21289   */\n      dup3\n        /* \"#utility.yul\":21270:21290   */\n      tag_426\n      jump\t// in\n    tag_526:\n        /* \"#utility.yul\":21265:21290   */\n      swap2\n      pop\n        /* \"#utility.yul\":21304:21324   */\n      tag_527\n        /* \"#utility.yul\":21322:21323   */\n      dup4\n        /* \"#utility.yul\":21304:21324   */\n      tag_426\n      jump\t// in\n    tag_527:\n        /* \"#utility.yul\":21299:21324   */\n      swap3\n      pop\n        /* \"#utility.yul\":21343:21344   */\n      dup3\n        /* \"#utility.yul\":21333:21335   */\n      tag_528\n      jumpi\n        /* \"#utility.yul\":21348:21366   */\n      tag_529\n      tag_492\n      jump\t// in\n    tag_529:\n        /* \"#utility.yul\":21333:21335   */\n    tag_528:\n        /* \"#utility.yul\":21389:21390   */\n      dup3\n        /* \"#utility.yul\":21386:21387   */\n      dup3\n        /* \"#utility.yul\":21382:21391   */\n      mod\n        /* \"#utility.yul\":21377:21391   */\n      swap1\n      pop\n        /* \"#utility.yul\":21255:21397   */\n      swap3\n      swap2\n      pop\n      pop\n      jump\t// out\n        /* \"#utility.yul\":21403:21583   */\n    tag_486:\n        /* \"#utility.yul\":21451:21528   */\n      0x4e487b7100000000000000000000000000000000000000000000000000000000\n        /* \"#utility.yul\":21448:21449   */\n      0x00\n        /* \"#utility.yul\":21441:21529   */\n      mstore\n        /* \"#utility.yul\":21548:21552   */\n      0x11\n        /* \"#utility.yul\":21545:21546   */\n      0x04\n        /* \"#utility.yul\":21538:21553   */\n      mstore\n        /* \"#utility.yul\":21572:21576   */\n      0x24\n        /* \"#utility.yul\":21569:21570   */\n      0x00\n        /* \"#utility.yul\":21562:21577   */\n      revert\n        /* \"#utility.yul\":21589:21769   */\n    tag_492:\n        /* \"#utility.yul\":21637:21714   */\n      0x4e487b7100000000000000000000000000000000000000000000000000000000\n        /* \"#utility.yul\":21634:21635   */\n      0x00\n        /* \"#utility.yul\":21627:21715   */\n      mstore\n        /* \"#utility.yul\":21734:21738   */\n      0x12\n        /* \"#utility.yul\":21731:21732   */\n      0x04\n        /* \"#utility.yul\":21724:21739   */\n      mstore\n        /* \"#utility.yul\":21758:21762   */\n      0x24\n        /* \"#utility.yul\":21755:21756   */\n      0x00\n        /* \"#utility.yul\":21748:21763   */\n      revert\n        /* \"#utility.yul\":21775:21955   */\n    tag_516:\n        /* \"#utility.yul\":21823:21900   */\n      0x4e487b7100000000000000000000000000000000000000000000000000000000\n        /* \"#utility.yul\":21820:21821   */\n      0x00\n        /* \"#utility.yul\":21813:21901   */\n      mstore\n        /* \"#utility.yul\":21920:21924   */\n      0x22\n        /* \"#utility.yul\":21917:21918   */\n      0x04\n        /* \"#utility.yul\":21910:21925   */\n      mstore\n        /* \"#utility.yul\":21944:21948   */\n      0x24\n        /* \"#utility.yul\":21941:21942   */\n      0x00\n        /* \"#utility.yul\":21934:21949   */\n      revert\n        /* \"#utility.yul\":21961:22141   */\n    tag_474:\n        /* \"#utility.yul\":22009:22086   */\n      0x4e487b7100000000000000000000000000000000000000000000000000000000\n        /* \"#utility.yul\":22006:22007   */\n      0x00\n        /* \"#utility.yul\":21999:22087   */\n      mstore\n        /* \"#utility.yul\":22106:22110   */\n      0x41\n        /* \"#utility.yul\":22103:22104   */\n      0x04\n        /* \"#utility.yul\":22096:22111   */\n      mstore\n        /* \"#utility.yul\":22130:22134   */\n      0x24\n        /* \"#utility.yul\":22127:22128   */\n      0x00\n        /* \"#utility.yul\":22120:22135   */\n      revert\n        /* \"#utility.yul\":22147:22249   */\n    tag_353:\n      0x00\n        /* \"#utility.yul\":22239:22241   */\n      0x1f\n        /* \"#utility.yul\":22235:22242   */\n      not\n        /* \"#utility.yul\":22230:22232   */\n      0x1f\n        /* \"#utility.yul\":22223:22228   */\n      dup4\n        /* \"#utility.yul\":22219:22233   */\n      add\n        /* \"#utility.yul\":22215:22243   */\n      and\n        /* \"#utility.yul\":22205:22243   */\n      swap1\n      pop\n        /* \"#utility.yul\":22195:22249   */\n      swap2\n      swap1\n      pop\n      jump\t// out\n        /* \"#utility.yul\":22255:22492   */\n    tag_372:\n        /* \"#utility.yul\":22395:22429   */\n      0x4552433732313a207472616e7366657220746f206e6f6e204552433732315265\n        /* \"#utility.yul\":22391:22392   */\n      0x00\n        /* \"#utility.yul\":22383:22389   */\n      dup3\n        /* \"#utility.yul\":22379:22393   */\n      add\n        /* \"#utility.yul\":22372:22430   */\n      mstore\n        /* \"#utility.yul\":22464:22484   */\n      0x63656976657220696d706c656d656e7465720000000000000000000000000000\n        /* \"#utility.yul\":22459:22461   */\n      0x20\n        /* \"#utility.yul\":22451:22457   */\n      dup3\n        /* \"#utility.yul\":22447:22462   */\n      add\n        /* \"#utility.yul\":22440:22485   */\n      mstore\n        /* \"#utility.yul\":22361:22492   */\n      pop\n      jump\t// out\n        /* \"#utility.yul\":22498:22722   */\n    tag_377:\n        /* \"#utility.yul\":22638:22672   */\n      0x4552433732313a207472616e736665722066726f6d20696e636f727265637420\n        /* \"#utility.yul\":22634:22635   */\n      0x00\n        /* \"#utility.yul\":22626:22632   */\n      dup3\n        /* \"#utility.yul\":22622:22636   */\n      add\n        /* \"#utility.yul\":22615:22673   */\n      mstore\n        /* \"#utility.yul\":22707:22714   */\n      0x6f776e6572000000000000000000000000000000000000000000000000000000\n        /* \"#utility.yul\":22702:22704   */\n      0x20\n        /* \"#utility.yul\":22694:22700   */\n      dup3\n        /* \"#utility.yul\":22690:22705   */\n      add\n        /* \"#utility.yul\":22683:22715   */\n      mstore\n        /* \"#utility.yul\":22604:22722   */\n      pop\n      jump\t// out\n        /* \"#utility.yul\":22728:22906   */\n    tag_382:\n        /* \"#utility.yul\":22868:22898   */\n      0x4552433732313a20746f6b656e20616c7265616479206d696e74656400000000\n        /* \"#utility.yul\":22864:22865   */\n      0x00\n        /* \"#utility.yul\":22856:22862   */\n      dup3\n        /* \"#utility.yul\":22852:22866   */\n      add\n        /* \"#utility.yul\":22845:22899   */\n      mstore\n        /* \"#utility.yul\":22834:22906   */\n      pop\n      jump\t// out\n        /* \"#utility.yul\":22912:23135   */\n    tag_387:\n        /* \"#utility.yul\":23052:23086   */\n      0x4552433732313a207472616e7366657220746f20746865207a65726f20616464\n        /* \"#utility.yul\":23048:23049   */\n      0x00\n        /* \"#utility.yul\":23040:23046   */\n      dup3\n        /* \"#utility.yul\":23036:23050   */\n      add\n        /* \"#utility.yul\":23029:23087   */\n      mstore\n        /* \"#utility.yul\":23121:23127   */\n      0x7265737300000000000000000000000000000000000000000000000000000000\n        /* \"#utility.yul\":23116:23118   */\n      0x20\n        /* \"#utility.yul\":23108:23114   */\n      dup3\n        /* \"#utility.yul\":23104:23119   */\n      add\n        /* \"#utility.yul\":23097:23128   */\n      mstore\n        /* \"#utility.yul\":23018:23135   */\n      pop\n      jump\t// out\n        /* \"#utility.yul\":23141:23316   */\n    tag_392:\n        /* \"#utility.yul\":23281:23308   */\n      0x4552433732313a20617070726f766520746f2063616c6c657200000000000000\n        /* \"#utility.yul\":23277:23278   */\n      0x00\n        /* \"#utility.yul\":23269:23275   */\n      dup3\n        /* \"#utility.yul\":23265:23279   */\n      add\n        /* \"#utility.yul\":23258:23309   */\n      mstore\n        /* \"#utility.yul\":23247:23316   */\n      pop\n      jump\t// out\n        /* \"#utility.yul\":23322:23550   */\n    tag_397:\n        /* \"#utility.yul\":23462:23496   */\n      0x4552433732313a2061646472657373207a65726f206973206e6f742061207661\n        /* \"#utility.yul\":23458:23459   */\n      0x00\n        /* \"#utility.yul\":23450:23456   */\n      dup3\n        /* \"#utility.yul\":23446:23460   */\n      add\n        /* \"#utility.yul\":23439:23497   */\n      mstore\n        /* \"#utility.yul\":23531:23542   */\n      0x6c6964206f776e65720000000000000000000000000000000000000000000000\n        /* \"#utility.yul\":23526:23528   */\n      0x20\n        /* \"#utility.yul\":23518:23524   */\n      dup3\n        /* \"#utility.yul\":23514:23529   */\n      add\n        /* \"#utility.yul\":23507:23543   */\n      mstore\n        /* \"#utility.yul\":23428:23550   */\n      pop\n      jump\t// out\n        /* \"#utility.yul\":23556:23805   */\n    tag_402:\n        /* \"#utility.yul\":23696:23730   */\n      0x4552433732313a20617070726f76652063616c6c6572206973206e6f7420746f\n        /* \"#utility.yul\":23692:23693   */\n      0x00\n        /* \"#utility.yul\":23684:23690   */\n      dup3\n        /* \"#utility.yul\":23680:23694   */\n      add\n        /* \"#utility.yul\":23673:23731   */\n      mstore\n        /* \"#utility.yul\":23765:23797   */\n      0x6b656e206f776e6572206e6f7220617070726f76656420666f7220616c6c0000\n        /* \"#utility.yul\":23760:23762   */\n      0x20\n        /* \"#utility.yul\":23752:23758   */\n      dup3\n        /* \"#utility.yul\":23748:23763   */\n      add\n        /* \"#utility.yul\":23741:23798   */\n      mstore\n        /* \"#utility.yul\":23662:23805   */\n      pop\n      jump\t// out\n        /* \"#utility.yul\":23811:23993   */\n    tag_407:\n        /* \"#utility.yul\":23951:23985   */\n      0x4552433732313a206d696e7420746f20746865207a65726f2061646472657373\n        /* \"#utility.yul\":23947:23948   */\n      0x00\n        /* \"#utility.yul\":23939:23945   */\n      dup3\n        /* \"#utility.yul\":23935:23949   */\n      add\n        /* \"#utility.yul\":23928:23986   */\n      mstore\n        /* \"#utility.yul\":23917:23993   */\n      pop\n      jump\t// out\n        /* \"#utility.yul\":23999:24173   */\n    tag_412:\n        /* \"#utility.yul\":24139:24165   */\n      0x4552433732313a20696e76616c696420746f6b656e2049440000000000000000\n        /* \"#utility.yul\":24135:24136   */\n      0x00\n        /* \"#utility.yul\":24127:24133   */\n      dup3\n        /* \"#utility.yul\":24123:24137   */\n      add\n        /* \"#utility.yul\":24116:24166   */\n      mstore\n        /* \"#utility.yul\":24105:24173   */\n      pop\n      jump\t// out\n        /* \"#utility.yul\":24179:24399   */\n    tag_417:\n        /* \"#utility.yul\":24319:24353   */\n      0x4552433732313a20617070726f76616c20746f2063757272656e74206f776e65\n        /* \"#utility.yul\":24315:24316   */\n      0x00\n        /* \"#utility.yul\":24307:24313   */\n      dup3\n        /* \"#utility.yul\":24303:24317   */\n      add\n        /* \"#utility.yul\":24296:24354   */\n      mstore\n        /* \"#utility.yul\":24388:24391   */\n      0x7200000000000000000000000000000000000000000000000000000000000000\n        /* \"#utility.yul\":24383:24385   */\n      0x20\n        /* \"#utility.yul\":24375:24381   */\n      dup3\n        /* \"#utility.yul\":24371:24386   */\n      add\n        /* \"#utility.yul\":24364:24392   */\n      mstore\n        /* \"#utility.yul\":24285:24399   */\n      pop\n      jump\t// out\n        /* \"#utility.yul\":24405:24638   */\n    tag_422:\n        /* \"#utility.yul\":24545:24579   */\n      0x4552433732313a2063616c6c6572206973206e6f7420746f6b656e206f776e65\n        /* \"#utility.yul\":24541:24542   */\n      0x00\n        /* \"#utility.yul\":24533:24539   */\n      dup3\n        /* \"#utility.yul\":24529:24543   */\n      add\n        /* \"#utility.yul\":24522:24580   */\n      mstore\n        /* \"#utility.yul\":24614:24630   */\n      0x72206e6f7220617070726f766564000000000000000000000000000000000000\n        /* \"#utility.yul\":24609:24611   */\n      0x20\n        /* \"#utility.yul\":24601:24607   */\n      dup3\n        /* \"#utility.yul\":24597:24612   */\n      add\n        /* \"#utility.yul\":24590:24631   */\n      mstore\n        /* \"#utility.yul\":24511:24638   */\n      pop\n      jump\t// out\n        /* \"#utility.yul\":24644:24766   */\n    tag_280:\n        /* \"#utility.yul\":24717:24741   */\n      tag_547\n        /* \"#utility.yul\":24735:24740   */\n      dup2\n        /* \"#utility.yul\":24717:24741   */\n      tag_339\n      jump\t// in\n    tag_547:\n        /* \"#utility.yul\":24710:24715   */\n      dup2\n        /* \"#utility.yul\":24707:24742   */\n      eq\n        /* \"#utility.yul\":24697:24699   */\n      tag_548\n      jumpi\n        /* \"#utility.yul\":24756:24757   */\n      0x00\n        /* \"#utility.yul\":24753:24754   */\n      dup1\n        /* \"#utility.yul\":24746:24758   */\n      revert\n        /* \"#utility.yul\":24697:24699   */\n    tag_548:\n        /* \"#utility.yul\":24687:24766   */\n      pop\n      jump\t// out\n        /* \"#utility.yul\":24772:24888   */\n    tag_284:\n        /* \"#utility.yul\":24842:24863   */\n      tag_550\n        /* \"#utility.yul\":24857:24862   */\n      dup2\n        /* \"#utility.yul\":24842:24863   */\n      tag_343\n      jump\t// in\n    tag_550:\n        /* \"#utility.yul\":24835:24840   */\n      dup2\n        /* \"#utility.yul\":24832:24864   */\n      eq\n        /* \"#utility.yul\":24822:24824   */\n      tag_551\n      jumpi\n        /* \"#utility.yul\":24878:24879   */\n      0x00\n        /* \"#utility.yul\":24875:24876   */\n      dup1\n        /* \"#utility.yul\":24868:24880   */\n      revert\n        /* \"#utility.yul\":24822:24824   */\n    tag_551:\n        /* \"#utility.yul\":24812:24888   */\n      pop\n      jump\t// out\n        /* \"#utility.yul\":24894:25014   */\n    tag_288:\n        /* \"#utility.yul\":24966:24989   */\n      tag_553\n        /* \"#utility.yul\":24983:24988   */\n      dup2\n        /* \"#utility.yul\":24966:24989   */\n      tag_502\n      jump\t// in\n    tag_553:\n        /* \"#utility.yul\":24959:24964   */\n      dup2\n        /* \"#utility.yul\":24956:24990   */\n      eq\n        /* \"#utility.yul\":24946:24948   */\n      tag_554\n      jumpi\n        /* \"#utility.yul\":25004:25005   */\n      0x00\n        /* \"#utility.yul\":25001:25002   */\n      dup1\n        /* \"#utility.yul\":24994:25006   */\n      revert\n        /* \"#utility.yul\":24946:24948   */\n    tag_554:\n        /* \"#utility.yul\":24936:25014   */\n      pop\n      jump\t// out\n        /* \"#utility.yul\":25020:25142   */\n    tag_299:\n        /* \"#utility.yul\":25093:25117   */\n      tag_556\n        /* \"#utility.yul\":25111:25116   */\n      dup2\n        /* \"#utility.yul\":25093:25117   */\n      tag_426\n      jump\t// in\n    tag_556:\n        /* \"#utility.yul\":25086:25091   */\n      dup2\n        /* \"#utility.yul\":25083:25118   */\n      eq\n        /* \"#utility.yul\":25073:25075   */\n      tag_557\n      jumpi\n        /* \"#utility.yul\":25132:25133   */\n      0x00\n        /* \"#utility.yul\":25129:25130   */\n      dup1\n        /* \"#utility.yul\":25122:25134   */\n      revert\n        /* \"#utility.yul\":25073:25075   */\n    tag_557:\n        /* \"#utility.yul\":25063:25142   */\n      pop\n      jump\t// out\n\n    auxdata: 0xa26469706673582212209a6d46b4b95c1ac047edff4dff5630606dcafd44157edf3531682282bdd7e1df64736f6c63430008010033\n}\n",
				"bytecode": {
					"linkReferences": {},
					"object": "60806040523480156200001157600080fd5b506040516200286d3803806200286d833981810160405281019062000037919062000197565b818181600090805190602001906200005192919062000075565b5080600190805190602001906200006a92919062000075565b50505050506200037a565b82805462000083906200029f565b90600052602060002090601f016020900481019282620000a75760008555620000f3565b82601f10620000c257805160ff1916838001178555620000f3565b82800160010185558215620000f3579182015b82811115620000f2578251825591602001919060010190620000d5565b5b50905062000102919062000106565b5090565b5b808211156200012157600081600090555060010162000107565b5090565b60006200013c620001368462000233565b6200020a565b9050828152602081018484840111156200015557600080fd5b6200016284828562000269565b509392505050565b600082601f8301126200017c57600080fd5b81516200018e84826020860162000125565b91505092915050565b60008060408385031215620001ab57600080fd5b600083015167ffffffffffffffff811115620001c657600080fd5b620001d4858286016200016a565b925050602083015167ffffffffffffffff811115620001f257600080fd5b62000200858286016200016a565b9150509250929050565b60006200021662000229565b9050620002248282620002d5565b919050565b6000604051905090565b600067ffffffffffffffff8211156200025157620002506200033a565b5b6200025c8262000369565b9050602081019050919050565b60005b83811015620002895780820151818401526020810190506200026c565b8381111562000299576000848401525b50505050565b60006002820490506001821680620002b857607f821691505b60208210811415620002cf57620002ce6200030b565b5b50919050565b620002e08262000369565b810181811067ffffffffffffffff821117156200030257620003016200033a565b5b80604052505050565b7f4e487b7100000000000000000000000000000000000000000000000000000000600052602260045260246000fd5b7f4e487b7100000000000000000000000000000000000000000000000000000000600052604160045260246000fd5b6000601f19601f8301169050919050565b6124e3806200038a6000396000f3fe608060405234801561001057600080fd5b50600436106100ea5760003560e01c806370a082311161008c578063b88d4fde11610066578063b88d4fde1461025b578063c87b56dd14610277578063e985e9c5146102a7578063f2fb2120146102d7576100ea565b806370a08231146101f157806395d89b4114610221578063a22cb4651461023f576100ea565b8063095ea7b3116100c8578063095ea7b31461016d57806323b872dd1461018957806342842e0e146101a55780636352211e146101c1576100ea565b806301ffc9a7146100ef57806306fdde031461011f578063081812fc1461013d575b600080fd5b610109600480360381019061010491906118c1565b610307565b6040516101169190611c18565b60405180910390f35b6101276103e9565b6040516101349190611c33565b60405180910390f35b61015760048036038101906101529190611913565b61047b565b6040516101649190611bb1565b60405180910390f35b61018760048036038101906101829190611885565b6104c1565b005b6101a3600480360381019061019e919061177f565b6105d9565b005b6101bf60048036038101906101ba919061177f565b610639565b005b6101db60048036038101906101d69190611913565b610659565b6040516101e89190611bb1565b60405180910390f35b61020b6004803603810190610206919061171a565b61070b565b6040516102189190611db5565b60405180910390f35b6102296107c3565b6040516102369190611c33565b60405180910390f35b61025960048036038101906102549190611849565b610855565b005b610275600480360381019061027091906117ce565b61086b565b005b610291600480360381019061028c9190611913565b6108cd565b60405161029e9190611c33565b60405180910390f35b6102c160048036038101906102bc9190611743565b610935565b6040516102ce9190611c18565b60405180910390f35b6102f160048036038101906102ec919061171a565b6109c9565b6040516102fe9190611db5565b60405180910390f35b60007f80ac58cd000000000000000000000000000000000000000000000000000000007bffffffffffffffffffffffffffffffffffffffffffffffffffffffff1916827bffffffffffffffffffffffffffffffffffffffffffffffffffffffff191614806103d257507f5b5e139f000000000000000000000000000000000000000000000000000000007bffffffffffffffffffffffffffffffffffffffffffffffffffffffff1916827bffffffffffffffffffffffffffffffffffffffffffffffffffffffff1916145b806103e257506103e1826109f6565b5b9050919050565b6060600080546103f890611fda565b80601f016020809104026020016040519081016040528092919081815260200182805461042490611fda565b80156104715780601f1061044657610100808354040283529160200191610471565b820191906000526020600020905b81548152906001019060200180831161045457829003601f168201915b5050505050905090565b600061048682610a60565b6004600083815260200190815260200160002060009054906101000a900473ffffffffffffffffffffffffffffffffffffffff169050919050565b60006104cc82610659565b90508073ffffffffffffffffffffffffffffffffffffffff168373ffffffffffffffffffffffffffffffffffffffff16141561053d576040517f08c379a000000000000000000000000000000000000000000000000000000000815260040161053490611d75565b60405180910390fd5b8073ffffffffffffffffffffffffffffffffffffffff1661055c610aab565b73ffffffffffffffffffffffffffffffffffffffff16148061058b575061058a81610585610aab565b610935565b5b6105ca576040517f08c379a00000000000000000000000000000000000000000000000000000000081526004016105c190611d15565b60405180910390fd5b6105d48383610ab3565b505050565b6105ea6105e4610aab565b82610b6c565b610629576040517f08c379a000000000000000000000000000000000000000000000000000000000815260040161062090611d95565b60405180910390fd5b610634838383610c01565b505050565b6106548383836040518060200160405280600081525061086b565b505050565b6000806002600084815260200190815260200160002060009054906101000a900473ffffffffffffffffffffffffffffffffffffffff169050600073ffffffffffffffffffffffffffffffffffffffff168173ffffffffffffffffffffffffffffffffffffffff161415610702576040517f08c379a00000000000000000000000000000000000000000000000000000000081526004016106f990611d55565b60405180910390fd5b80915050919050565b60008073ffffffffffffffffffffffffffffffffffffffff168273ffffffffffffffffffffffffffffffffffffffff16141561077c576040517f08c379a000000000000000000000000000000000000000000000000000000000815260040161077390611cf5565b60405180910390fd5b600360008373ffffffffffffffffffffffffffffffffffffffff1673ffffffffffffffffffffffffffffffffffffffff168152602001908152602001600020549050919050565b6060600180546107d290611fda565b80601f01602080910402602001604051908101604052809291908181526020018280546107fe90611fda565b801561084b5780601f106108205761010080835404028352916020019161084b565b820191906000526020600020905b81548152906001019060200180831161082e57829003601f168201915b5050505050905090565b610867610860610aab565b8383610e68565b5050565b61087c610876610aab565b83610b6c565b6108bb576040517f08c379a00000000000000000000000000000000000000000000000000000000081526004016108b290611d95565b60405180910390fd5b6108c784848484610fd5565b50505050565b60606108d882610a60565b60006108e2611031565b90506000815111610902576040518060200160405280600081525061092d565b8061090c8461106e565b60405160200161091d929190611b8d565b6040516020818303038152906040525b915050919050565b6000600560008473ffffffffffffffffffffffffffffffffffffffff1673ffffffffffffffffffffffffffffffffffffffff16815260200190815260200160002060008373ffffffffffffffffffffffffffffffffffffffff1673ffffffffffffffffffffffffffffffffffffffff16815260200190815260200160002060009054906101000a900460ff16905092915050565b60006109d5600661121b565b60006109e16006611231565b90506109ed838261123f565b80915050919050565b60007f01ffc9a7000000000000000000000000000000000000000000000000000000007bffffffffffffffffffffffffffffffffffffffffffffffffffffffff1916827bffffffffffffffffffffffffffffffffffffffffffffffffffffffff1916149050919050565b610a6981611419565b610aa8576040517f08c379a0000000000000000000000000000000000000000000000000000000008152600401610a9f90611d55565b60405180910390fd5b50565b600033905090565b816004600083815260200190815260200160002060006101000a81548173ffffffffffffffffffffffffffffffffffffffff021916908373ffffffffffffffffffffffffffffffffffffffff160217905550808273ffffffffffffffffffffffffffffffffffffffff16610b2683610659565b73ffffffffffffffffffffffffffffffffffffffff167f8c5be1e5ebec7d5bd14f71427d1e84f3dd0314c0f7b2291e5b200ac8c7c3b92560405160405180910390a45050565b600080610b7883610659565b90508073ffffffffffffffffffffffffffffffffffffffff168473ffffffffffffffffffffffffffffffffffffffff161480610bba5750610bb98185610935565b5b80610bf857508373ffffffffffffffffffffffffffffffffffffffff16610be08461047b565b73ffffffffffffffffffffffffffffffffffffffff16145b91505092915050565b8273ffffffffffffffffffffffffffffffffffffffff16610c2182610659565b73ffffffffffffffffffffffffffffffffffffffff1614610c77576040517f08c379a0000000000000000000000000000000000000000000000000000000008152600401610c6e90611c75565b60405180910390fd5b600073ffffffffffffffffffffffffffffffffffffffff168273ffffffffffffffffffffffffffffffffffffffff161415610ce7576040517f08c379a0000000000000000000000000000000000000000000000000000000008152600401610cde90611cb5565b60405180910390fd5b610cf2838383611485565b610cfd600082610ab3565b6001600360008573ffffffffffffffffffffffffffffffffffffffff1673ffffffffffffffffffffffffffffffffffffffff1681526020019081526020016000206000828254610d4d9190611ef0565b925050819055506001600360008473ffffffffffffffffffffffffffffffffffffffff1673ffffffffffffffffffffffffffffffffffffffff1681526020019081526020016000206000828254610da49190611e69565b92505081905550816002600083815260200190815260200160002060006101000a81548173ffffffffffffffffffffffffffffffffffffffff021916908373ffffffffffffffffffffffffffffffffffffffff160217905550808273ffffffffffffffffffffffffffffffffffffffff168473ffffffffffffffffffffffffffffffffffffffff167fddf252ad1be2c89b69c2b068fc378daa952ba7f163c4a11628f55a4df523b3ef60405160405180910390a4610e6383838361148a565b505050565b8173ffffffffffffffffffffffffffffffffffffffff168373ffffffffffffffffffffffffffffffffffffffff161415610ed7576040517f08c379a0000000000000000000000000000000000000000000000000000000008152600401610ece90611cd5565b60405180910390fd5b80600560008573ffffffffffffffffffffffffffffffffffffffff1673ffffffffffffffffffffffffffffffffffffffff16815260200190815260200160002060008473ffffffffffffffffffffffffffffffffffffffff1673ffffffffffffffffffffffffffffffffffffffff16815260200190815260200160002060006101000a81548160ff0219169083151502179055508173ffffffffffffffffffffffffffffffffffffffff168373ffffffffffffffffffffffffffffffffffffffff167f17307eab39ab6107e8899845ad3d59bd9653f200f220920489ca2b5937696c3183604051610fc89190611c18565b60405180910390a3505050565b610fe0848484610c01565b610fec8484848461148f565b61102b576040517f08c379a000000000000000000000000000000000000000000000000000000000815260040161102290611c55565b60405180910390fd5b50505050565b60606040518060400160405280601581526020017f68747470733a2f2f726563672e636f6d2f6e66742f0000000000000000000000815250905090565b606060008214156110b6576040518060400160405280600181526020017f30000000000000000000000000000000000000000000000000000000000000008152509050611216565b600082905060005b600082146110e85780806110d19061203d565b915050600a826110e19190611ebf565b91506110be565b60008167ffffffffffffffff81111561112a577f4e487b7100000000000000000000000000000000000000000000000000000000600052604160045260246000fd5b6040519080825280601f01601f19166020018201604052801561115c5781602001600182028036833780820191505090505b5090505b6000851461120f576001826111759190611ef0565b9150600a856111849190612086565b60306111909190611e69565b60f81b8183815181106111cc577f4e487b7100000000000000000000000000000000000000000000000000000000600052603260045260246000fd5b60200101907effffffffffffffffffffffffffffffffffffffffffffffffffffffffffffff1916908160001a905350600a856112089190611ebf565b9450611160565b8093505050505b919050565b6001816000016000828254019250508190555050565b600081600001549050919050565b600073ffffffffffffffffffffffffffffffffffffffff168273ffffffffffffffffffffffffffffffffffffffff1614156112af576040517f08c379a00000000000000000000000000000000000000000000000000000000081526004016112a690611d35565b60405180910390fd5b6112b881611419565b156112f8576040517f08c379a00000000000000000000000000000000000000000000000000000000081526004016112ef90611c95565b60405180910390fd5b61130460008383611485565b6001600360008473ffffffffffffffffffffffffffffffffffffffff1673ffffffffffffffffffffffffffffffffffffffff16815260200190815260200160002060008282546113549190611e69565b92505081905550816002600083815260200190815260200160002060006101000a81548173ffffffffffffffffffffffffffffffffffffffff021916908373ffffffffffffffffffffffffffffffffffffffff160217905550808273ffffffffffffffffffffffffffffffffffffffff16600073ffffffffffffffffffffffffffffffffffffffff167fddf252ad1be2c89b69c2b068fc378daa952ba7f163c4a11628f55a4df523b3ef60405160405180910390a46114156000838361148a565b5050565b60008073ffffffffffffffffffffffffffffffffffffffff166002600084815260200190815260200160002060009054906101000a900473ffffffffffffffffffffffffffffffffffffffff1673ffffffffffffffffffffffffffffffffffffffff1614159050919050565b505050565b505050565b60006114b08473ffffffffffffffffffffffffffffffffffffffff16611626565b15611619578373ffffffffffffffffffffffffffffffffffffffff1663150b7a026114d9610aab565b8786866040518563ffffffff1660e01b81526004016114fb9493929190611bcc565b602060405180830381600087803b15801561151557600080fd5b505af192505050801561154657506040513d601f19601f8201168201806040525081019061154391906118ea565b60015b6115c9573d8060008114611576576040519150601f19603f3d011682016040523d82523d6000602084013e61157b565b606091505b506000815114156115c1576040517f08c379a00000000000000000000000000000000000000000000000000000000081526004016115b890611c55565b60405180910390fd5b805181602001fd5b63150b7a0260e01b7bffffffffffffffffffffffffffffffffffffffffffffffffffffffff1916817bffffffffffffffffffffffffffffffffffffffffffffffffffffffff19161491505061161e565b600190505b949350505050565b6000808273ffffffffffffffffffffffffffffffffffffffff163b119050919050565b600061165c61165784611df5565b611dd0565b90508281526020810184848401111561167457600080fd5b61167f848285611f98565b509392505050565b60008135905061169681612451565b92915050565b6000813590506116ab81612468565b92915050565b6000813590506116c08161247f565b92915050565b6000815190506116d58161247f565b92915050565b600082601f8301126116ec57600080fd5b81356116fc848260208601611649565b91505092915050565b60008135905061171481612496565b92915050565b60006020828403121561172c57600080fd5b600061173a84828501611687565b91505092915050565b6000806040838503121561175657600080fd5b600061176485828601611687565b925050602061177585828601611687565b9150509250929050565b60008060006060848603121561179457600080fd5b60006117a286828701611687565b93505060206117b386828701611687565b92505060406117c486828701611705565b9150509250925092565b600080600080608085870312156117e457600080fd5b60006117f287828801611687565b945050602061180387828801611687565b935050604061181487828801611705565b925050606085013567ffffffffffffffff81111561183157600080fd5b61183d878288016116db565b91505092959194509250565b6000806040838503121561185c57600080fd5b600061186a85828601611687565b925050602061187b8582860161169c565b9150509250929050565b6000806040838503121561189857600080fd5b60006118a685828601611687565b92505060206118b785828601611705565b9150509250929050565b6000602082840312156118d357600080fd5b60006118e1848285016116b1565b91505092915050565b6000602082840312156118fc57600080fd5b600061190a848285016116c6565b91505092915050565b60006020828403121561192557600080fd5b600061193384828501611705565b91505092915050565b61194581611f24565b82525050565b61195481611f36565b82525050565b600061196582611e26565b61196f8185611e3c565b935061197f818560208601611fa7565b61198881612173565b840191505092915050565b600061199e82611e31565b6119a88185611e4d565b93506119b8818560208601611fa7565b6119c181612173565b840191505092915050565b60006119d782611e31565b6119e18185611e5e565b93506119f1818560208601611fa7565b80840191505092915050565b6000611a0a603283611e4d565b9150611a1582612184565b604082019050919050565b6000611a2d602583611e4d565b9150611a38826121d3565b604082019050919050565b6000611a50601c83611e4d565b9150611a5b82612222565b602082019050919050565b6000611a73602483611e4d565b9150611a7e8261224b565b604082019050919050565b6000611a96601983611e4d565b9150611aa18261229a565b602082019050919050565b6000611ab9602983611e4d565b9150611ac4826122c3565b604082019050919050565b6000611adc603e83611e4d565b9150611ae782612312565b604082019050919050565b6000611aff602083611e4d565b9150611b0a82612361565b602082019050919050565b6000611b22601883611e4d565b9150611b2d8261238a565b602082019050919050565b6000611b45602183611e4d565b9150611b50826123b3565b604082019050919050565b6000611b68602e83611e4d565b9150611b7382612402565b604082019050919050565b611b8781611f8e565b82525050565b6000611b9982856119cc565b9150611ba582846119cc565b91508190509392505050565b6000602082019050611bc6600083018461193c565b92915050565b6000608082019050611be1600083018761193c565b611bee602083018661193c565b611bfb6040830185611b7e565b8181036060830152611c0d818461195a565b905095945050505050565b6000602082019050611c2d600083018461194b565b92915050565b60006020820190508181036000830152611c4d8184611993565b905092915050565b60006020820190508181036000830152611c6e816119fd565b9050919050565b60006020820190508181036000830152611c8e81611a20565b9050919050565b60006020820190508181036000830152611cae81611a43565b9050919050565b60006020820190508181036000830152611cce81611a66565b9050919050565b60006020820190508181036000830152611cee81611a89565b9050919050565b60006020820190508181036000830152611d0e81611aac565b9050919050565b60006020820190508181036000830152611d2e81611acf565b9050919050565b60006020820190508181036000830152611d4e81611af2565b9050919050565b60006020820190508181036000830152611d6e81611b15565b9050919050565b60006020820190508181036000830152611d8e81611b38565b9050919050565b60006020820190508181036000830152611dae81611b5b565b9050919050565b6000602082019050611dca6000830184611b7e565b92915050565b6000611dda611deb565b9050611de6828261200c565b919050565b6000604051905090565b600067ffffffffffffffff821115611e1057611e0f612144565b5b611e1982612173565b9050602081019050919050565b600081519050919050565b600081519050919050565b600082825260208201905092915050565b600082825260208201905092915050565b600081905092915050565b6000611e7482611f8e565b9150611e7f83611f8e565b9250827fffffffffffffffffffffffffffffffffffffffffffffffffffffffffffffffff03821115611eb457611eb36120b7565b5b828201905092915050565b6000611eca82611f8e565b9150611ed583611f8e565b925082611ee557611ee46120e6565b5b828204905092915050565b6000611efb82611f8e565b9150611f0683611f8e565b925082821015611f1957611f186120b7565b5b828203905092915050565b6000611f2f82611f6e565b9050919050565b60008115159050919050565b60007fffffffff0000000000000000000000000000000000000000000000000000000082169050919050565b600073ffffffffffffffffffffffffffffffffffffffff82169050919050565b6000819050919050565b82818337600083830152505050565b60005b83811015611fc5578082015181840152602081019050611faa565b83811115611fd4576000848401525b50505050565b60006002820490506001821680611ff257607f821691505b6020821081141561200657612005612115565b5b50919050565b61201582612173565b810181811067ffffffffffffffff8211171561203457612033612144565b5b80604052505050565b600061204882611f8e565b91507fffffffffffffffffffffffffffffffffffffffffffffffffffffffffffffffff82141561207b5761207a6120b7565b5b600182019050919050565b600061209182611f8e565b915061209c83611f8e565b9250826120ac576120ab6120e6565b5b828206905092915050565b7f4e487b7100000000000000000000000000000000000000000000000000000000600052601160045260246000fd5b7f4e487b7100000000000000000000000000000000000000000000000000000000600052601260045260246000fd5b7f4e487b7100000000000000000000000000000000000000000000000000000000600052602260045260246000fd5b7f4e487b7100000000000000000000000000000000000000000000000000000000600052604160045260246000fd5b6000601f19601f8301169050919050565b7f4552433732313a207472616e7366657220746f206e6f6e20455243373231526560008201527f63656976657220696d706c656d656e7465720000000000000000000000000000602082015250565b7f4552433732313a207472616e736665722066726f6d20696e636f72726563742060008201527f6f776e6572000000000000000000000000000000000000000000000000000000602082015250565b7f4552433732313a20746f6b656e20616c7265616479206d696e74656400000000600082015250565b7f4552433732313a207472616e7366657220746f20746865207a65726f2061646460008201527f7265737300000000000000000000000000000000000000000000000000000000602082015250565b7f4552433732313a20617070726f766520746f2063616c6c657200000000000000600082015250565b7f4552433732313a2061646472657373207a65726f206973206e6f74206120766160008201527f6c6964206f776e65720000000000000000000000000000000000000000000000602082015250565b7f4552433732313a20617070726f76652063616c6c6572206973206e6f7420746f60008201527f6b656e206f776e6572206e6f7220617070726f76656420666f7220616c6c0000602082015250565b7f4552433732313a206d696e7420746f20746865207a65726f2061646472657373600082015250565b7f4552433732313a20696e76616c696420746f6b656e2049440000000000000000600082015250565b7f4552433732313a20617070726f76616c20746f2063757272656e74206f776e6560008201527f7200000000000000000000000000000000000000000000000000000000000000602082015250565b7f4552433732313a2063616c6c6572206973206e6f7420746f6b656e206f776e6560008201527f72206e6f7220617070726f766564000000000000000000000000000000000000602082015250565b61245a81611f24565b811461246557600080fd5b50565b61247181611f36565b811461247c57600080fd5b50565b61248881611f42565b811461249357600080fd5b50565b61249f81611f8e565b81146124aa57600080fd5b5056fea26469706673582212209a6d46b4b95c1ac047edff4dff5630606dcafd44157edf3531682282bdd7e1df64736f6c63430008010033",
					"opcodes": "PUSH1 0x80 PUSH1 0x40 MSTORE CALLVALUE DUP1 ISZERO PUSH3 0x11 JUMPI PUSH1 0x0 DUP1 REVERT JUMPDEST POP PUSH1 0x40 MLOAD PUSH3 0x286D CODESIZE SUB DUP1 PUSH3 0x286D DUP4 CODECOPY DUP2 DUP2 ADD PUSH1 0x40 MSTORE DUP2 ADD SWAP1 PUSH3 0x37 SWAP2 SWAP1 PUSH3 0x197 JUMP JUMPDEST DUP2 DUP2 DUP2 PUSH1 0x0 SWAP1 DUP1 MLOAD SWAP1 PUSH1 0x20 ADD SWAP1 PUSH3 0x51 SWAP3 SWAP2 SWAP1 PUSH3 0x75 JUMP JUMPDEST POP DUP1 PUSH1 0x1 SWAP1 DUP1 MLOAD SWAP1 PUSH1 0x20 ADD SWAP1 PUSH3 0x6A SWAP3 SWAP2 SWAP1 PUSH3 0x75 JUMP JUMPDEST POP POP POP POP POP PUSH3 0x37A JUMP JUMPDEST DUP3 DUP1 SLOAD PUSH3 0x83 SWAP1 PUSH3 0x29F JUMP JUMPDEST SWAP1 PUSH1 0x0 MSTORE PUSH1 0x20 PUSH1 0x0 KECCAK256 SWAP1 PUSH1 0x1F ADD PUSH1 0x20 SWAP1 DIV DUP2 ADD SWAP3 DUP3 PUSH3 0xA7 JUMPI PUSH1 0x0 DUP6 SSTORE PUSH3 0xF3 JUMP JUMPDEST DUP3 PUSH1 0x1F LT PUSH3 0xC2 JUMPI DUP1 MLOAD PUSH1 0xFF NOT AND DUP4 DUP1 ADD OR DUP6 SSTORE PUSH3 0xF3 JUMP JUMPDEST DUP3 DUP1 ADD PUSH1 0x1 ADD DUP6 SSTORE DUP3 ISZERO PUSH3 0xF3 JUMPI SWAP2 DUP3 ADD JUMPDEST DUP3 DUP2 GT ISZERO PUSH3 0xF2 JUMPI DUP3 MLOAD DUP3 SSTORE SWAP2 PUSH1 0x20 ADD SWAP2 SWAP1 PUSH1 0x1 ADD SWAP1 PUSH3 0xD5 JUMP JUMPDEST JUMPDEST POP SWAP1 POP PUSH3 0x102 SWAP2 SWAP1 PUSH3 0x106 JUMP JUMPDEST POP SWAP1 JUMP JUMPDEST JUMPDEST DUP1 DUP3 GT ISZERO PUSH3 0x121 JUMPI PUSH1 0x0 DUP2 PUSH1 0x0 SWAP1 SSTORE POP PUSH1 0x1 ADD PUSH3 0x107 JUMP JUMPDEST POP SWAP1 JUMP JUMPDEST PUSH1 0x0 PUSH3 0x13C PUSH3 0x136 DUP5 PUSH3 0x233 JUMP JUMPDEST PUSH3 0x20A JUMP JUMPDEST SWAP1 POP DUP3 DUP2 MSTORE PUSH1 0x20 DUP2 ADD DUP5 DUP5 DUP5 ADD GT ISZERO PUSH3 0x155 JUMPI PUSH1 0x0 DUP1 REVERT JUMPDEST PUSH3 0x162 DUP5 DUP3 DUP6 PUSH3 0x269 JUMP JUMPDEST POP SWAP4 SWAP3 POP POP POP JUMP JUMPDEST PUSH1 0x0 DUP3 PUSH1 0x1F DUP4 ADD SLT PUSH3 0x17C JUMPI PUSH1 0x0 DUP1 REVERT JUMPDEST DUP2 MLOAD PUSH3 0x18E DUP5 DUP3 PUSH1 0x20 DUP7 ADD PUSH3 0x125 JUMP JUMPDEST SWAP2 POP POP SWAP3 SWAP2 POP POP JUMP JUMPDEST PUSH1 0x0 DUP1 PUSH1 0x40 DUP4 DUP6 SUB SLT ISZERO PUSH3 0x1AB JUMPI PUSH1 0x0 DUP1 REVERT JUMPDEST PUSH1 0x0 DUP4 ADD MLOAD PUSH8 0xFFFFFFFFFFFFFFFF DUP2 GT ISZERO PUSH3 0x1C6 JUMPI PUSH1 0x0 DUP1 REVERT JUMPDEST PUSH3 0x1D4 DUP6 DUP3 DUP7 ADD PUSH3 0x16A JUMP JUMPDEST SWAP3 POP POP PUSH1 0x20 DUP4 ADD MLOAD PUSH8 0xFFFFFFFFFFFFFFFF DUP2 GT ISZERO PUSH3 0x1F2 JUMPI PUSH1 0x0 DUP1 REVERT JUMPDEST PUSH3 0x200 DUP6 DUP3 DUP7 ADD PUSH3 0x16A JUMP JUMPDEST SWAP2 POP POP SWAP3 POP SWAP3 SWAP1 POP JUMP JUMPDEST PUSH1 0x0 PUSH3 0x216 PUSH3 0x229 JUMP JUMPDEST SWAP1 POP PUSH3 0x224 DUP3 DUP3 PUSH3 0x2D5 JUMP JUMPDEST SWAP2 SWAP1 POP JUMP JUMPDEST PUSH1 0x0 PUSH1 0x40 MLOAD SWAP1 POP SWAP1 JUMP JUMPDEST PUSH1 0x0 PUSH8 0xFFFFFFFFFFFFFFFF DUP3 GT ISZERO PUSH3 0x251 JUMPI PUSH3 0x250 PUSH3 0x33A JUMP JUMPDEST JUMPDEST PUSH3 0x25C DUP3 PUSH3 0x369 JUMP JUMPDEST SWAP1 POP PUSH1 0x20 DUP2 ADD SWAP1 POP SWAP2 SWAP1 POP JUMP JUMPDEST PUSH1 0x0 JUMPDEST DUP4 DUP2 LT ISZERO PUSH3 0x289 JUMPI DUP1 DUP3 ADD MLOAD DUP2 DUP5 ADD MSTORE PUSH1 0x20 DUP2 ADD SWAP1 POP PUSH3 0x26C JUMP JUMPDEST DUP4 DUP2 GT ISZERO PUSH3 0x299 JUMPI PUSH1 0x0 DUP5 DUP5 ADD MSTORE JUMPDEST POP POP POP POP JUMP JUMPDEST PUSH1 0x0 PUSH1 0x2 DUP3 DIV SWAP1 POP PUSH1 0x1 DUP3 AND DUP1 PUSH3 0x2B8 JUMPI PUSH1 0x7F DUP3 AND SWAP2 POP JUMPDEST PUSH1 0x20 DUP3 LT DUP2 EQ ISZERO PUSH3 0x2CF JUMPI PUSH3 0x2CE PUSH3 0x30B JUMP JUMPDEST JUMPDEST POP SWAP2 SWAP1 POP JUMP JUMPDEST PUSH3 0x2E0 DUP3 PUSH3 0x369 JUMP JUMPDEST DUP2 ADD DUP2 DUP2 LT PUSH8 0xFFFFFFFFFFFFFFFF DUP3 GT OR ISZERO PUSH3 0x302 JUMPI PUSH3 0x301 PUSH3 0x33A JUMP JUMPDEST JUMPDEST DUP1 PUSH1 0x40 MSTORE POP POP POP JUMP JUMPDEST PUSH32 0x4E487B7100000000000000000000000000000000000000000000000000000000 PUSH1 0x0 MSTORE PUSH1 0x22 PUSH1 0x4 MSTORE PUSH1 0x24 PUSH1 0x0 REVERT JUMPDEST PUSH32 0x4E487B7100000000000000000000000000000000000000000000000000000000 PUSH1 0x0 MSTORE PUSH1 0x41 PUSH1 0x4 MSTORE PUSH1 0x24 PUSH1 0x0 REVERT JUMPDEST PUSH1 0x0 PUSH1 0x1F NOT PUSH1 0x1F DUP4 ADD AND SWAP1 POP SWAP2 SWAP1 POP JUMP JUMPDEST PUSH2 0x24E3 DUP1 PUSH3 0x38A PUSH1 0x0 CODECOPY PUSH1 0x0 RETURN INVALID PUSH1 0x80 PUSH1 0x40 MSTORE CALLVALUE DUP1 ISZERO PUSH2 0x10 JUMPI PUSH1 0x0 DUP1 REVERT JUMPDEST POP PUSH1 0x4 CALLDATASIZE LT PUSH2 0xEA JUMPI PUSH1 0x0 CALLDATALOAD PUSH1 0xE0 SHR DUP1 PUSH4 0x70A08231 GT PUSH2 0x8C JUMPI DUP1 PUSH4 0xB88D4FDE GT PUSH2 0x66 JUMPI DUP1 PUSH4 0xB88D4FDE EQ PUSH2 0x25B JUMPI DUP1 PUSH4 0xC87B56DD EQ PUSH2 0x277 JUMPI DUP1 PUSH4 0xE985E9C5 EQ PUSH2 0x2A7 JUMPI DUP1 PUSH4 0xF2FB2120 EQ PUSH2 0x2D7 JUMPI PUSH2 0xEA JUMP JUMPDEST DUP1 PUSH4 0x70A08231 EQ PUSH2 0x1F1 JUMPI DUP1 PUSH4 0x95D89B41 EQ PUSH2 0x221 JUMPI DUP1 PUSH4 0xA22CB465 EQ PUSH2 0x23F JUMPI PUSH2 0xEA JUMP JUMPDEST DUP1 PUSH4 0x95EA7B3 GT PUSH2 0xC8 JUMPI DUP1 PUSH4 0x95EA7B3 EQ PUSH2 0x16D JUMPI DUP1 PUSH4 0x23B872DD EQ PUSH2 0x189 JUMPI DUP1 PUSH4 0x42842E0E EQ PUSH2 0x1A5 JUMPI DUP1 PUSH4 0x6352211E EQ PUSH2 0x1C1 JUMPI PUSH2 0xEA JUMP JUMPDEST DUP1 PUSH4 0x1FFC9A7 EQ PUSH2 0xEF JUMPI DUP1 PUSH4 0x6FDDE03 EQ PUSH2 0x11F JUMPI DUP1 PUSH4 0x81812FC EQ PUSH2 0x13D JUMPI JUMPDEST PUSH1 0x0 DUP1 REVERT JUMPDEST PUSH2 0x109 PUSH1 0x4 DUP1 CALLDATASIZE SUB DUP2 ADD SWAP1 PUSH2 0x104 SWAP2 SWAP1 PUSH2 0x18C1 JUMP JUMPDEST PUSH2 0x307 JUMP JUMPDEST PUSH1 0x40 MLOAD PUSH2 0x116 SWAP2 SWAP1 PUSH2 0x1C18 JUMP JUMPDEST PUSH1 0x40 MLOAD DUP1 SWAP2 SUB SWAP1 RETURN JUMPDEST PUSH2 0x127 PUSH2 0x3E9 JUMP JUMPDEST PUSH1 0x40 MLOAD PUSH2 0x134 SWAP2 SWAP1 PUSH2 0x1C33 JUMP JUMPDEST PUSH1 0x40 MLOAD DUP1 SWAP2 SUB SWAP1 RETURN JUMPDEST PUSH2 0x157 PUSH1 0x4 DUP1 CALLDATASIZE SUB DUP2 ADD SWAP1 PUSH2 0x152 SWAP2 SWAP1 PUSH2 0x1913 JUMP JUMPDEST PUSH2 0x47B JUMP JUMPDEST PUSH1 0x40 MLOAD PUSH2 0x164 SWAP2 SWAP1 PUSH2 0x1BB1 JUMP JUMPDEST PUSH1 0x40 MLOAD DUP1 SWAP2 SUB SWAP1 RETURN JUMPDEST PUSH2 0x187 PUSH1 0x4 DUP1 CALLDATASIZE SUB DUP2 ADD SWAP1 PUSH2 0x182 SWAP2 SWAP1 PUSH2 0x1885 JUMP JUMPDEST PUSH2 0x4C1 JUMP JUMPDEST STOP JUMPDEST PUSH2 0x1A3 PUSH1 0x4 DUP1 CALLDATASIZE SUB DUP2 ADD SWAP1 PUSH2 0x19E SWAP2 SWAP1 PUSH2 0x177F JUMP JUMPDEST PUSH2 0x5D9 JUMP JUMPDEST STOP JUMPDEST PUSH2 0x1BF PUSH1 0x4 DUP1 CALLDATASIZE SUB DUP2 ADD SWAP1 PUSH2 0x1BA SWAP2 SWAP1 PUSH2 0x177F JUMP JUMPDEST PUSH2 0x639 JUMP JUMPDEST STOP JUMPDEST PUSH2 0x1DB PUSH1 0x4 DUP1 CALLDATASIZE SUB DUP2 ADD SWAP1 PUSH2 0x1D6 SWAP2 SWAP1 PUSH2 0x1913 JUMP JUMPDEST PUSH2 0x659 JUMP JUMPDEST PUSH1 0x40 MLOAD PUSH2 0x1E8 SWAP2 SWAP1 PUSH2 0x1BB1 JUMP JUMPDEST PUSH1 0x40 MLOAD DUP1 SWAP2 SUB SWAP1 RETURN JUMPDEST PUSH2 0x20B PUSH1 0x4 DUP1 CALLDATASIZE SUB DUP2 ADD SWAP1 PUSH2 0x206 SWAP2 SWAP1 PUSH2 0x171A JUMP JUMPDEST PUSH2 0x70B JUMP JUMPDEST PUSH1 0x40 MLOAD PUSH2 0x218 SWAP2 SWAP1 PUSH2 0x1DB5 JUMP JUMPDEST PUSH1 0x40 MLOAD DUP1 SWAP2 SUB SWAP1 RETURN JUMPDEST PUSH2 0x229 PUSH2 0x7C3 JUMP JUMPDEST PUSH1 0x40 MLOAD PUSH2 0x236 SWAP2 SWAP1 PUSH2 0x1C33 JUMP JUMPDEST PUSH1 0x40 MLOAD DUP1 SWAP2 SUB SWAP1 RETURN JUMPDEST PUSH2 0x259 PUSH1 0x4 DUP1 CALLDATASIZE SUB DUP2 ADD SWAP1 PUSH2 0x254 SWAP2 SWAP1 PUSH2 0x1849 JUMP JUMPDEST PUSH2 0x855 JUMP JUMPDEST STOP JUMPDEST PUSH2 0x275 PUSH1 0x4 DUP1 CALLDATASIZE SUB DUP2 ADD SWAP1 PUSH2 0x270 SWAP2 SWAP1 PUSH2 0x17CE JUMP JUMPDEST PUSH2 0x86B JUMP JUMPDEST STOP JUMPDEST PUSH2 0x291 PUSH1 0x4 DUP1 CALLDATASIZE SUB DUP2 ADD SWAP1 PUSH2 0x28C SWAP2 SWAP1 PUSH2 0x1913 JUMP JUMPDEST PUSH2 0x8CD JUMP JUMPDEST PUSH1 0x40 MLOAD PUSH2 0x29E SWAP2 SWAP1 PUSH2 0x1C33 JUMP JUMPDEST PUSH1 0x40 MLOAD DUP1 SWAP2 SUB SWAP1 RETURN JUMPDEST PUSH2 0x2C1 PUSH1 0x4 DUP1 CALLDATASIZE SUB DUP2 ADD SWAP1 PUSH2 0x2BC SWAP2 SWAP1 PUSH2 0x1743 JUMP JUMPDEST PUSH2 0x935 JUMP JUMPDEST PUSH1 0x40 MLOAD PUSH2 0x2CE SWAP2 SWAP1 PUSH2 0x1C18 JUMP JUMPDEST PUSH1 0x40 MLOAD DUP1 SWAP2 SUB SWAP1 RETURN JUMPDEST PUSH2 0x2F1 PUSH1 0x4 DUP1 CALLDATASIZE SUB DUP2 ADD SWAP1 PUSH2 0x2EC SWAP2 SWAP1 PUSH2 0x171A JUMP JUMPDEST PUSH2 0x9C9 JUMP JUMPDEST PUSH1 0x40 MLOAD PUSH2 0x2FE SWAP2 SWAP1 PUSH2 0x1DB5 JUMP JUMPDEST PUSH1 0x40 MLOAD DUP1 SWAP2 SUB SWAP1 RETURN JUMPDEST PUSH1 0x0 PUSH32 0x80AC58CD00000000000000000000000000000000000000000000000000000000 PUSH28 0xFFFFFFFFFFFFFFFFFFFFFFFFFFFFFFFFFFFFFFFFFFFFFFFFFFFFFFFF NOT AND DUP3 PUSH28 0xFFFFFFFFFFFFFFFFFFFFFFFFFFFFFFFFFFFFFFFFFFFFFFFFFFFFFFFF NOT AND EQ DUP1 PUSH2 0x3D2 JUMPI POP PUSH32 0x5B5E139F00000000000000000000000000000000000000000000000000000000 PUSH28 0xFFFFFFFFFFFFFFFFFFFFFFFFFFFFFFFFFFFFFFFFFFFFFFFFFFFFFFFF NOT AND DUP3 PUSH28 0xFFFFFFFFFFFFFFFFFFFFFFFFFFFFFFFFFFFFFFFFFFFFFFFFFFFFFFFF NOT AND EQ JUMPDEST DUP1 PUSH2 0x3E2 JUMPI POP PUSH2 0x3E1 DUP3 PUSH2 0x9F6 JUMP JUMPDEST JUMPDEST SWAP1 POP SWAP2 SWAP1 POP JUMP JUMPDEST PUSH1 0x60 PUSH1 0x0 DUP1 SLOAD PUSH2 0x3F8 SWAP1 PUSH2 0x1FDA JUMP JUMPDEST DUP1 PUSH1 0x1F ADD PUSH1 0x20 DUP1 SWAP2 DIV MUL PUSH1 0x20 ADD PUSH1 0x40 MLOAD SWAP1 DUP2 ADD PUSH1 0x40 MSTORE DUP1 SWAP3 SWAP2 SWAP1 DUP2 DUP2 MSTORE PUSH1 0x20 ADD DUP3 DUP1 SLOAD PUSH2 0x424 SWAP1 PUSH2 0x1FDA JUMP JUMPDEST DUP1 ISZERO PUSH2 0x471 JUMPI DUP1 PUSH1 0x1F LT PUSH2 0x446 JUMPI PUSH2 0x100 DUP1 DUP4 SLOAD DIV MUL DUP4 MSTORE SWAP2 PUSH1 0x20 ADD SWAP2 PUSH2 0x471 JUMP JUMPDEST DUP3 ADD SWAP2 SWAP1 PUSH1 0x0 MSTORE PUSH1 0x20 PUSH1 0x0 KECCAK256 SWAP1 JUMPDEST DUP2 SLOAD DUP2 MSTORE SWAP1 PUSH1 0x1 ADD SWAP1 PUSH1 0x20 ADD DUP1 DUP4 GT PUSH2 0x454 JUMPI DUP3 SWAP1 SUB PUSH1 0x1F AND DUP3 ADD SWAP2 JUMPDEST POP POP POP POP POP SWAP1 POP SWAP1 JUMP JUMPDEST PUSH1 0x0 PUSH2 0x486 DUP3 PUSH2 0xA60 JUMP JUMPDEST PUSH1 0x4 PUSH1 0x0 DUP4 DUP2 MSTORE PUSH1 0x20 ADD SWAP1 DUP2 MSTORE PUSH1 0x20 ADD PUSH1 0x0 KECCAK256 PUSH1 0x0 SWAP1 SLOAD SWAP1 PUSH2 0x100 EXP SWAP1 DIV PUSH20 0xFFFFFFFFFFFFFFFFFFFFFFFFFFFFFFFFFFFFFFFF AND SWAP1 POP SWAP2 SWAP1 POP JUMP JUMPDEST PUSH1 0x0 PUSH2 0x4CC DUP3 PUSH2 0x659 JUMP JUMPDEST SWAP1 POP DUP1 PUSH20 0xFFFFFFFFFFFFFFFFFFFFFFFFFFFFFFFFFFFFFFFF AND DUP4 PUSH20 0xFFFFFFFFFFFFFFFFFFFFFFFFFFFFFFFFFFFFFFFF AND EQ ISZERO PUSH2 0x53D JUMPI PUSH1 0x40 MLOAD PUSH32 0x8C379A000000000000000000000000000000000000000000000000000000000 DUP2 MSTORE PUSH1 0x4 ADD PUSH2 0x534 SWAP1 PUSH2 0x1D75 JUMP JUMPDEST PUSH1 0x40 MLOAD DUP1 SWAP2 SUB SWAP1 REVERT JUMPDEST DUP1 PUSH20 0xFFFFFFFFFFFFFFFFFFFFFFFFFFFFFFFFFFFFFFFF AND PUSH2 0x55C PUSH2 0xAAB JUMP JUMPDEST PUSH20 0xFFFFFFFFFFFFFFFFFFFFFFFFFFFFFFFFFFFFFFFF AND EQ DUP1 PUSH2 0x58B JUMPI POP PUSH2 0x58A DUP2 PUSH2 0x585 PUSH2 0xAAB JUMP JUMPDEST PUSH2 0x935 JUMP JUMPDEST JUMPDEST PUSH2 0x5CA JUMPI PUSH1 0x40 MLOAD PUSH32 0x8C379A000000000000000000000000000000000000000000000000000000000 DUP2 MSTORE PUSH1 0x4 ADD PUSH2 0x5C1 SWAP1 PUSH2 0x1D15 JUMP JUMPDEST PUSH1 0x40 MLOAD DUP1 SWAP2 SUB SWAP1 REVERT JUMPDEST PUSH2 0x5D4 DUP4 DUP4 PUSH2 0xAB3 JUMP JUMPDEST POP POP POP JUMP JUMPDEST PUSH2 0x5EA PUSH2 0x5E4 PUSH2 0xAAB JUMP JUMPDEST DUP3 PUSH2 0xB6C JUMP JUMPDEST PUSH2 0x629 JUMPI PUSH1 0x40 MLOAD PUSH32 0x8C379A000000000000000000000000000000000000000000000000000000000 DUP2 MSTORE PUSH1 0x4 ADD PUSH2 0x620 SWAP1 PUSH2 0x1D95 JUMP JUMPDEST PUSH1 0x40 MLOAD DUP1 SWAP2 SUB SWAP1 REVERT JUMPDEST PUSH2 0x634 DUP4 DUP4 DUP4 PUSH2 0xC01 JUMP JUMPDEST POP POP POP JUMP JUMPDEST PUSH2 0x654 DUP4 DUP4 DUP4 PUSH1 0x40 MLOAD DUP1 PUSH1 0x20 ADD PUSH1 0x40 MSTORE DUP1 PUSH1 0x0 DUP2 MSTORE POP PUSH2 0x86B JUMP JUMPDEST POP POP POP JUMP JUMPDEST PUSH1 0x0 DUP1 PUSH1 0x2 PUSH1 0x0 DUP5 DUP2 MSTORE PUSH1 0x20 ADD SWAP1 DUP2 MSTORE PUSH1 0x20 ADD PUSH1 0x0 KECCAK256 PUSH1 0x0 SWAP1 SLOAD SWAP1 PUSH2 0x100 EXP SWAP1 DIV PUSH20 0xFFFFFFFFFFFFFFFFFFFFFFFFFFFFFFFFFFFFFFFF AND SWAP1 POP PUSH1 0x0 PUSH20 0xFFFFFFFFFFFFFFFFFFFFFFFFFFFFFFFFFFFFFFFF AND DUP2 PUSH20 0xFFFFFFFFFFFFFFFFFFFFFFFFFFFFFFFFFFFFFFFF AND EQ ISZERO PUSH2 0x702 JUMPI PUSH1 0x40 MLOAD PUSH32 0x8C379A000000000000000000000000000000000000000000000000000000000 DUP2 MSTORE PUSH1 0x4 ADD PUSH2 0x6F9 SWAP1 PUSH2 0x1D55 JUMP JUMPDEST PUSH1 0x40 MLOAD DUP1 SWAP2 SUB SWAP1 REVERT JUMPDEST DUP1 SWAP2 POP POP SWAP2 SWAP1 POP JUMP JUMPDEST PUSH1 0x0 DUP1 PUSH20 0xFFFFFFFFFFFFFFFFFFFFFFFFFFFFFFFFFFFFFFFF AND DUP3 PUSH20 0xFFFFFFFFFFFFFFFFFFFFFFFFFFFFFFFFFFFFFFFF AND EQ ISZERO PUSH2 0x77C JUMPI PUSH1 0x40 MLOAD PUSH32 0x8C379A000000000000000000000000000000000000000000000000000000000 DUP2 MSTORE PUSH1 0x4 ADD PUSH2 0x773 SWAP1 PUSH2 0x1CF5 JUMP JUMPDEST PUSH1 0x40 MLOAD DUP1 SWAP2 SUB SWAP1 REVERT JUMPDEST PUSH1 0x3 PUSH1 0x0 DUP4 PUSH20 0xFFFFFFFFFFFFFFFFFFFFFFFFFFFFFFFFFFFFFFFF AND PUSH20 0xFFFFFFFFFFFFFFFFFFFFFFFFFFFFFFFFFFFFFFFF AND DUP2 MSTORE PUSH1 0x20 ADD SWAP1 DUP2 MSTORE PUSH1 0x20 ADD PUSH1 0x0 KECCAK256 SLOAD SWAP1 POP SWAP2 SWAP1 POP JUMP JUMPDEST PUSH1 0x60 PUSH1 0x1 DUP1 SLOAD PUSH2 0x7D2 SWAP1 PUSH2 0x1FDA JUMP JUMPDEST DUP1 PUSH1 0x1F ADD PUSH1 0x20 DUP1 SWAP2 DIV MUL PUSH1 0x20 ADD PUSH1 0x40 MLOAD SWAP1 DUP2 ADD PUSH1 0x40 MSTORE DUP1 SWAP3 SWAP2 SWAP1 DUP2 DUP2 MSTORE PUSH1 0x20 ADD DUP3 DUP1 SLOAD PUSH2 0x7FE SWAP1 PUSH2 0x1FDA JUMP JUMPDEST DUP1 ISZERO PUSH2 0x84B JUMPI DUP1 PUSH1 0x1F LT PUSH2 0x820 JUMPI PUSH2 0x100 DUP1 DUP4 SLOAD DIV MUL DUP4 MSTORE SWAP2 PUSH1 0x20 ADD SWAP2 PUSH2 0x84B JUMP JUMPDEST DUP3 ADD SWAP2 SWAP1 PUSH1 0x0 MSTORE PUSH1 0x20 PUSH1 0x0 KECCAK256 SWAP1 JUMPDEST DUP2 SLOAD DUP2 MSTORE SWAP1 PUSH1 0x1 ADD SWAP1 PUSH1 0x20 ADD DUP1 DUP4 GT PUSH2 0x82E JUMPI DUP3 SWAP1 SUB PUSH1 0x1F AND DUP3 ADD SWAP2 JUMPDEST POP POP POP POP POP SWAP1 POP SWAP1 JUMP JUMPDEST PUSH2 0x867 PUSH2 0x860 PUSH2 0xAAB JUMP JUMPDEST DUP4 DUP4 PUSH2 0xE68 JUMP JUMPDEST POP POP JUMP JUMPDEST PUSH2 0x87C PUSH2 0x876 PUSH2 0xAAB JUMP JUMPDEST DUP4 PUSH2 0xB6C JUMP JUMPDEST PUSH2 0x8BB JUMPI PUSH1 0x40 MLOAD PUSH32 0x8C379A000000000000000000000000000000000000000000000000000000000 DUP2 MSTORE PUSH1 0x4 ADD PUSH2 0x8B2 SWAP1 PUSH2 0x1D95 JUMP JUMPDEST PUSH1 0x40 MLOAD DUP1 SWAP2 SUB SWAP1 REVERT JUMPDEST PUSH2 0x8C7 DUP5 DUP5 DUP5 DUP5 PUSH2 0xFD5 JUMP JUMPDEST POP POP POP POP JUMP JUMPDEST PUSH1 0x60 PUSH2 0x8D8 DUP3 PUSH2 0xA60 JUMP JUMPDEST PUSH1 0x0 PUSH2 0x8E2 PUSH2 0x1031 JUMP JUMPDEST SWAP1 POP PUSH1 0x0 DUP2 MLOAD GT PUSH2 0x902 JUMPI PUSH1 0x40 MLOAD DUP1 PUSH1 0x20 ADD PUSH1 0x40 MSTORE DUP1 PUSH1 0x0 DUP2 MSTORE POP PUSH2 0x92D JUMP JUMPDEST DUP1 PUSH2 0x90C DUP5 PUSH2 0x106E JUMP JUMPDEST PUSH1 0x40 MLOAD PUSH1 0x20 ADD PUSH2 0x91D SWAP3 SWAP2 SWAP1 PUSH2 0x1B8D JUMP JUMPDEST PUSH1 0x40 MLOAD PUSH1 0x20 DUP2 DUP4 SUB SUB DUP2 MSTORE SWAP1 PUSH1 0x40 MSTORE JUMPDEST SWAP2 POP POP SWAP2 SWAP1 POP JUMP JUMPDEST PUSH1 0x0 PUSH1 0x5 PUSH1 0x0 DUP5 PUSH20 0xFFFFFFFFFFFFFFFFFFFFFFFFFFFFFFFFFFFFFFFF AND PUSH20 0xFFFFFFFFFFFFFFFFFFFFFFFFFFFFFFFFFFFFFFFF AND DUP2 MSTORE PUSH1 0x20 ADD SWAP1 DUP2 MSTORE PUSH1 0x20 ADD PUSH1 0x0 KECCAK256 PUSH1 0x0 DUP4 PUSH20 0xFFFFFFFFFFFFFFFFFFFFFFFFFFFFFFFFFFFFFFFF AND PUSH20 0xFFFFFFFFFFFFFFFFFFFFFFFFFFFFFFFFFFFFFFFF AND DUP2 MSTORE PUSH1 0x20 ADD SWAP1 DUP2 MSTORE PUSH1 0x20 ADD PUSH1 0x0 KECCAK256 PUSH1 0x0 SWAP1 SLOAD SWAP1 PUSH2 0x100 EXP SWAP1 DIV PUSH1 0xFF AND SWAP1 POP SWAP3 SWAP2 POP POP JUMP JUMPDEST PUSH1 0x0 PUSH2 0x9D5 PUSH1 0x6 PUSH2 0x121B JUMP JUMPDEST PUSH1 0x0 PUSH2 0x9E1 PUSH1 0x6 PUSH2 0x1231 JUMP JUMPDEST SWAP1 POP PUSH2 0x9ED DUP4 DUP3 PUSH2 0x123F JUMP JUMPDEST DUP1 SWAP2 POP POP SWAP2 SWAP1 POP JUMP JUMPDEST PUSH1 0x0 PUSH32 0x1FFC9A700000000000000000000000000000000000000000000000000000000 PUSH28 0xFFFFFFFFFFFFFFFFFFFFFFFFFFFFFFFFFFFFFFFFFFFFFFFFFFFFFFFF NOT AND DUP3 PUSH28 0xFFFFFFFFFFFFFFFFFFFFFFFFFFFFFFFFFFFFFFFFFFFFFFFFFFFFFFFF NOT AND EQ SWAP1 POP SWAP2 SWAP1 POP JUMP JUMPDEST PUSH2 0xA69 DUP2 PUSH2 0x1419 JUMP JUMPDEST PUSH2 0xAA8 JUMPI PUSH1 0x40 MLOAD PUSH32 0x8C379A000000000000000000000000000000000000000000000000000000000 DUP2 MSTORE PUSH1 0x4 ADD PUSH2 0xA9F SWAP1 PUSH2 0x1D55 JUMP JUMPDEST PUSH1 0x40 MLOAD DUP1 SWAP2 SUB SWAP1 REVERT JUMPDEST POP JUMP JUMPDEST PUSH1 0x0 CALLER SWAP1 POP SWAP1 JUMP JUMPDEST DUP2 PUSH1 0x4 PUSH1 0x0 DUP4 DUP2 MSTORE PUSH1 0x20 ADD SWAP1 DUP2 MSTORE PUSH1 0x20 ADD PUSH1 0x0 KECCAK256 PUSH1 0x0 PUSH2 0x100 EXP DUP2 SLOAD DUP2 PUSH20 0xFFFFFFFFFFFFFFFFFFFFFFFFFFFFFFFFFFFFFFFF MUL NOT AND SWAP1 DUP4 PUSH20 0xFFFFFFFFFFFFFFFFFFFFFFFFFFFFFFFFFFFFFFFF AND MUL OR SWAP1 SSTORE POP DUP1 DUP3 PUSH20 0xFFFFFFFFFFFFFFFFFFFFFFFFFFFFFFFFFFFFFFFF AND PUSH2 0xB26 DUP4 PUSH2 0x659 JUMP JUMPDEST PUSH20 0xFFFFFFFFFFFFFFFFFFFFFFFFFFFFFFFFFFFFFFFF AND PUSH32 0x8C5BE1E5EBEC7D5BD14F71427D1E84F3DD0314C0F7B2291E5B200AC8C7C3B925 PUSH1 0x40 MLOAD PUSH1 0x40 MLOAD DUP1 SWAP2 SUB SWAP1 LOG4 POP POP JUMP JUMPDEST PUSH1 0x0 DUP1 PUSH2 0xB78 DUP4 PUSH2 0x659 JUMP JUMPDEST SWAP1 POP DUP1 PUSH20 0xFFFFFFFFFFFFFFFFFFFFFFFFFFFFFFFFFFFFFFFF AND DUP5 PUSH20 0xFFFFFFFFFFFFFFFFFFFFFFFFFFFFFFFFFFFFFFFF AND EQ DUP1 PUSH2 0xBBA JUMPI POP PUSH2 0xBB9 DUP2 DUP6 PUSH2 0x935 JUMP JUMPDEST JUMPDEST DUP1 PUSH2 0xBF8 JUMPI POP DUP4 PUSH20 0xFFFFFFFFFFFFFFFFFFFFFFFFFFFFFFFFFFFFFFFF AND PUSH2 0xBE0 DUP5 PUSH2 0x47B JUMP JUMPDEST PUSH20 0xFFFFFFFFFFFFFFFFFFFFFFFFFFFFFFFFFFFFFFFF AND EQ JUMPDEST SWAP2 POP POP SWAP3 SWAP2 POP POP JUMP JUMPDEST DUP3 PUSH20 0xFFFFFFFFFFFFFFFFFFFFFFFFFFFFFFFFFFFFFFFF AND PUSH2 0xC21 DUP3 PUSH2 0x659 JUMP JUMPDEST PUSH20 0xFFFFFFFFFFFFFFFFFFFFFFFFFFFFFFFFFFFFFFFF AND EQ PUSH2 0xC77 JUMPI PUSH1 0x40 MLOAD PUSH32 0x8C379A000000000000000000000000000000000000000000000000000000000 DUP2 MSTORE PUSH1 0x4 ADD PUSH2 0xC6E SWAP1 PUSH2 0x1C75 JUMP JUMPDEST PUSH1 0x40 MLOAD DUP1 SWAP2 SUB SWAP1 REVERT JUMPDEST PUSH1 0x0 PUSH20 0xFFFFFFFFFFFFFFFFFFFFFFFFFFFFFFFFFFFFFFFF AND DUP3 PUSH20 0xFFFFFFFFFFFFFFFFFFFFFFFFFFFFFFFFFFFFFFFF AND EQ ISZERO PUSH2 0xCE7 JUMPI PUSH1 0x40 MLOAD PUSH32 0x8C379A000000000000000000000000000000000000000000000000000000000 DUP2 MSTORE PUSH1 0x4 ADD PUSH2 0xCDE SWAP1 PUSH2 0x1CB5 JUMP JUMPDEST PUSH1 0x40 MLOAD DUP1 SWAP2 SUB SWAP1 REVERT JUMPDEST PUSH2 0xCF2 DUP4 DUP4 DUP4 PUSH2 0x1485 JUMP JUMPDEST PUSH2 0xCFD PUSH1 0x0 DUP3 PUSH2 0xAB3 JUMP JUMPDEST PUSH1 0x1 PUSH1 0x3 PUSH1 0x0 DUP6 PUSH20 0xFFFFFFFFFFFFFFFFFFFFFFFFFFFFFFFFFFFFFFFF AND PUSH20 0xFFFFFFFFFFFFFFFFFFFFFFFFFFFFFFFFFFFFFFFF AND DUP2 MSTORE PUSH1 0x20 ADD SWAP1 DUP2 MSTORE PUSH1 0x20 ADD PUSH1 0x0 KECCAK256 PUSH1 0x0 DUP3 DUP3 SLOAD PUSH2 0xD4D SWAP2 SWAP1 PUSH2 0x1EF0 JUMP JUMPDEST SWAP3 POP POP DUP2 SWAP1 SSTORE POP PUSH1 0x1 PUSH1 0x3 PUSH1 0x0 DUP5 PUSH20 0xFFFFFFFFFFFFFFFFFFFFFFFFFFFFFFFFFFFFFFFF AND PUSH20 0xFFFFFFFFFFFFFFFFFFFFFFFFFFFFFFFFFFFFFFFF AND DUP2 MSTORE PUSH1 0x20 ADD SWAP1 DUP2 MSTORE PUSH1 0x20 ADD PUSH1 0x0 KECCAK256 PUSH1 0x0 DUP3 DUP3 SLOAD PUSH2 0xDA4 SWAP2 SWAP1 PUSH2 0x1E69 JUMP JUMPDEST SWAP3 POP POP DUP2 SWAP1 SSTORE POP DUP2 PUSH1 0x2 PUSH1 0x0 DUP4 DUP2 MSTORE PUSH1 0x20 ADD SWAP1 DUP2 MSTORE PUSH1 0x20 ADD PUSH1 0x0 KECCAK256 PUSH1 0x0 PUSH2 0x100 EXP DUP2 SLOAD DUP2 PUSH20 0xFFFFFFFFFFFFFFFFFFFFFFFFFFFFFFFFFFFFFFFF MUL NOT AND SWAP1 DUP4 PUSH20 0xFFFFFFFFFFFFFFFFFFFFFFFFFFFFFFFFFFFFFFFF AND MUL OR SWAP1 SSTORE POP DUP1 DUP3 PUSH20 0xFFFFFFFFFFFFFFFFFFFFFFFFFFFFFFFFFFFFFFFF AND DUP5 PUSH20 0xFFFFFFFFFFFFFFFFFFFFFFFFFFFFFFFFFFFFFFFF AND PUSH32 0xDDF252AD1BE2C89B69C2B068FC378DAA952BA7F163C4A11628F55A4DF523B3EF PUSH1 0x40 MLOAD PUSH1 0x40 MLOAD DUP1 SWAP2 SUB SWAP1 LOG4 PUSH2 0xE63 DUP4 DUP4 DUP4 PUSH2 0x148A JUMP JUMPDEST POP POP POP JUMP JUMPDEST DUP2 PUSH20 0xFFFFFFFFFFFFFFFFFFFFFFFFFFFFFFFFFFFFFFFF AND DUP4 PUSH20 0xFFFFFFFFFFFFFFFFFFFFFFFFFFFFFFFFFFFFFFFF AND EQ ISZERO PUSH2 0xED7 JUMPI PUSH1 0x40 MLOAD PUSH32 0x8C379A000000000000000000000000000000000000000000000000000000000 DUP2 MSTORE PUSH1 0x4 ADD PUSH2 0xECE SWAP1 PUSH2 0x1CD5 JUMP JUMPDEST PUSH1 0x40 MLOAD DUP1 SWAP2 SUB SWAP1 REVERT JUMPDEST DUP1 PUSH1 0x5 PUSH1 0x0 DUP6 PUSH20 0xFFFFFFFFFFFFFFFFFFFFFFFFFFFFFFFFFFFFFFFF AND PUSH20 0xFFFFFFFFFFFFFFFFFFFFFFFFFFFFFFFFFFFFFFFF AND DUP2 MSTORE PUSH1 0x20 ADD SWAP1 DUP2 MSTORE PUSH1 0x20 ADD PUSH1 0x0 KECCAK256 PUSH1 0x0 DUP5 PUSH20 0xFFFFFFFFFFFFFFFFFFFFFFFFFFFFFFFFFFFFFFFF AND PUSH20 0xFFFFFFFFFFFFFFFFFFFFFFFFFFFFFFFFFFFFFFFF AND DUP2 MSTORE PUSH1 0x20 ADD SWAP1 DUP2 MSTORE PUSH1 0x20 ADD PUSH1 0x0 KECCAK256 PUSH1 0x0 PUSH2 0x100 EXP DUP2 SLOAD DUP2 PUSH1 0xFF MUL NOT AND SWAP1 DUP4 ISZERO ISZERO MUL OR SWAP1 SSTORE POP DUP2 PUSH20 0xFFFFFFFFFFFFFFFFFFFFFFFFFFFFFFFFFFFFFFFF AND DUP4 PUSH20 0xFFFFFFFFFFFFFFFFFFFFFFFFFFFFFFFFFFFFFFFF AND PUSH32 0x17307EAB39AB6107E8899845AD3D59BD9653F200F220920489CA2B5937696C31 DUP4 PUSH1 0x40 MLOAD PUSH2 0xFC8 SWAP2 SWAP1 PUSH2 0x1C18 JUMP JUMPDEST PUSH1 0x40 MLOAD DUP1 SWAP2 SUB SWAP1 LOG3 POP POP POP JUMP JUMPDEST PUSH2 0xFE0 DUP5 DUP5 DUP5 PUSH2 0xC01 JUMP JUMPDEST PUSH2 0xFEC DUP5 DUP5 DUP5 DUP5 PUSH2 0x148F JUMP JUMPDEST PUSH2 0x102B JUMPI PUSH1 0x40 MLOAD PUSH32 0x8C379A000000000000000000000000000000000000000000000000000000000 DUP2 MSTORE PUSH1 0x4 ADD PUSH2 0x1022 SWAP1 PUSH2 0x1C55 JUMP JUMPDEST PUSH1 0x40 MLOAD DUP1 SWAP2 SUB SWAP1 REVERT JUMPDEST POP POP POP POP JUMP JUMPDEST PUSH1 0x60 PUSH1 0x40 MLOAD DUP1 PUSH1 0x40 ADD PUSH1 0x40 MSTORE DUP1 PUSH1 0x15 DUP2 MSTORE PUSH1 0x20 ADD PUSH32 0x68747470733A2F2F726563672E636F6D2F6E66742F0000000000000000000000 DUP2 MSTORE POP SWAP1 POP SWAP1 JUMP JUMPDEST PUSH1 0x60 PUSH1 0x0 DUP3 EQ ISZERO PUSH2 0x10B6 JUMPI PUSH1 0x40 MLOAD DUP1 PUSH1 0x40 ADD PUSH1 0x40 MSTORE DUP1 PUSH1 0x1 DUP2 MSTORE PUSH1 0x20 ADD PUSH32 0x3000000000000000000000000000000000000000000000000000000000000000 DUP2 MSTORE POP SWAP1 POP PUSH2 0x1216 JUMP JUMPDEST PUSH1 0x0 DUP3 SWAP1 POP PUSH1 0x0 JUMPDEST PUSH1 0x0 DUP3 EQ PUSH2 0x10E8 JUMPI DUP1 DUP1 PUSH2 0x10D1 SWAP1 PUSH2 0x203D JUMP JUMPDEST SWAP2 POP POP PUSH1 0xA DUP3 PUSH2 0x10E1 SWAP2 SWAP1 PUSH2 0x1EBF JUMP JUMPDEST SWAP2 POP PUSH2 0x10BE JUMP JUMPDEST PUSH1 0x0 DUP2 PUSH8 0xFFFFFFFFFFFFFFFF DUP2 GT ISZERO PUSH2 0x112A JUMPI PUSH32 0x4E487B7100000000000000000000000000000000000000000000000000000000 PUSH1 0x0 MSTORE PUSH1 0x41 PUSH1 0x4 MSTORE PUSH1 0x24 PUSH1 0x0 REVERT JUMPDEST PUSH1 0x40 MLOAD SWAP1 DUP1 DUP3 MSTORE DUP1 PUSH1 0x1F ADD PUSH1 0x1F NOT AND PUSH1 0x20 ADD DUP3 ADD PUSH1 0x40 MSTORE DUP1 ISZERO PUSH2 0x115C JUMPI DUP2 PUSH1 0x20 ADD PUSH1 0x1 DUP3 MUL DUP1 CALLDATASIZE DUP4 CALLDATACOPY DUP1 DUP3 ADD SWAP2 POP POP SWAP1 POP JUMPDEST POP SWAP1 POP JUMPDEST PUSH1 0x0 DUP6 EQ PUSH2 0x120F JUMPI PUSH1 0x1 DUP3 PUSH2 0x1175 SWAP2 SWAP1 PUSH2 0x1EF0 JUMP JUMPDEST SWAP2 POP PUSH1 0xA DUP6 PUSH2 0x1184 SWAP2 SWAP1 PUSH2 0x2086 JUMP JUMPDEST PUSH1 0x30 PUSH2 0x1190 SWAP2 SWAP1 PUSH2 0x1E69 JUMP JUMPDEST PUSH1 0xF8 SHL DUP2 DUP4 DUP2 MLOAD DUP2 LT PUSH2 0x11CC JUMPI PUSH32 0x4E487B7100000000000000000000000000000000000000000000000000000000 PUSH1 0x0 MSTORE PUSH1 0x32 PUSH1 0x4 MSTORE PUSH1 0x24 PUSH1 0x0 REVERT JUMPDEST PUSH1 0x20 ADD ADD SWAP1 PUSH31 0xFFFFFFFFFFFFFFFFFFFFFFFFFFFFFFFFFFFFFFFFFFFFFFFFFFFFFFFFFFFFFF NOT AND SWAP1 DUP2 PUSH1 0x0 BYTE SWAP1 MSTORE8 POP PUSH1 0xA DUP6 PUSH2 0x1208 SWAP2 SWAP1 PUSH2 0x1EBF JUMP JUMPDEST SWAP5 POP PUSH2 0x1160 JUMP JUMPDEST DUP1 SWAP4 POP POP POP POP JUMPDEST SWAP2 SWAP1 POP JUMP JUMPDEST PUSH1 0x1 DUP2 PUSH1 0x0 ADD PUSH1 0x0 DUP3 DUP3 SLOAD ADD SWAP3 POP POP DUP2 SWAP1 SSTORE POP POP JUMP JUMPDEST PUSH1 0x0 DUP2 PUSH1 0x0 ADD SLOAD SWAP1 POP SWAP2 SWAP1 POP JUMP JUMPDEST PUSH1 0x0 PUSH20 0xFFFFFFFFFFFFFFFFFFFFFFFFFFFFFFFFFFFFFFFF AND DUP3 PUSH20 0xFFFFFFFFFFFFFFFFFFFFFFFFFFFFFFFFFFFFFFFF AND EQ ISZERO PUSH2 0x12AF JUMPI PUSH1 0x40 MLOAD PUSH32 0x8C379A000000000000000000000000000000000000000000000000000000000 DUP2 MSTORE PUSH1 0x4 ADD PUSH2 0x12A6 SWAP1 PUSH2 0x1D35 JUMP JUMPDEST PUSH1 0x40 MLOAD DUP1 SWAP2 SUB SWAP1 REVERT JUMPDEST PUSH2 0x12B8 DUP2 PUSH2 0x1419 JUMP JUMPDEST ISZERO PUSH2 0x12F8 JUMPI PUSH1 0x40 MLOAD PUSH32 0x8C379A000000000000000000000000000000000000000000000000000000000 DUP2 MSTORE PUSH1 0x4 ADD PUSH2 0x12EF SWAP1 PUSH2 0x1C95 JUMP JUMPDEST PUSH1 0x40 MLOAD DUP1 SWAP2 SUB SWAP1 REVERT JUMPDEST PUSH2 0x1304 PUSH1 0x0 DUP4 DUP4 PUSH2 0x1485 JUMP JUMPDEST PUSH1 0x1 PUSH1 0x3 PUSH1 0x0 DUP5 PUSH20 0xFFFFFFFFFFFFFFFFFFFFFFFFFFFFFFFFFFFFFFFF AND PUSH20 0xFFFFFFFFFFFFFFFFFFFFFFFFFFFFFFFFFFFFFFFF AND DUP2 MSTORE PUSH1 0x20 ADD SWAP1 DUP2 MSTORE PUSH1 0x20 ADD PUSH1 0x0 KECCAK256 PUSH1 0x0 DUP3 DUP3 SLOAD PUSH2 0x1354 SWAP2 SWAP1 PUSH2 0x1E69 JUMP JUMPDEST SWAP3 POP POP DUP2 SWAP1 SSTORE POP DUP2 PUSH1 0x2 PUSH1 0x0 DUP4 DUP2 MSTORE PUSH1 0x20 ADD SWAP1 DUP2 MSTORE PUSH1 0x20 ADD PUSH1 0x0 KECCAK256 PUSH1 0x0 PUSH2 0x100 EXP DUP2 SLOAD DUP2 PUSH20 0xFFFFFFFFFFFFFFFFFFFFFFFFFFFFFFFFFFFFFFFF MUL NOT AND SWAP1 DUP4 PUSH20 0xFFFFFFFFFFFFFFFFFFFFFFFFFFFFFFFFFFFFFFFF AND MUL OR SWAP1 SSTORE POP DUP1 DUP3 PUSH20 0xFFFFFFFFFFFFFFFFFFFFFFFFFFFFFFFFFFFFFFFF AND PUSH1 0x0 PUSH20 0xFFFFFFFFFFFFFFFFFFFFFFFFFFFFFFFFFFFFFFFF AND PUSH32 0xDDF252AD1BE2C89B69C2B068FC378DAA952BA7F163C4A11628F55A4DF523B3EF PUSH1 0x40 MLOAD PUSH1 0x40 MLOAD DUP1 SWAP2 SUB SWAP1 LOG4 PUSH2 0x1415 PUSH1 0x0 DUP4 DUP4 PUSH2 0x148A JUMP JUMPDEST POP POP JUMP JUMPDEST PUSH1 0x0 DUP1 PUSH20 0xFFFFFFFFFFFFFFFFFFFFFFFFFFFFFFFFFFFFFFFF AND PUSH1 0x2 PUSH1 0x0 DUP5 DUP2 MSTORE PUSH1 0x20 ADD SWAP1 DUP2 MSTORE PUSH1 0x20 ADD PUSH1 0x0 KECCAK256 PUSH1 0x0 SWAP1 SLOAD SWAP1 PUSH2 0x100 EXP SWAP1 DIV PUSH20 0xFFFFFFFFFFFFFFFFFFFFFFFFFFFFFFFFFFFFFFFF AND PUSH20 0xFFFFFFFFFFFFFFFFFFFFFFFFFFFFFFFFFFFFFFFF AND EQ ISZERO SWAP1 POP SWAP2 SWAP1 POP JUMP JUMPDEST POP POP POP JUMP JUMPDEST POP POP POP JUMP JUMPDEST PUSH1 0x0 PUSH2 0x14B0 DUP5 PUSH20 0xFFFFFFFFFFFFFFFFFFFFFFFFFFFFFFFFFFFFFFFF AND PUSH2 0x1626 JUMP JUMPDEST ISZERO PUSH2 0x1619 JUMPI DUP4 PUSH20 0xFFFFFFFFFFFFFFFFFFFFFFFFFFFFFFFFFFFFFFFF AND PUSH4 0x150B7A02 PUSH2 0x14D9 PUSH2 0xAAB JUMP JUMPDEST DUP8 DUP7 DUP7 PUSH1 0x40 MLOAD DUP6 PUSH4 0xFFFFFFFF AND PUSH1 0xE0 SHL DUP2 MSTORE PUSH1 0x4 ADD PUSH2 0x14FB SWAP5 SWAP4 SWAP3 SWAP2 SWAP1 PUSH2 0x1BCC JUMP JUMPDEST PUSH1 0x20 PUSH1 0x40 MLOAD DUP1 DUP4 SUB DUP2 PUSH1 0x0 DUP8 DUP1 EXTCODESIZE ISZERO DUP1 ISZERO PUSH2 0x1515 JUMPI PUSH1 0x0 DUP1 REVERT JUMPDEST POP GAS CALL SWAP3 POP POP POP DUP1 ISZERO PUSH2 0x1546 JUMPI POP PUSH1 0x40 MLOAD RETURNDATASIZE PUSH1 0x1F NOT PUSH1 0x1F DUP3 ADD AND DUP3 ADD DUP1 PUSH1 0x40 MSTORE POP DUP2 ADD SWAP1 PUSH2 0x1543 SWAP2 SWAP1 PUSH2 0x18EA JUMP JUMPDEST PUSH1 0x1 JUMPDEST PUSH2 0x15C9 JUMPI RETURNDATASIZE DUP1 PUSH1 0x0 DUP2 EQ PUSH2 0x1576 JUMPI PUSH1 0x40 MLOAD SWAP2 POP PUSH1 0x1F NOT PUSH1 0x3F RETURNDATASIZE ADD AND DUP3 ADD PUSH1 0x40 MSTORE RETURNDATASIZE DUP3 MSTORE RETURNDATASIZE PUSH1 0x0 PUSH1 0x20 DUP5 ADD RETURNDATACOPY PUSH2 0x157B JUMP JUMPDEST PUSH1 0x60 SWAP2 POP JUMPDEST POP PUSH1 0x0 DUP2 MLOAD EQ ISZERO PUSH2 0x15C1 JUMPI PUSH1 0x40 MLOAD PUSH32 0x8C379A000000000000000000000000000000000000000000000000000000000 DUP2 MSTORE PUSH1 0x4 ADD PUSH2 0x15B8 SWAP1 PUSH2 0x1C55 JUMP JUMPDEST PUSH1 0x40 MLOAD DUP1 SWAP2 SUB SWAP1 REVERT JUMPDEST DUP1 MLOAD DUP2 PUSH1 0x20 ADD REVERT JUMPDEST PUSH4 0x150B7A02 PUSH1 0xE0 SHL PUSH28 0xFFFFFFFFFFFFFFFFFFFFFFFFFFFFFFFFFFFFFFFFFFFFFFFFFFFFFFFF NOT AND DUP2 PUSH28 0xFFFFFFFFFFFFFFFFFFFFFFFFFFFFFFFFFFFFFFFFFFFFFFFFFFFFFFFF NOT AND EQ SWAP2 POP POP PUSH2 0x161E JUMP JUMPDEST PUSH1 0x1 SWAP1 POP JUMPDEST SWAP5 SWAP4 POP POP POP POP JUMP JUMPDEST PUSH1 0x0 DUP1 DUP3 PUSH20 0xFFFFFFFFFFFFFFFFFFFFFFFFFFFFFFFFFFFFFFFF AND EXTCODESIZE GT SWAP1 POP SWAP2 SWAP1 POP JUMP JUMPDEST PUSH1 0x0 PUSH2 0x165C PUSH2 0x1657 DUP5 PUSH2 0x1DF5 JUMP JUMPDEST PUSH2 0x1DD0 JUMP JUMPDEST SWAP1 POP DUP3 DUP2 MSTORE PUSH1 0x20 DUP2 ADD DUP5 DUP5 DUP5 ADD GT ISZERO PUSH2 0x1674 JUMPI PUSH1 0x0 DUP1 REVERT JUMPDEST PUSH2 0x167F DUP5 DUP3 DUP6 PUSH2 0x1F98 JUMP JUMPDEST POP SWAP4 SWAP3 POP POP POP JUMP JUMPDEST PUSH1 0x0 DUP2 CALLDATALOAD SWAP1 POP PUSH2 0x1696 DUP2 PUSH2 0x2451 JUMP JUMPDEST SWAP3 SWAP2 POP POP JUMP JUMPDEST PUSH1 0x0 DUP2 CALLDATALOAD SWAP1 POP PUSH2 0x16AB DUP2 PUSH2 0x2468 JUMP JUMPDEST SWAP3 SWAP2 POP POP JUMP JUMPDEST PUSH1 0x0 DUP2 CALLDATALOAD SWAP1 POP PUSH2 0x16C0 DUP2 PUSH2 0x247F JUMP JUMPDEST SWAP3 SWAP2 POP POP JUMP JUMPDEST PUSH1 0x0 DUP2 MLOAD SWAP1 POP PUSH2 0x16D5 DUP2 PUSH2 0x247F JUMP JUMPDEST SWAP3 SWAP2 POP POP JUMP JUMPDEST PUSH1 0x0 DUP3 PUSH1 0x1F DUP4 ADD SLT PUSH2 0x16EC JUMPI PUSH1 0x0 DUP1 REVERT JUMPDEST DUP2 CALLDATALOAD PUSH2 0x16FC DUP5 DUP3 PUSH1 0x20 DUP7 ADD PUSH2 0x1649 JUMP JUMPDEST SWAP2 POP POP SWAP3 SWAP2 POP POP JUMP JUMPDEST PUSH1 0x0 DUP2 CALLDATALOAD SWAP1 POP PUSH2 0x1714 DUP2 PUSH2 0x2496 JUMP JUMPDEST SWAP3 SWAP2 POP POP JUMP JUMPDEST PUSH1 0x0 PUSH1 0x20 DUP3 DUP5 SUB SLT ISZERO PUSH2 0x172C JUMPI PUSH1 0x0 DUP1 REVERT JUMPDEST PUSH1 0x0 PUSH2 0x173A DUP5 DUP3 DUP6 ADD PUSH2 0x1687 JUMP JUMPDEST SWAP2 POP POP SWAP3 SWAP2 POP POP JUMP JUMPDEST PUSH1 0x0 DUP1 PUSH1 0x40 DUP4 DUP6 SUB SLT ISZERO PUSH2 0x1756 JUMPI PUSH1 0x0 DUP1 REVERT JUMPDEST PUSH1 0x0 PUSH2 0x1764 DUP6 DUP3 DUP7 ADD PUSH2 0x1687 JUMP JUMPDEST SWAP3 POP POP PUSH1 0x20 PUSH2 0x1775 DUP6 DUP3 DUP7 ADD PUSH2 0x1687 JUMP JUMPDEST SWAP2 POP POP SWAP3 POP SWAP3 SWAP1 POP JUMP JUMPDEST PUSH1 0x0 DUP1 PUSH1 0x0 PUSH1 0x60 DUP5 DUP7 SUB SLT ISZERO PUSH2 0x1794 JUMPI PUSH1 0x0 DUP1 REVERT JUMPDEST PUSH1 0x0 PUSH2 0x17A2 DUP7 DUP3 DUP8 ADD PUSH2 0x1687 JUMP JUMPDEST SWAP4 POP POP PUSH1 0x20 PUSH2 0x17B3 DUP7 DUP3 DUP8 ADD PUSH2 0x1687 JUMP JUMPDEST SWAP3 POP POP PUSH1 0x40 PUSH2 0x17C4 DUP7 DUP3 DUP8 ADD PUSH2 0x1705 JUMP JUMPDEST SWAP2 POP POP SWAP3 POP SWAP3 POP SWAP3 JUMP JUMPDEST PUSH1 0x0 DUP1 PUSH1 0x0 DUP1 PUSH1 0x80 DUP6 DUP8 SUB SLT ISZERO PUSH2 0x17E4 JUMPI PUSH1 0x0 DUP1 REVERT JUMPDEST PUSH1 0x0 PUSH2 0x17F2 DUP8 DUP3 DUP9 ADD PUSH2 0x1687 JUMP JUMPDEST SWAP5 POP POP PUSH1 0x20 PUSH2 0x1803 DUP8 DUP3 DUP9 ADD PUSH2 0x1687 JUMP JUMPDEST SWAP4 POP POP PUSH1 0x40 PUSH2 0x1814 DUP8 DUP3 DUP9 ADD PUSH2 0x1705 JUMP JUMPDEST SWAP3 POP POP PUSH1 0x60 DUP6 ADD CALLDATALOAD PUSH8 0xFFFFFFFFFFFFFFFF DUP2 GT ISZERO PUSH2 0x1831 JUMPI PUSH1 0x0 DUP1 REVERT JUMPDEST PUSH2 0x183D DUP8 DUP3 DUP9 ADD PUSH2 0x16DB JUMP JUMPDEST SWAP2 POP POP SWAP3 SWAP6 SWAP2 SWAP5 POP SWAP3 POP JUMP JUMPDEST PUSH1 0x0 DUP1 PUSH1 0x40 DUP4 DUP6 SUB SLT ISZERO PUSH2 0x185C JUMPI PUSH1 0x0 DUP1 REVERT JUMPDEST PUSH1 0x0 PUSH2 0x186A DUP6 DUP3 DUP7 ADD PUSH2 0x1687 JUMP JUMPDEST SWAP3 POP POP PUSH1 0x20 PUSH2 0x187B DUP6 DUP3 DUP7 ADD PUSH2 0x169C JUMP JUMPDEST SWAP2 POP POP SWAP3 POP SWAP3 SWAP1 POP JUMP JUMPDEST PUSH1 0x0 DUP1 PUSH1 0x40 DUP4 DUP6 SUB SLT ISZERO PUSH2 0x1898 JUMPI PUSH1 0x0 DUP1 REVERT JUMPDEST PUSH1 0x0 PUSH2 0x18A6 DUP6 DUP3 DUP7 ADD PUSH2 0x1687 JUMP JUMPDEST SWAP3 POP POP PUSH1 0x20 PUSH2 0x18B7 DUP6 DUP3 DUP7 ADD PUSH2 0x1705 JUMP JUMPDEST SWAP2 POP POP SWAP3 POP SWAP3 SWAP1 POP JUMP JUMPDEST PUSH1 0x0 PUSH1 0x20 DUP3 DUP5 SUB SLT ISZERO PUSH2 0x18D3 JUMPI PUSH1 0x0 DUP1 REVERT JUMPDEST PUSH1 0x0 PUSH2 0x18E1 DUP5 DUP3 DUP6 ADD PUSH2 0x16B1 JUMP JUMPDEST SWAP2 POP POP SWAP3 SWAP2 POP POP JUMP JUMPDEST PUSH1 0x0 PUSH1 0x20 DUP3 DUP5 SUB SLT ISZERO PUSH2 0x18FC JUMPI PUSH1 0x0 DUP1 REVERT JUMPDEST PUSH1 0x0 PUSH2 0x190A DUP5 DUP3 DUP6 ADD PUSH2 0x16C6 JUMP JUMPDEST SWAP2 POP POP SWAP3 SWAP2 POP POP JUMP JUMPDEST PUSH1 0x0 PUSH1 0x20 DUP3 DUP5 SUB SLT ISZERO PUSH2 0x1925 JUMPI PUSH1 0x0 DUP1 REVERT JUMPDEST PUSH1 0x0 PUSH2 0x1933 DUP5 DUP3 DUP6 ADD PUSH2 0x1705 JUMP JUMPDEST SWAP2 POP POP SWAP3 SWAP2 POP POP JUMP JUMPDEST PUSH2 0x1945 DUP2 PUSH2 0x1F24 JUMP JUMPDEST DUP3 MSTORE POP POP JUMP JUMPDEST PUSH2 0x1954 DUP2 PUSH2 0x1F36 JUMP JUMPDEST DUP3 MSTORE POP POP JUMP JUMPDEST PUSH1 0x0 PUSH2 0x1965 DUP3 PUSH2 0x1E26 JUMP JUMPDEST PUSH2 0x196F DUP2 DUP6 PUSH2 0x1E3C JUMP JUMPDEST SWAP4 POP PUSH2 0x197F DUP2 DUP6 PUSH1 0x20 DUP7 ADD PUSH2 0x1FA7 JUMP JUMPDEST PUSH2 0x1988 DUP2 PUSH2 0x2173 JUMP JUMPDEST DUP5 ADD SWAP2 POP POP SWAP3 SWAP2 POP POP JUMP JUMPDEST PUSH1 0x0 PUSH2 0x199E DUP3 PUSH2 0x1E31 JUMP JUMPDEST PUSH2 0x19A8 DUP2 DUP6 PUSH2 0x1E4D JUMP JUMPDEST SWAP4 POP PUSH2 0x19B8 DUP2 DUP6 PUSH1 0x20 DUP7 ADD PUSH2 0x1FA7 JUMP JUMPDEST PUSH2 0x19C1 DUP2 PUSH2 0x2173 JUMP JUMPDEST DUP5 ADD SWAP2 POP POP SWAP3 SWAP2 POP POP JUMP JUMPDEST PUSH1 0x0 PUSH2 0x19D7 DUP3 PUSH2 0x1E31 JUMP JUMPDEST PUSH2 0x19E1 DUP2 DUP6 PUSH2 0x1E5E JUMP JUMPDEST SWAP4 POP PUSH2 0x19F1 DUP2 DUP6 PUSH1 0x20 DUP7 ADD PUSH2 0x1FA7 JUMP JUMPDEST DUP1 DUP5 ADD SWAP2 POP POP SWAP3 SWAP2 POP POP JUMP JUMPDEST PUSH1 0x0 PUSH2 0x1A0A PUSH1 0x32 DUP4 PUSH2 0x1E4D JUMP JUMPDEST SWAP2 POP PUSH2 0x1A15 DUP3 PUSH2 0x2184 JUMP JUMPDEST PUSH1 0x40 DUP3 ADD SWAP1 POP SWAP2 SWAP1 POP JUMP JUMPDEST PUSH1 0x0 PUSH2 0x1A2D PUSH1 0x25 DUP4 PUSH2 0x1E4D JUMP JUMPDEST SWAP2 POP PUSH2 0x1A38 DUP3 PUSH2 0x21D3 JUMP JUMPDEST PUSH1 0x40 DUP3 ADD SWAP1 POP SWAP2 SWAP1 POP JUMP JUMPDEST PUSH1 0x0 PUSH2 0x1A50 PUSH1 0x1C DUP4 PUSH2 0x1E4D JUMP JUMPDEST SWAP2 POP PUSH2 0x1A5B DUP3 PUSH2 0x2222 JUMP JUMPDEST PUSH1 0x20 DUP3 ADD SWAP1 POP SWAP2 SWAP1 POP JUMP JUMPDEST PUSH1 0x0 PUSH2 0x1A73 PUSH1 0x24 DUP4 PUSH2 0x1E4D JUMP JUMPDEST SWAP2 POP PUSH2 0x1A7E DUP3 PUSH2 0x224B JUMP JUMPDEST PUSH1 0x40 DUP3 ADD SWAP1 POP SWAP2 SWAP1 POP JUMP JUMPDEST PUSH1 0x0 PUSH2 0x1A96 PUSH1 0x19 DUP4 PUSH2 0x1E4D JUMP JUMPDEST SWAP2 POP PUSH2 0x1AA1 DUP3 PUSH2 0x229A JUMP JUMPDEST PUSH1 0x20 DUP3 ADD SWAP1 POP SWAP2 SWAP1 POP JUMP JUMPDEST PUSH1 0x0 PUSH2 0x1AB9 PUSH1 0x29 DUP4 PUSH2 0x1E4D JUMP JUMPDEST SWAP2 POP PUSH2 0x1AC4 DUP3 PUSH2 0x22C3 JUMP JUMPDEST PUSH1 0x40 DUP3 ADD SWAP1 POP SWAP2 SWAP1 POP JUMP JUMPDEST PUSH1 0x0 PUSH2 0x1ADC PUSH1 0x3E DUP4 PUSH2 0x1E4D JUMP JUMPDEST SWAP2 POP PUSH2 0x1AE7 DUP3 PUSH2 0x2312 JUMP JUMPDEST PUSH1 0x40 DUP3 ADD SWAP1 POP SWAP2 SWAP1 POP JUMP JUMPDEST PUSH1 0x0 PUSH2 0x1AFF PUSH1 0x20 DUP4 PUSH2 0x1E4D JUMP JUMPDEST SWAP2 POP PUSH2 0x1B0A DUP3 PUSH2 0x2361 JUMP JUMPDEST PUSH1 0x20 DUP3 ADD SWAP1 POP SWAP2 SWAP1 POP JUMP JUMPDEST PUSH1 0x0 PUSH2 0x1B22 PUSH1 0x18 DUP4 PUSH2 0x1E4D JUMP JUMPDEST SWAP2 POP PUSH2 0x1B2D DUP3 PUSH2 0x238A JUMP JUMPDEST PUSH1 0x20 DUP3 ADD SWAP1 POP SWAP2 SWAP1 POP JUMP JUMPDEST PUSH1 0x0 PUSH2 0x1B45 PUSH1 0x21 DUP4 PUSH2 0x1E4D JUMP JUMPDEST SWAP2 POP PUSH2 0x1B50 DUP3 PUSH2 0x23B3 JUMP JUMPDEST PUSH1 0x40 DUP3 ADD SWAP1 POP SWAP2 SWAP1 POP JUMP JUMPDEST PUSH1 0x0 PUSH2 0x1B68 PUSH1 0x2E DUP4 PUSH2 0x1E4D JUMP JUMPDEST SWAP2 POP PUSH2 0x1B73 DUP3 PUSH2 0x2402 JUMP JUMPDEST PUSH1 0x40 DUP3 ADD SWAP1 POP SWAP2 SWAP1 POP JUMP JUMPDEST PUSH2 0x1B87 DUP2 PUSH2 0x1F8E JUMP JUMPDEST DUP3 MSTORE POP POP JUMP JUMPDEST PUSH1 0x0 PUSH2 0x1B99 DUP3 DUP6 PUSH2 0x19CC JUMP JUMPDEST SWAP2 POP PUSH2 0x1BA5 DUP3 DUP5 PUSH2 0x19CC JUMP JUMPDEST SWAP2 POP DUP2 SWAP1 POP SWAP4 SWAP3 POP POP POP JUMP JUMPDEST PUSH1 0x0 PUSH1 0x20 DUP3 ADD SWAP1 POP PUSH2 0x1BC6 PUSH1 0x0 DUP4 ADD DUP5 PUSH2 0x193C JUMP JUMPDEST SWAP3 SWAP2 POP POP JUMP JUMPDEST PUSH1 0x0 PUSH1 0x80 DUP3 ADD SWAP1 POP PUSH2 0x1BE1 PUSH1 0x0 DUP4 ADD DUP8 PUSH2 0x193C JUMP JUMPDEST PUSH2 0x1BEE PUSH1 0x20 DUP4 ADD DUP7 PUSH2 0x193C JUMP JUMPDEST PUSH2 0x1BFB PUSH1 0x40 DUP4 ADD DUP6 PUSH2 0x1B7E JUMP JUMPDEST DUP2 DUP2 SUB PUSH1 0x60 DUP4 ADD MSTORE PUSH2 0x1C0D DUP2 DUP5 PUSH2 0x195A JUMP JUMPDEST SWAP1 POP SWAP6 SWAP5 POP POP POP POP POP JUMP JUMPDEST PUSH1 0x0 PUSH1 0x20 DUP3 ADD SWAP1 POP PUSH2 0x1C2D PUSH1 0x0 DUP4 ADD DUP5 PUSH2 0x194B JUMP JUMPDEST SWAP3 SWAP2 POP POP JUMP JUMPDEST PUSH1 0x0 PUSH1 0x20 DUP3 ADD SWAP1 POP DUP2 DUP2 SUB PUSH1 0x0 DUP4 ADD MSTORE PUSH2 0x1C4D DUP2 DUP5 PUSH2 0x1993 JUMP JUMPDEST SWAP1 POP SWAP3 SWAP2 POP POP JUMP JUMPDEST PUSH1 0x0 PUSH1 0x20 DUP3 ADD SWAP1 POP DUP2 DUP2 SUB PUSH1 0x0 DUP4 ADD MSTORE PUSH2 0x1C6E DUP2 PUSH2 0x19FD JUMP JUMPDEST SWAP1 POP SWAP2 SWAP1 POP JUMP JUMPDEST PUSH1 0x0 PUSH1 0x20 DUP3 ADD SWAP1 POP DUP2 DUP2 SUB PUSH1 0x0 DUP4 ADD MSTORE PUSH2 0x1C8E DUP2 PUSH2 0x1A20 JUMP JUMPDEST SWAP1 POP SWAP2 SWAP1 POP JUMP JUMPDEST PUSH1 0x0 PUSH1 0x20 DUP3 ADD SWAP1 POP DUP2 DUP2 SUB PUSH1 0x0 DUP4 ADD MSTORE PUSH2 0x1CAE DUP2 PUSH2 0x1A43 JUMP JUMPDEST SWAP1 POP SWAP2 SWAP1 POP JUMP JUMPDEST PUSH1 0x0 PUSH1 0x20 DUP3 ADD SWAP1 POP DUP2 DUP2 SUB PUSH1 0x0 DUP4 ADD MSTORE PUSH2 0x1CCE DUP2 PUSH2 0x1A66 JUMP JUMPDEST SWAP1 POP SWAP2 SWAP1 POP JUMP JUMPDEST PUSH1 0x0 PUSH1 0x20 DUP3 ADD SWAP1 POP DUP2 DUP2 SUB PUSH1 0x0 DUP4 ADD MSTORE PUSH2 0x1CEE DUP2 PUSH2 0x1A89 JUMP JUMPDEST SWAP1 POP SWAP2 SWAP1 POP JUMP JUMPDEST PUSH1 0x0 PUSH1 0x20 DUP3 ADD SWAP1 POP DUP2 DUP2 SUB PUSH1 0x0 DUP4 ADD MSTORE PUSH2 0x1D0E DUP2 PUSH2 0x1AAC JUMP JUMPDEST SWAP1 POP SWAP2 SWAP1 POP JUMP JUMPDEST PUSH1 0x0 PUSH1 0x20 DUP3 ADD SWAP1 POP DUP2 DUP2 SUB PUSH1 0x0 DUP4 ADD MSTORE PUSH2 0x1D2E DUP2 PUSH2 0x1ACF JUMP JUMPDEST SWAP1 POP SWAP2 SWAP1 POP JUMP JUMPDEST PUSH1 0x0 PUSH1 0x20 DUP3 ADD SWAP1 POP DUP2 DUP2 SUB PUSH1 0x0 DUP4 ADD MSTORE PUSH2 0x1D4E DUP2 PUSH2 0x1AF2 JUMP JUMPDEST SWAP1 POP SWAP2 SWAP1 POP JUMP JUMPDEST PUSH1 0x0 PUSH1 0x20 DUP3 ADD SWAP1 POP DUP2 DUP2 SUB PUSH1 0x0 DUP4 ADD MSTORE PUSH2 0x1D6E DUP2 PUSH2 0x1B15 JUMP JUMPDEST SWAP1 POP SWAP2 SWAP1 POP JUMP JUMPDEST PUSH1 0x0 PUSH1 0x20 DUP3 ADD SWAP1 POP DUP2 DUP2 SUB PUSH1 0x0 DUP4 ADD MSTORE PUSH2 0x1D8E DUP2 PUSH2 0x1B38 JUMP JUMPDEST SWAP1 POP SWAP2 SWAP1 POP JUMP JUMPDEST PUSH1 0x0 PUSH1 0x20 DUP3 ADD SWAP1 POP DUP2 DUP2 SUB PUSH1 0x0 DUP4 ADD MSTORE PUSH2 0x1DAE DUP2 PUSH2 0x1B5B JUMP JUMPDEST SWAP1 POP SWAP2 SWAP1 POP JUMP JUMPDEST PUSH1 0x0 PUSH1 0x20 DUP3 ADD SWAP1 POP PUSH2 0x1DCA PUSH1 0x0 DUP4 ADD DUP5 PUSH2 0x1B7E JUMP JUMPDEST SWAP3 SWAP2 POP POP JUMP JUMPDEST PUSH1 0x0 PUSH2 0x1DDA PUSH2 0x1DEB JUMP JUMPDEST SWAP1 POP PUSH2 0x1DE6 DUP3 DUP3 PUSH2 0x200C JUMP JUMPDEST SWAP2 SWAP1 POP JUMP JUMPDEST PUSH1 0x0 PUSH1 0x40 MLOAD SWAP1 POP SWAP1 JUMP JUMPDEST PUSH1 0x0 PUSH8 0xFFFFFFFFFFFFFFFF DUP3 GT ISZERO PUSH2 0x1E10 JUMPI PUSH2 0x1E0F PUSH2 0x2144 JUMP JUMPDEST JUMPDEST PUSH2 0x1E19 DUP3 PUSH2 0x2173 JUMP JUMPDEST SWAP1 POP PUSH1 0x20 DUP2 ADD SWAP1 POP SWAP2 SWAP1 POP JUMP JUMPDEST PUSH1 0x0 DUP2 MLOAD SWAP1 POP SWAP2 SWAP1 POP JUMP JUMPDEST PUSH1 0x0 DUP2 MLOAD SWAP1 POP SWAP2 SWAP1 POP JUMP JUMPDEST PUSH1 0x0 DUP3 DUP3 MSTORE PUSH1 0x20 DUP3 ADD SWAP1 POP SWAP3 SWAP2 POP POP JUMP JUMPDEST PUSH1 0x0 DUP3 DUP3 MSTORE PUSH1 0x20 DUP3 ADD SWAP1 POP SWAP3 SWAP2 POP POP JUMP JUMPDEST PUSH1 0x0 DUP2 SWAP1 POP SWAP3 SWAP2 POP POP JUMP JUMPDEST PUSH1 0x0 PUSH2 0x1E74 DUP3 PUSH2 0x1F8E JUMP JUMPDEST SWAP2 POP PUSH2 0x1E7F DUP4 PUSH2 0x1F8E JUMP JUMPDEST SWAP3 POP DUP3 PUSH32 0xFFFFFFFFFFFFFFFFFFFFFFFFFFFFFFFFFFFFFFFFFFFFFFFFFFFFFFFFFFFFFFFF SUB DUP3 GT ISZERO PUSH2 0x1EB4 JUMPI PUSH2 0x1EB3 PUSH2 0x20B7 JUMP JUMPDEST JUMPDEST DUP3 DUP3 ADD SWAP1 POP SWAP3 SWAP2 POP POP JUMP JUMPDEST PUSH1 0x0 PUSH2 0x1ECA DUP3 PUSH2 0x1F8E JUMP JUMPDEST SWAP2 POP PUSH2 0x1ED5 DUP4 PUSH2 0x1F8E JUMP JUMPDEST SWAP3 POP DUP3 PUSH2 0x1EE5 JUMPI PUSH2 0x1EE4 PUSH2 0x20E6 JUMP JUMPDEST JUMPDEST DUP3 DUP3 DIV SWAP1 POP SWAP3 SWAP2 POP POP JUMP JUMPDEST PUSH1 0x0 PUSH2 0x1EFB DUP3 PUSH2 0x1F8E JUMP JUMPDEST SWAP2 POP PUSH2 0x1F06 DUP4 PUSH2 0x1F8E JUMP JUMPDEST SWAP3 POP DUP3 DUP3 LT ISZERO PUSH2 0x1F19 JUMPI PUSH2 0x1F18 PUSH2 0x20B7 JUMP JUMPDEST JUMPDEST DUP3 DUP3 SUB SWAP1 POP SWAP3 SWAP2 POP POP JUMP JUMPDEST PUSH1 0x0 PUSH2 0x1F2F DUP3 PUSH2 0x1F6E JUMP JUMPDEST SWAP1 POP SWAP2 SWAP1 POP JUMP JUMPDEST PUSH1 0x0 DUP2 ISZERO ISZERO SWAP1 POP SWAP2 SWAP1 POP JUMP JUMPDEST PUSH1 0x0 PUSH32 0xFFFFFFFF00000000000000000000000000000000000000000000000000000000 DUP3 AND SWAP1 POP SWAP2 SWAP1 POP JUMP JUMPDEST PUSH1 0x0 PUSH20 0xFFFFFFFFFFFFFFFFFFFFFFFFFFFFFFFFFFFFFFFF DUP3 AND SWAP1 POP SWAP2 SWAP1 POP JUMP JUMPDEST PUSH1 0x0 DUP2 SWAP1 POP SWAP2 SWAP1 POP JUMP JUMPDEST DUP3 DUP2 DUP4 CALLDATACOPY PUSH1 0x0 DUP4 DUP4 ADD MSTORE POP POP POP JUMP JUMPDEST PUSH1 0x0 JUMPDEST DUP4 DUP2 LT ISZERO PUSH2 0x1FC5 JUMPI DUP1 DUP3 ADD MLOAD DUP2 DUP5 ADD MSTORE PUSH1 0x20 DUP2 ADD SWAP1 POP PUSH2 0x1FAA JUMP JUMPDEST DUP4 DUP2 GT ISZERO PUSH2 0x1FD4 JUMPI PUSH1 0x0 DUP5 DUP5 ADD MSTORE JUMPDEST POP POP POP POP JUMP JUMPDEST PUSH1 0x0 PUSH1 0x2 DUP3 DIV SWAP1 POP PUSH1 0x1 DUP3 AND DUP1 PUSH2 0x1FF2 JUMPI PUSH1 0x7F DUP3 AND SWAP2 POP JUMPDEST PUSH1 0x20 DUP3 LT DUP2 EQ ISZERO PUSH2 0x2006 JUMPI PUSH2 0x2005 PUSH2 0x2115 JUMP JUMPDEST JUMPDEST POP SWAP2 SWAP1 POP JUMP JUMPDEST PUSH2 0x2015 DUP3 PUSH2 0x2173 JUMP JUMPDEST DUP2 ADD DUP2 DUP2 LT PUSH8 0xFFFFFFFFFFFFFFFF DUP3 GT OR ISZERO PUSH2 0x2034 JUMPI PUSH2 0x2033 PUSH2 0x2144 JUMP JUMPDEST JUMPDEST DUP1 PUSH1 0x40 MSTORE POP POP POP JUMP JUMPDEST PUSH1 0x0 PUSH2 0x2048 DUP3 PUSH2 0x1F8E JUMP JUMPDEST SWAP2 POP PUSH32 0xFFFFFFFFFFFFFFFFFFFFFFFFFFFFFFFFFFFFFFFFFFFFFFFFFFFFFFFFFFFFFFFF DUP3 EQ ISZERO PUSH2 0x207B JUMPI PUSH2 0x207A PUSH2 0x20B7 JUMP JUMPDEST JUMPDEST PUSH1 0x1 DUP3 ADD SWAP1 POP SWAP2 SWAP1 POP JUMP JUMPDEST PUSH1 0x0 PUSH2 0x2091 DUP3 PUSH2 0x1F8E JUMP JUMPDEST SWAP2 POP PUSH2 0x209C DUP4 PUSH2 0x1F8E JUMP JUMPDEST SWAP3 POP DUP3 PUSH2 0x20AC JUMPI PUSH2 0x20AB PUSH2 0x20E6 JUMP JUMPDEST JUMPDEST DUP3 DUP3 MOD SWAP1 POP SWAP3 SWAP2 POP POP JUMP JUMPDEST PUSH32 0x4E487B7100000000000000000000000000000000000000000000000000000000 PUSH1 0x0 MSTORE PUSH1 0x11 PUSH1 0x4 MSTORE PUSH1 0x24 PUSH1 0x0 REVERT JUMPDEST PUSH32 0x4E487B7100000000000000000000000000000000000000000000000000000000 PUSH1 0x0 MSTORE PUSH1 0x12 PUSH1 0x4 MSTORE PUSH1 0x24 PUSH1 0x0 REVERT JUMPDEST PUSH32 0x4E487B7100000000000000000000000000000000000000000000000000000000 PUSH1 0x0 MSTORE PUSH1 0x22 PUSH1 0x4 MSTORE PUSH1 0x24 PUSH1 0x0 REVERT JUMPDEST PUSH32 0x4E487B7100000000000000000000000000000000000000000000000000000000 PUSH1 0x0 MSTORE PUSH1 0x41 PUSH1 0x4 MSTORE PUSH1 0x24 PUSH1 0x0 REVERT JUMPDEST PUSH1 0x0 PUSH1 0x1F NOT PUSH1 0x1F DUP4 ADD AND SWAP1 POP SWAP2 SWAP1 POP JUMP JUMPDEST PUSH32 0x4552433732313A207472616E7366657220746F206E6F6E204552433732315265 PUSH1 0x0 DUP3 ADD MSTORE PUSH32 0x63656976657220696D706C656D656E7465720000000000000000000000000000 PUSH1 0x20 DUP3 ADD MSTORE POP JUMP JUMPDEST PUSH32 0x4552433732313A207472616E736665722066726F6D20696E636F727265637420 PUSH1 0x0 DUP3 ADD MSTORE PUSH32 0x6F776E6572000000000000000000000000000000000000000000000000000000 PUSH1 0x20 DUP3 ADD MSTORE POP JUMP JUMPDEST PUSH32 0x4552433732313A20746F6B656E20616C7265616479206D696E74656400000000 PUSH1 0x0 DUP3 ADD MSTORE POP JUMP JUMPDEST PUSH32 0x4552433732313A207472616E7366657220746F20746865207A65726F20616464 PUSH1 0x0 DUP3 ADD MSTORE PUSH32 0x7265737300000000000000000000000000000000000000000000000000000000 PUSH1 0x20 DUP3 ADD MSTORE POP JUMP JUMPDEST PUSH32 0x4552433732313A20617070726F766520746F2063616C6C657200000000000000 PUSH1 0x0 DUP3 ADD MSTORE POP JUMP JUMPDEST PUSH32 0x4552433732313A2061646472657373207A65726F206973206E6F742061207661 PUSH1 0x0 DUP3 ADD MSTORE PUSH32 0x6C6964206F776E65720000000000000000000000000000000000000000000000 PUSH1 0x20 DUP3 ADD MSTORE POP JUMP JUMPDEST PUSH32 0x4552433732313A20617070726F76652063616C6C6572206973206E6F7420746F PUSH1 0x0 DUP3 ADD MSTORE PUSH32 0x6B656E206F776E6572206E6F7220617070726F76656420666F7220616C6C0000 PUSH1 0x20 DUP3 ADD MSTORE POP JUMP JUMPDEST PUSH32 0x4552433732313A206D696E7420746F20746865207A65726F2061646472657373 PUSH1 0x0 DUP3 ADD MSTORE POP JUMP JUMPDEST PUSH32 0x4552433732313A20696E76616C696420746F6B656E2049440000000000000000 PUSH1 0x0 DUP3 ADD MSTORE POP JUMP JUMPDEST PUSH32 0x4552433732313A20617070726F76616C20746F2063757272656E74206F776E65 PUSH1 0x0 DUP3 ADD MSTORE PUSH32 0x7200000000000000000000000000000000000000000000000000000000000000 PUSH1 0x20 DUP3 ADD MSTORE POP JUMP JUMPDEST PUSH32 0x4552433732313A2063616C6C6572206973206E6F7420746F6B656E206F776E65 PUSH1 0x0 DUP3 ADD MSTORE PUSH32 0x72206E6F7220617070726F766564000000000000000000000000000000000000 PUSH1 0x20 DUP3 ADD MSTORE POP JUMP JUMPDEST PUSH2 0x245A DUP2 PUSH2 0x1F24 JUMP JUMPDEST DUP2 EQ PUSH2 0x2465 JUMPI PUSH1 0x0 DUP1 REVERT JUMPDEST POP JUMP JUMPDEST PUSH2 0x2471 DUP2 PUSH2 0x1F36 JUMP JUMPDEST DUP2 EQ PUSH2 0x247C JUMPI PUSH1 0x0 DUP1 REVERT JUMPDEST POP JUMP JUMPDEST PUSH2 0x2488 DUP2 PUSH2 0x1F42 JUMP JUMPDEST DUP2 EQ PUSH2 0x2493 JUMPI PUSH1 0x0 DUP1 REVERT JUMPDEST POP JUMP JUMPDEST PUSH2 0x249F DUP2 PUSH2 0x1F8E JUMP JUMPDEST DUP2 EQ PUSH2 0x24AA JUMPI PUSH1 0x0 DUP1 REVERT JUMPDEST POP JUMP INVALID LOG2 PUSH5 0x6970667358 0x22 SLT KECCAK256 SWAP11 PUSH14 0x46B4B95C1AC047EDFF4DFF563060 PUSH14 0xCAFD44157EDF3531682282BDD7E1 0xDF PUSH5 0x736F6C6343 STOP ADDMOD ADD STOP CALLER "
				},
				"gasEstimates": {
					"creation": {
						"codeDepositCost": "1888600",
						"executionCost": "infinite",
						"totalCost": "infinite"
					},
					"external": {
						"approve(address,uint256)": "infinite",
						"awardItem(address)": "infinite",
						"balanceOf(address)": "1602",
						"getApproved(uint256)": "2657",
						"isApprovedForAll(address,address)": "infinite",
						"name()": "infinite",
						"ownerOf(uint256)": "1748",
						"safeTransferFrom(address,address,uint256)": "infinite",
						"safeTransferFrom(address,address,uint256,bytes)": "infinite",
						"setApprovalForAll(address,bool)": "infinite",
						"supportsInterface(bytes4)": "797",
						"symbol()": "infinite",
						"tokenURI(uint256)": "infinite",
						"transferFrom(address,address,uint256)": "infinite"
					}
				},
				"methodIdentifiers": {
					"approve(address,uint256)": "095ea7b3",
					"awardItem(address)": "f2fb2120",
					"balanceOf(address)": "70a08231",
					"getApproved(uint256)": "081812fc",
					"isApprovedForAll(address,address)": "e985e9c5",
					"name()": "06fdde03",
					"ownerOf(uint256)": "6352211e",
					"safeTransferFrom(address,address,uint256)": "42842e0e",
					"safeTransferFrom(address,address,uint256,bytes)": "b88d4fde",
					"setApprovalForAll(address,bool)": "a22cb465",
					"supportsInterface(bytes4)": "01ffc9a7",
					"symbol()": "95d89b41",
					"tokenURI(uint256)": "c87b56dd",
					"transferFrom(address,address,uint256)": "23b872dd"
				}
			},
			"storageLayout": {
				"storage": [
					{
						"astId": 25,
						"contract": "contracts/RecG.sol:RecG",
						"label": "_name",
						"offset": 0,
						"slot": "0",
						"type": "t_string_storage"
					},
					{
						"astId": 27,
						"contract": "contracts/RecG.sol:RecG",
						"label": "_symbol",
						"offset": 0,
						"slot": "1",
						"type": "t_string_storage"
					},
					{
						"astId": 31,
						"contract": "contracts/RecG.sol:RecG",
						"label": "_owners",
						"offset": 0,
						"slot": "2",
						"type": "t_mapping(t_uint256,t_address)"
					},
					{
						"astId": 35,
						"contract": "contracts/RecG.sol:RecG",
						"label": "_balances",
						"offset": 0,
						"slot": "3",
						"type": "t_mapping(t_address,t_uint256)"
					},
					{
						"astId": 39,
						"contract": "contracts/RecG.sol:RecG",
						"label": "_tokenApprovals",
						"offset": 0,
						"slot": "4",
						"type": "t_mapping(t_uint256,t_address)"
					},
					{
						"astId": 45,
						"contract": "contracts/RecG.sol:RecG",
						"label": "_operatorApprovals",
						"offset": 0,
						"slot": "5",
						"type": "t_mapping(t_address,t_mapping(t_address,t_bool))"
					},
					{
						"astId": 1694,
						"contract": "contracts/RecG.sol:RecG",
						"label": "_tokenIds",
						"offset": 0,
						"slot": "6",
						"type": "t_struct(Counter)1350_storage"
					}
				],
				"types": {
					"t_address": {
						"encoding": "inplace",
						"label": "address",
						"numberOfBytes": "20"
					},
					"t_bool": {
						"encoding": "inplace",
						"label": "bool",
						"numberOfBytes": "1"
					},
					"t_mapping(t_address,t_bool)": {
						"encoding": "mapping",
						"key": "t_address",
						"label": "mapping(address => bool)",
						"numberOfBytes": "32",
						"value": "t_bool"
					},
					"t_mapping(t_address,t_mapping(t_address,t_bool))": {
						"encoding": "mapping",
						"key": "t_address",
						"label": "mapping(address => mapping(address => bool))",
						"numberOfBytes": "32",
						"value": "t_mapping(t_address,t_bool)"
					},
					"t_mapping(t_address,t_uint256)": {
						"encoding": "mapping",
						"key": "t_address",
						"label": "mapping(address => uint256)",
						"numberOfBytes": "32",
						"value": "t_uint256"
					},
					"t_mapping(t_uint256,t_address)": {
						"encoding": "mapping",
						"key": "t_uint256",
						"label": "mapping(uint256 => address)",
						"numberOfBytes": "32",
						"value": "t_address"
					},
					"t_string_storage": {
						"encoding": "bytes",
						"label": "string",
						"numberOfBytes": "32"
					},
					"t_struct(Counter)1350_storage": {
						"encoding": "inplace",
						"label": "struct Counters.Counter",
						"members": [
							{
								"astId": 1349,
								"contract": "contracts/RecG.sol:RecG",
								"label": "_value",
								"offset": 0,
								"slot": "0",
								"type": "t_uint256"
							}
						],
						"numberOfBytes": "32"
					},
					"t_uint256": {
						"encoding": "inplace",
						"label": "uint256",
						"numberOfBytes": "32"
					}
				}
			},
			"userdoc": {
				"kind": "user",
				"methods": {},
				"version": 1
			}
		}
	}
}